:020000040800F2
:10000000A02D00207D020008EF1800083B18000812
:10001000ED180008C1030008592300080000000083
:100020000000000000000000000000009D0100082A
:10003000C303000800000000F9010008E91B0008E4
:10004000970200089702000897020008970200082C
:10005000970200089702000897020008970200081C
:10006000970200089702000897020008970200080C
:1000700097020008970200089702000897020008FC
:1000800097020008970200089702000897020008EC
:1000900097020008970200089702000897020008DC
:1000A00097020008970200089702000897020008CC
:1000B000ED1C00089702000897020008970200084C
:1000C00097020008970200089702000897020008AC
:1000D00097020008970200084D23000897020008C5
:1000E000970200089702000897020008970200088C
:1000F000970200089702000897020008970200087C
:10010000970200089702000897020008970200086B
:10011000970200089702000897020008970200085B
:10012000970200089702000897020008970200084B
:10013000970200089702000897020008970200083B
:10014000970200089702000897020008970200082B
:10015000970200089702000897020008970200081B
:10016000970200089702000897020008970200080B
:10017000970200089702000897020008000000009C
:100180009702000897020008DFF80CD000F006F98B
:1001900000480047C1230008A02D00202C4B1968FF
:1001A000086800F05AB880F30988BFF36F8F4FF0EA
:1001B000000080F3118870470000000008480068C4
:1001C000006880F308884FF0000080F3148862B65E
:1001D00061B6BFF34F8FBFF36F8F00DF00BF00BF6B
:1001E00008ED00E0DFF80C00016841F470010160E7
:1001F000704700BF88ED00E0EFF30980BFF36F8F19
:10020000134B1A681EF0100F08BF20ED108A20E96A
:10021000F04F106009B44FF0500080F31188BFF325
:100220004F8FBFF36F8F02F0F7FE4FF0000080F3A7
:10023000118809BC1968086800F014B81EF0100F86
:1002400008BF00F014B880F30988BFF36F8F7047C0
:1002500044000020EFF30580704730C8B0E8C04F7D
:10026000FFF7A1BF30C8B0E8C04FFFF7E7BFB0EC61
:10027000088AB0EC08CAFFF7E6BF000006488047CE
:1002800006480047FEE7FEE7FEE7FEE7FEE7FEE77B
:10029000FEE7FEE7FEE7FEE7A91C0008890100086B
:1002A0002DE9F05F0546002092469B4688460646AB
:1002B000814640241BE0284641464746224600F03E
:1002C0005DF853465A46C01A914110D3114618465C
:1002D000224600F044F82D1A67EB01084F462246EB
:1002E0000120002100F03BF817EB00094E41201ED1
:1002F000A4F10104DFDC484631462A46434600F0BB
:1003000000B830BCBDE8C09F40EA01039B0703D0A2
:1003100009E008C9121F08C0042AFAD203E011F844
:10032000013B00F8013B521EF9D27047D2B201E006
:1003300000F8012B491EFBD270470022F6E710B5EA
:1003400013460A4604461946FFF7F0FF204610BD43
:10035000421C10F8011B0029FBD1801A7047202A8B
:1003600004DB203A00FA02F1002070479140C2F10C
:10037000200320FA03F3194390407047202A04DB3E
:10038000203A21FA02F00021704721FA02F3D0400E
:10039000C2F120029140084319467047064C074DB0
:1003A00006E0E06840F0010394E807009847103445
:1003B000AC42F6D3FFF7ECFE383C0008583C00088E
:1003C000FEE770470248416921F48071416170473E
:1003D000001000480248416941F480714161704752
:1003E0000010004810B590F825100024022903D011
:1003F0000421C16301241AE001680A6822F00E0298
:100400000A6001680A6822F001020A6090F844104C
:10041000036C01F01C02012101FA02F25A6080F81B
:100420002510002180F82410816B01B188472046F7
:1004300010BD00002DE9F84FDFF898B100234FF010
:10044000010C4FF0030A4FF00F090BF1040EB9E055
:100450000CFA03F4224070D04D68022D01D0122D09
:100460000ED1DD0800EB8508D8F820505E07F70EA6
:1004700009FA07F6B5430E69BE402E43C8F820605E
:1004800007685E0091F804800AFA06F508F0030890
:10049000AF4308FA06F848EA0708C0F800804F683A
:1004A000012F05D0022F03D0112F01D0122F13D10D
:1004B000D0F80880CF6828EA0508B74047EA08075F
:1004C0008760D0F804800F7928EA0408C7F3001782
:1004D0009F4047EA08074760D1F804806FEA0807A1
:1004E000BF0706D1C76AA743C8F3C0049C403C437A
:1004F000C462C468AC438D68B5402543C5604C6890
:10050000E4005ED5344C256E45F001052566246E69
:1005100023F0030504F001040094304C2E19B46854
:100520009D072F0F09FA07F5AC43B0F1904F05D0A6
:100530002B4DA84204D101251CE042E0002519E022
:10054000284DA84201D1022514E0274DA84201D12F
:1005500003250FE0254DA84201D104250AE0244DD2
:10056000A84201D1052505E0224DA84201D106256A
:1005700000E00725BD402543B560DBF800405D463F
:100580004E689443F60300D514432C60DEF8004017
:1005900075464E689443B60300D514432C600D4D48
:1005A00008352C684E689443F60200D514432C603D
:1005B000084D0C352C684E689443B60200D51443A0
:1005C0002C605B1C0A6832FA03F57FF441AF00F03F
:1005D00013B8000000040140001002400000014078
:1005E0000004004800080048000C004800100048C3
:1005F000001400480018004818BCBDE8E08F000057
:1006000001480068704700003C0000200248016873
:10061000491C0160704700003C00002010B5002418
:10062000032000F089F8002000F008F808B1012448
:1006300001E000F03BF8204610BD000000B5014687
:1006400087B000221C2000F057F81C2000F048F86A
:100650001348816D41F001018165806D05A900F0AD
:1006600001000690684600F019FB00F037FB0D49C9
:100670004FF08042B0FBF1F10B48491E026041602F
:1006800040F2E7320021C0E90321816000F0FFFD64
:1006900010B1012007B000BD034800F015FEF9E7D6
:1006A0000010024040420F00600100200B4882B061
:1006B000016E41F001010166016E01F0010100913E
:1006C000816D41F080518165806D002200F0805085
:1006D00000900F21901E02B000F00EB800100240F2
:1006E00000F01F02012191404009800000F1E0204C
:1006F000C0F8001170470000F0B40E4B1B680C46A8
:10070000C3F30223C3F10705042D00D90425191DE5
:10071000072901D2002300E0DB1E012606FA05F1BD
:10072000491E214099409E40761E16403143F0BC40
:1007300001F0DEB80CED00E0064900F007020868A1
:100740004FF6FF03184040EA0220034A10430860B6
:10075000704700000CED00E00000FA051649B0F506
:10076000007F0868C0F3412009D0022805D008683E
:1007700020F4C06040F480600860002070470128C9
:10078000FBD0086820F4C06040F4007008600B489B
:100790003222006850430A4AB0FBF2F0401C00E0ED
:1007A000401E4A69520501D50028F9D14869400523
:1007B000E3D5032070470000007000404000002097
:1007C00040420F000248006800F4C060704700001B
:1007D000007000402DE9F84F044600270088E54DE1
:1007E0003E46010504F1200B1DD5606E78B1B0F5D1
:1007F000800F11D0B0F5000F04D0B0F5400F22D01B
:1008000001270FE0E86840F48030E8601BE0002139
:10081000201D01F07DF803E00021584601F00EF99B
:10082000070010D03E462088C00426D5A06EC0B177
:10083000B0F1807F1AD0B0F1007F0DD0B0F1407FD1
:1008400019D0012718E0D5F88800616E20F4400027
:100850000843C5F88800E6E7E86840F48030E860BF
:1008600009E00021201D01F053F803E00021584663
:1008700001F0E4F80746F7B13E46206880033AD518
:10088000A86D4FF00008C00009D4A86D40F080505A
:10089000A865A86D4FF0010800F080500090DFF8C7
:1008A000D8A2DAF8001041F48071CAF80010FFF7FE
:1008B000A7FE814610E0D5F88800A16E20F04070B8
:1008C0000843C5F88800D8E7FFF79AFEA0EB0900B7
:1008D000022801D9032705E0DAF80000C005F3D5A6
:1008E000002F7CD04FEA0706B8F1000F03D0A86DA7
:1008F00020F08050A8652078C00707D0D5F8880080
:10090000A16B20F003000843C5F888002078800719
:1009100007D5D5F88800E16B20F00C000843C5F836
:1009200088002078400707D5D5F88800216C20F092
:1009300030000843C5F888002078000707D5D5F8AF
:100940008800616C20F0C0000843C5F8880020785A
:10095000C00607D5D5F88800A16C20F44070084384
:10096000C5F888002078800607D5D5F88800E16CA6
:1009700020F440600843C5F888002088800507D52A
:10098000D5F88800E16D20F440200843C5F88800C0
:100990002088400507D5D5F88800216E20F4401046
:1009A0000843C5F888002078400607D5D5F88800A8
:1009B000216D20F440500843C5F8880020780006D7
:1009C00007D5D5F88800616D20F440400843C5F88C
:1009D00088002088C00509D5D5F8880000E01CE013
:1009E000A16D20F440300843C5F8880020884FF0FE
:1009F000006780044FF080684FD5D5F88800E16E1D
:100A000020F040600843C5F88800E06EB8423CD151
:100A1000E86840F48010E8603FE0D5F8900010F4FA
:100A2000407015D0D4F88410814211D0D5F89000D0
:100A3000D5F8901020F4407041F48031C5F8901042
:100A4000D5F8901021F48031C5F89010C5F89000C9
:100A5000C00710D0FFF7D4FD074641F2883906E001
:100A6000FFF7CEFDC11B494501D903263CE7D5F868
:100A700090008007F4D5D5F89000D4F8841020F4C5
:100A800040700843C5F890002EE7404505D101218C
:100A9000201D00F03DFF00B106462068000317D579
:100AA000D5F88800216F20F040600843C5F8880021
:100AB000206FB84204D1E86840F48010E86007E095
:100AC000404505D10121201D00F022FF00B106465E
:100AD0002068400317D5D5F88800616F20F040608A
:100AE0000843C5F88800606FB84204D1E86840F454
:100AF0008010E86007E0404505D10121201D00F08D
:100B000007FF00B10646208840041AD5D5F88800B2
:100B1000A16F20F040500843C5F88800A06FB0F1E5
:100B2000805F03D0B0F1005F05D00AE00221201DF4
:100B300000F0EEFE03E00221584600F07FFF00B116
:100B400006462088000407D5D5F88800E16F20F01C
:100B500080400843C5F888002068C00307D555F8D1
:100B6000880FD4F8801020F00040084328603046F9
:100B700000F004B8001002400070004018BCBDE84E
:100B8000E08F00002DE9F0470F46050058D03F4E9A
:100B9000306800F00700B84209D2306820F0070042
:100BA00038433060306800F00700B84248D12878F8
:100BB000374CC0072CD06868032811D0022812D007
:100BC000216898B1490500293ADAA16821F00301AA
:100BD0000143A160FFF714FD804641F2883910E01F
:100BE00021688901EFE721688903ECE78907EAE7D3
:100BF000FFF706FDA0EB0801494502D90320BDE837
:100C0000F087A068696800F00C00B0EB810FEFD1AD
:100C10002878800705D5A068A96820F0F00008436F
:100C2000A060306800F00700B8420BD9306820F0AF
:100C3000070038433060306800F00700B84201D048
:100C40000120DCE72878400705D5A068E96820F492
:100C5000E0600843A0602878000706D5A0682969ED
:100C600020F4605040EAC100A06000F05BF8A16889
:100C7000084AC1F30311515C01F01F01C840064945
:100C80000860BDE8F0470020FFF7D8BC0020024014
:100C900000100240E43B0008400000200F220260E8
:100CA0000C4A936803F003034360936803F0F00376
:100CB0008360936803F4E063C36092684FF4E06379
:100CC00003EAD20202610448006800F007000860ED
:100CD000704700000010024000200240054806490D
:100CE00000688968054AC1F30221515C01F01F01C7
:100CF000C84070474000002000100240243C00081B
:100D00000548064900688968054AC1F3C221515C5B
:100D100001F01F01C8407047400000200010024051
:100D2000243C000870B52549002318468A68CC6821
:100D300012F00C0204F00306214C4FEA640509D0BE
:100D40000C2A05D0042A26D0082A00D1284670BDD6
:100D5000012E10D10B681B0704D4D1F89430C3F3D3
:100D6000032302E00B68C3F30313164E56F8233037
:100D70007AB10C2AEBD1C86800F00302C868C0F34E
:100D80000210401C022A08D0032A09D0B3FBF0F05D
:100D900008E0184670BD204670BDB4FBF0F001E0DD
:100DA000B5FBF0F0CA68C968C2F306225043C1F32C
:100DB0004161491C4900B0FBF1F070BD00100240D8
:100DC0000024F400F43B00082DE9F84305007CD032
:100DD000FD4CA06800F00C06E06800F003072878DE
:100DE000C00661D576B10C2E01D1012F0AD0A869B9
:100DF0000028206878D040F001002060FFF700FC58
:100E0000804659E02068800702D5A8690028DED016
:100E1000286A2168090703D5216801F0F00104E080
:100E2000D4F89410F02202EA1111884215D900F08A
:100E300089FE002849D1206840F008002060206821
:100E4000296A20F0F000084320606068E96920F416
:100E50007F4040EA0120606015E0206840F0080013
:100E600020602068296A20F0F00008432060606854
:100E7000E96920F47F4040EA01206060286A00F0C0
:100E800061FE0028D6D1FFF74DFFA168CF4AC1F31C
:100E90000311515C01F01F01C840CD4908600020DA
:100EA000FFF7CCFB00287DD12FE000BFFFF7A8FBA8
:100EB000A0EB0800022876D820688007F6D52068C5
:100EC00040F008002060206801E0BBE00CE0296AE7
:100ED00020F0F000084320606068E96920F47F405A
:100EE00040EA0120606010E020F001002060FFF780
:100EF00087FB804606E000BFFFF782FBA0EB0800FF
:100F00000228D8D820688007F6D42878C00740D0B7
:100F1000082E18D00C2E01D1032F14D06868B0F51C
:100F2000803F17D0B0F5A02F206817D020F4803074
:100F30002060206820F4802020606868E0B1FFF71E
:100F40005FFB804614E02068800322D56868002893
:100F500078D01EE0206840F48030EDE740F4802037
:100F60002060F7E7FFF74CFBA0EB08006428A2D84D
:100F700020688003F6D50CE0FFF742FB804605E0D1
:100F8000FFF73EFBA0EB0800642894D8206880039C
:100F9000F6D4287880073BD5042E11D00C2E04D12E
:100FA000022F01E036E1A1E00AD0E86800282068BD
:100FB0001ED040F480702060FFF722FB07460CE053
:100FC000206840050CD5E8680028C1D008E000BFC3
:100FD000FFF716FBC01B022893D820684005F7D501
:100FE0006068297C20F0F85040EA016060600FE002
:100FF00020F480702060FFF703FB074605E000BF88
:10100000FFF7FEFAC01B022870D820684005F7D40D
:101010002878000729D568690028D4F8940012D0F0
:1010200040F00100C4F89400FFF7EAFA074604E034
:10103000FFF7E6FAC01B022858D8D4F894008007BE
:10104000F6D512E0EDE020F00100C4F89400FFF7BF
:10105000D7FA074605E000BFFFF7D2FAC01B022807
:1010600044D8D4F894008007F6D42878400768D58F
:10107000A06D0027C00008D4A06D40F08050A0658E
:10108000A06D012700F08050009052480168C9050A
:1010900012D40168814641F480710160FFF7B0FA13
:1010A000804605E0FFF7ACFAA0EB080002281DD847
:1010B000D9F80000C005F5D5A868012817D0052883
:1010C000D4F8900018D020F00100C4F89000D4F8B3
:1010D000900020F0040000BFC4F89000A86841F21E
:1010E0008839D0B1FFF78CFA804611E06BE0D4F874
:1010F000900040F00100EFE740F00400C4F89000D9
:10110000F5E700BFFFF77CFAA0EB080149455AD884
:10111000D4F890008007F5D50EE0FFF771FA80460D
:1011200006E000BFFFF76CFAA0EB0801494570D854
:10113000D4F890008007F5D41FB1A06D20F0805046
:10114000A065A86AF0B30C2E6BD00228206820F0AE
:101150008070206004D0206810F0205F47D04AE003
:10116000FFF74EFA064604E0FFF74AFA801B022812
:101170004FD820688001F7D4286BE96A0001103845
:101180000843696BAA6B0902120941EA424108430C
:10119000A98F114A490802EB4151084395F84010C4
:1011A0004908120102EB41610843E060206840F009
:1011B00080702060E06840F08070E060FFF720FA07
:1011C000054610E02BE024E000100240E43B00085C
:1011D00040000020007000400000E0FFFFF710FA20
:1011E000401B022815D820688001F7D517E0E06879
:1011F00020F00300E060E0680B490840E060FFF782
:10120000FFF9054608E000BFFFF7FAF9401B022886
:1012100002D90320BDE8F88320688001F4D40020BF
:10122000F8E70120F6E70000FFFFEEFE70B50400CE
:1012300003D06079002510B105E0012070BD257153
:10124000204600F00DF8022060712068016841F02E
:101250000401016001206071A560002070BD0000E4
:1012600008B500680649884208D10648C16C41F4B7
:101270008021C164C06C00F48020009008BD000093
:10128000000806500010024070477047704710B5C4
:10129000040003D094F83D0010B107E0012010BD18
:1012A000002084F83C00204600F00CF8022084F86E
:1012B0003D00211D206800F01FFD012084F83D0045
:1012C000002010BD704700000168CA6842F00102AA
:1012D000CA600068826807490A40062A08D0826806
:1012E0000A40B2F5803F03D0016841F0010101607E
:1012F0000020704707000100704770B50446006881
:1013000001694FF00005C943890715D4C168C94375
:10131000890711D4E91E01610120207720688069C6
:101320008007204602D0FFF7E7FF04E000F0A7F8AF
:10133000204600F0A5F8257720680169C9434907D0
:1013400017D4C168C943490713D46FF00401016180
:10135000022020772068806910F4407F204602D068
:10136000FFF7CAFF04E000F08AF8204600F088F892
:10137000257720680169C943090716D4C168C943A4
:10138000090712D46FF0080101610420207720685A
:10139000C0698007204602D0FFF7AEFF04E000F0EE
:1013A0006EF8204600F06CF8257720680169C94383
:1013B000C90617D4C168C943C90613D46FF0100118
:1013C0000161082020772068C06910F4407F204622
:1013D00002D0FFF791FF04E000F051F8204600F042
:1013E0004FF8257720680169C943C90708D1C1684A
:1013F000C943C90704D1891E0161204600F041F8A4
:1014000020680169C943090609D4C168C9430906AE
:1014100005D46FF0800101612046FFF736FF206898
:101420000169C943C90509D4C168C943090605D47E
:101430006FF4807101612046FFF726FF2068016983
:10144000C943490609D4C168C943490605D46FF0A8
:1014500040010161204600F01BF820680169C94382
:1014600089060BD4C168C943890607D46FF02001EF
:1014700001612046BDE87040FFF708BF70BD7047AE
:1014800070470068B0F1804F01D1FFF7BFB87047D7
:1014900070477047704700002DE9F041026804462C
:1014A000D0691168936810F00F0F4FF000055BD002
:1014B00003F0010601F49077374369D0C70707D0DE
:1014C000CF0505D501271762626F42F001026267FE
:1014D000820708D5DA0706D0276802223A62626FCF
:1014E00042F004026267420708D5DA0706D0236893
:1014F00004221A62626F42F00202626702070AD592
:1015000001F02002324306D0236808221A62626F7B
:1015100042F008026267626F002A32D0800605D569
:10152000880603D5216E09B120468847606F000701
:1015300003D420688068400625D5204600F0D8FCFA
:1015400020688168490619D5816821F040018160D1
:10155000E06E98B120498163E06EFEF743FF0028FA
:101560000FD0E06E816B06E0860611D58E060FD592
:10157000216E1EE02046BDE8F04108472046FFF7F7
:1015800089FFBDE8F0812046FFF784FF6567F8E733
:10159000C60209D55B0207D54FF4801010622046C1
:1015A000BDE8F041FFF775BF030605D50B0603D56F
:1015B000616E0029DED1E4E74006E2D54806E0D5B9
:1015C0001168204621F040011160202184F871103B
:1015D000656600F031F9D4E7DD1E000810B504009F
:1015E00003D094F8710010B107E0012010BD002075
:1015F00084F87000204600F027F8242084F8710059
:101600002068016821F001010160204600F0DCFC47
:101610000128EBD0606A10B1204600F0CDFB2068B5
:10162000416821F4904141602068816821F02A01DD
:1016300081602068016841F0010101602046BDE839
:10164000104000F01DBC000010B586B00446142107
:101650006846FEF772FE16492068884226D1154872
:10166000816D41F400318165816D01F40031059196
:10167000C16C41F00801C164C06C694600F008000B
:10168000059060200090022001900020029003202D
:101690000390072004900848FEF7CCFE00220521A5
:1016A0002620FFF729F82620FFF71AF806B010BD0C
:1016B0000044004000100240000C004830B590F893
:1016C0007230202B4AD1B1B1AAB190F87030012B01
:1016D00044D0012380F870304165A0F85820A0F86C
:1016E0005A20002202661D038168FF23A94207D108
:1016F000016911B10CE0012030BD40F2FF110DE095
:101700007F2419B1B1F1805F05D009E0016901BB07
:10171000A0F85C3004E00169D9B13F21A0F85C1069
:101720004267222180F8721001688B6843F0010340
:101730008B608168A94201D1016969B108490166DC
:1017400080F870200068016841F490710160002009
:1017500030BDA0F85C40E3E70249F0E7022030BD6D
:101760006D1F0008111F000838B50025009500689E
:101770001449884225D1144C2046617800690D290E
:1017800002D0616829B10AE0694601F0B7FE6560E0
:101790000FE06A46002101F0FFFE012060600B4966
:1017A000207862780A54401CC0B220700D5414286E
:1017B00000D32570044905480122491C7838FFF7F9
:1017C0007DFF38BD00440040000000202C010020B7
:1017D00090F87130202B29D1B9B1B2B190F87030A6
:1017E000012B23D0012380F87030C164A0F8502071
:1017F000A0F85220002141664167212280F8712023
:101800008268B2F5805F02D003E001207047026970
:1018100052B1074A426680F870100068016841F0D2
:101820008001016000207047024AF3E70220704700
:10183000AB220008692200087047FEE71D48C16C12
:1018400041F01201C1641C486FF030010160016871
:1018500041F01001016018480830016821F03001A2
:101860000160016841F030010160001F016821F052
:101870000401016010480C30016821F03001016062
:101880000E486FF440310160016841F4803101601D
:10189000816821F440318160816841F44031816088
:1018A000416821F480714160C16821F44031C16018
:1018B000704700000010024000040048001000487B
:1018C0000948084901604FF4E1314160002181601D
:1018D0000C22C160C0E904128161C16101624162F0
:1018E000FFF77CBE00440040B4000020FEE77047D4
:1018F0000907090E002806DA00F00F0000F1E020C9
:1019000080F8141D704700F1E02080F80014704743
:101910002DE9F041444C05468846E06800268107E1
:1019200028680DD0E16801F00301814216D1A8B109
:10193000E0686968C0F30210401C88420ED120E0C4
:10194000012804D0022805D0032807D108E0216827
:10195000890701E021684905002907DB01265FE0CE
:101960002168890302D421684903F5E7E1686A68C0
:101970006FF00F0321F0730103EB021211430143D7
:10198000E160206820F080602060FEF739FE0746A5
:1019900005E000BFFEF734FEC01B022837D82068E0
:1019A0000001F7D4B8F1000F18D0B8F1010F1ED024
:1019B000287D4FF07E41400801EB4060A96840EA75
:1019C00001202169194A114008432061206840F034
:1019D00080602060FEF714FE07461AE0A868E968F8
:1019E0000002090940EA41402169114AEBE7288ACF
:1019F0001049400801EB4050A96840EA01202169E4
:101A00000D4AE0E7FEF7FCFDC01B022801D90326C2
:101A100006E020680001F5D52069A9690843206126
:101A20003046BDE8F081000000100240FF80FFF961
:101A3000FF80FDFF0000E0FFFF809FFF2DE9F041E8
:101A40003D4C06468846E0680025810730680DD089
:101A5000E16801F00301814216D1A8B1E068716824
:101A6000C0F30210401C88420ED120E0012804D0AF
:101A7000022805D0032807D108E02168890701E082
:101A800021684905002907DB012551E02168890308
:101A900002D421684903F5E7E16872686FF00F032B
:101AA00021F0730103EB021211430143E16020684E
:101AB00020F080502060FEF7A3FD074605E000BF40
:101AC000FEF79EFDC01B022829D820688000F7D4AD
:101AD000B8F1000F15D0307C4FF07E41400801EB8B
:101AE0004060B16840EA01206169144A114008432E
:101AF0006061206840F080502060FEF781FD07465D
:101B00000FE0B068F1680002090940EA41406169EC
:101B10000B4AEBE7FEF774FDC01B022801D9032531
:101B200006E020688000F5D560697169084360614E
:101B30002846BDE8F081000000100240FF80FFF958
:101B4000FF80FDFFF8B51C4D06460024A86DC000BF
:101B500002D5FEF737FE0DE0A86D40F08050A86575
:101B6000A86D00F080500090FEF72CFEA96D21F0CA
:101B70008051A965B0F5007F04D0802E07D94FF0C1
:101B800003040AE0802E08D9A02E01D804E001D178
:101B9000022402E0702E00D101240848016821F0DF
:101BA000070121430160006800F00700A04201D056
:101BB0000120F8BD0020F8BD0010024000200240C6
:101BC0000248016821F004010160704714040048D4
:101BD0000248016841F004010160704714040048A4
:101BE000012000F057FCFBE710B5502080F311886E
:101BF000BFF34F8FBFF36F8F01F054FE18B104494C
:101C00004FF080500860002080F3118810BD000064
:101C100004ED00E02DE9F041B8B0442122A8FEF720
:101C20008CFB142133A8FEF788FB88216846FEF759
:101C300084FB0224E00125901020229426900126A6
:101C40002C94CDE92D4614204FF00708CDE92F083C
:101C50000427CDE9314722A8FFF7B6F80F20002569
:101C600033900320CDE934053695042133A8379508
:101C7000FEF788FF0B480F95009040061D900597D2
:101C8000CDE901460C20CDE90308E004CDE906408A
:101C90006846FEF79FFD2002FEF760FD38B0BDE804
:101CA000F0810000020004000D48016841F4700159
:101CB00001600C48016841F0010101600021816070
:101CC0000268094B1A4002608214C260026822F462
:101CD0008022026081610249C00380390860704738
:101CE00088ED00E000100240FFFFF6EA0148FFF730
:101CF00004BB0000600100202DE9F0470268264B7C
:101D0000264D274E274F284C4FF0804A984209D045
:101D1000504507D0A84205D0B04203D0B84201D008
:101D2000A04204D122F0700C4A6842EA0C02DFF8AB
:101D30007CC0DFF87C80DFF87C9098420FD0504563
:101D40000DD0A8420BD0B04209D0B84207D0A04273
:101D500005D0604503D0404501D0484503D122F469
:101D60004075CA682A434D6922F080022A43026006
:101D70008A68C2620A688262984207D0A04205D08F
:101D8000604503D0404501D0484501D10969016350
:101D900001214161BDE8F087002C014000040040B2
:101DA00000080040000C00400034014000400140A9
:101DB000004401400048014090F82410C90706D0B3
:101DC00001684A68836A22F400321A434A6090F834
:101DD0002410890706D501684A68C36A22F4803254
:101DE0001A434A6090F82410490706D501684A68EA
:101DF000036B22F480221A434A6090F824100907EA
:101E000006D501684A68436B22F400421A434A60CF
:101E100090F82410C90606D501688A68836B22F4FD
:101E200080521A438A6090F82410890606D501680A
:101E30008A68C36B22F400521A438A6090F8241017
:101E4000490611D501684A68036C22F480121A43CE
:101E50004A60016CB1F5801F06D101684A68436C85
:101E600022F4C0021A434A6090F82410090606D5ED
:101E700001684A68806C22F4002202434A6070477D
:101E8000F8B5002604464667FEF7BAFB054620680B
:101E900000686FF07E47000708D52B4600224FF4FC
:101EA00000112046009700F01EFA60B92068006813
:101EB00040070AD52B4600224FF4800120460097A8
:101EC00000F011FA08B10320F8BD202084F8710059
:101ED00084F8720084F870600020F8BD10B5806A44
:101EE0000021A0F85A10A0F85210FFF7D3FA10BD45
:101EF00001680A6822F490720A6001688A6822F018
:101F000001028A60202180F872100021016670476A
:101F100010B5B0F85C2090F872300168222B04D024
:101F2000088B40F00800088310BD898C436D114078
:101F30001980416D891C4165B0F85A10491E090489
:101F4000090CA0F85A10EFD101680A6822F49072C7
:101F50000A6001688A6822F001028A60202180F804
:101F6000721000210166FFF7FFFB10BD10B5B0F83D
:101F70005C2090F872300168222B04D0088B40F06E
:101F80000800088310BD898C1140426D531C4365C5
:101F90001170B0F85A10491E0904090CA0F85A1023
:101FA000F0D101680A6822F490720A6001688A68B8
:101FB00022F001028A60202180F87210002101665F
:101FC000FFF7D2FB10BD00002DE9F0410446016887
:101FD00080682369E6691843636910250027334345
:101FE0001843954A0B68954E334003430B602068B5
:101FF0004168E36821F44051194341602168A069B8
:10200000914201D0236A18438B6823F43063034361
:102010008B608B4B21688B4899420DD1D0F888009A
:1020200010F0030006D001285AD0022856D0032809
:1020300059D157E0012556E0834B99420BD1D0F896
:10204000880010F00C0047D0042849D0082845D05B
:102050000C2848D146E07D4B99420BD1D0F888003E
:1020600010F0300038D010283AD0202836D0302850
:1020700039D137E0764B99420BD1D0F8880010F077
:10208000C00029D040282BD0802827D0C0282AD1B2
:1020900028E0704B99420ED1D0F8880010F44070BF
:1020A0001AD0B0F5807F1BD0B0F5007F16D0B0F508
:1020B000407F18D116E0914215D1D0F8880010F475
:1020C000406009D0B0F5806F0AD0B0F5006F05D040
:1020D000B0F5406F07D105E0002504E0022502E0DD
:1020E000042500E008255C4B00264FF40040914297
:1020F0003DD135B1022D07D0042D07D0082D10D1C8
:1021000007E0FEF7EBFD03E0184602E0FEF70AFEEB
:10211000A8B3626802EB4201814202D8B0EB023FF1
:1021200001D9012775E0DFF834815DB1022D0CD0B3
:10213000042D13D0082DF4D150082905401846F17C
:10214000000105E0FEF7CAFD0AE050084449F5E742
:102150000023FEF7A5F8A0F5407156E0FEF7E2FD7A
:102160006268010E0302500818187141F0E7E16936
:102170004FF6EF7881422FD1092DD2D200E048E00E
:10218000DFE805F006092005230505052600C8E758
:10219000FEF7A4FD01E0FEF7B3FD4100D4F8040012
:1021A00001EB5001B1FBF0F080B2A0F1100141450C
:1021B000B7D84FF6F0710140C0F3420001432068E8
:1021C000C16026E027496068EAE7FEF7ABFDE4E777
:1021D0004FF480316068E3E7092DA2D2DFE805F013
:1021E00006091E052205050525009AE7FEF776FD7E
:1021F00001E0FEF785FD0146606801EB500100BF7C
:10220000B1FBF0F080B2A0F11001414589D82168FE
:10221000C860266638466666BDE8F081606803EBF4
:102220005001EDE7FEF77EFDE5E7616800EB510048
:10223000B0FBF1F0E6E7000000800040F369FFEF3B
:1022400000380140001002400044004000480040B7
:10225000004C0040005000400024F400FFFC0F0040
:10226000000024F40048E80190F87110212910D1F1
:10227000B0F8521071B1C16C02680988C1F308014D
:102280001185C16C891CC164B0F85210491EA0F8B8
:102290005210704701680A6822F080020A600068E4
:1022A000016841F040010160704790F871102129E8
:1022B0000DD1B0F8521059B1C16C4A1CC264026809
:1022C00009781185B0F85210491EA0F852107047D5
:1022D00001680A6822F080020A600068016841F023
:1022E0004001016070472DE9F041984617460E46BF
:1022F0000446069D1DE0681C1BD02DB1FEF780F939
:10230000A0EB0800A84214D92068016821F4D0711C
:1023100001602068816821F001018160202084F83B
:10232000710084F87200002084F870000320BDE87A
:10233000F0812068C06936EA000004D00020B8426D
:10234000D9D00020F3E70120F9E700000148FFF7AA
:10235000A3B80000B4000020FEE702E008C8121F86
:1023600008C1002AFAD170477047002001E001C17E
:10237000121F002AFBD170470F4910B549698842E6
:1023800018D10E48007830B1012807D002280BD0B0
:10239000FEF720F80AE0FEF71DF801E0FEF712F85C
:1023A000BDE81040FFF70CBCFEF70CF8BDE810408C
:1023B000FFF70EBC10BD000000000020400100200F
:1023C00086B0FEF72BF9FFF725FC00F0C5FB12489D
:1023D000C16C41F00801C164C06C00F008000590B8
:1023E000FFF76EFA0E490D4808600846FEF71EFF1B
:1023F000FFF724FA00F00EFC14220A496846FDF7A4
:1024000083FF0021684600F051F80749886000F01A
:102410005DFB00F046F8FEE70010024000080650A1
:10242000A4000020D03B000800000020014600204E
:10243000842900D0C81C704770B5144B062910D2EF
:10244000DFE801F0030507090B0D14220EE011224D
:102450000CE00E220AE00B2208E0082206E004222B
:1024600004E01F2902D90220187070BD084C4FF0FB
:102470008045C9B26669B04201D16A6303E0A469CC
:10248000A042F2D1AA63D97270BD000040010020C1
:102490000000002010B500B9012000F0E1FC002090
:1024A00010BD10B500F07CFD002010BD3EB5044607
:1024B0000D46B0F90800FFF7B9FF02A9CDE9000108
:1024C000208A2B4682B2D4E9001001F0A9F9012834
:1024D00001D000203EBD02983EBD000070B52349EA
:1024E000062601250422CC7A0B7862283CD00EDC2B
:1024F0004E2837D006DC422836D0432820D04C283E
:102500001BD129E0502811D0522816D10BE0702899
:102510000CD006DC632813D06C281DD06E280CD19B
:1025200020E0722809D1012B1CD111E0062B05D027
:10253000022B17D0002048700D7070BD4E70FBE765
:10254000062B03D0022B0DD04D7070BD4E7070BDA8
:1025500044B10220487070BD012B03D1052C01D27B
:102560000320F7E74A7070BD0520F3E74001002023
:102570002DE9F041184C0F46054666692068001D9C
:1025800000F06EFB38B9206890F82C1001208840CC
:10259000A1698143A161681C07D137B12168BDE8F9
:1025A000F0410E48091D00F095BB20683544B54246
:1025B0004560216805D2A068BDE8F041091D00F022
:1025C00071BB6068091D00F06DFB206B854200D275
:1025D0002563BDE8F0810000440000207C0200205B
:1025E0002DE9F041054600F081FB2E4C2069401C8E
:1025F000206120682C4F10B1E06940B32DE02560C8
:102600002069012829D1002606EB860007EB80000F
:1026100000F03AFB761C072EF6D323488C3000F0EE
:1026200033FB2148A03000F02FFB1F48B43000F0EE
:102630002BFB1D48C83000F027FB1B48DC3000F0A6
:1026400023FB19488C3060601430A06005E02068DE
:10265000E96AC06A884200D82560E06A401CE062EE
:10266000E96A0120A26988401043A06101EB810062
:1026700007EB8000291D00F02DFB00F057FBE069FF
:1026800000280CD02068E96AC06A884207D207494E
:102690004FF080500860BFF34F8FBFF36F8FBDE8DE
:1026A000F081000044000020A001002004ED00E0C3
:1026B00030B4026C0B46002A0BD0C1681144C160D3
:1026C0004468A14201D30168C16030BC1846FDF7DF
:1026D0001BBE30BC70472DE9F041856B17460446A0
:1026E0000026026C82B1C7B1E068FDF70DFEE1681B
:1026F000206C091AE1602268914202D26168081ACE
:10270000E060022F16D017E02068A8B9606801F0D9
:102710002DF90646002060600EE0A068FDF7F4FD8C
:10272000216CA0680844A0606168884204D32068D6
:10273000A06001E005B16D1E6D1CA5633046BDE8CB
:10274000F08110B50446006B00F004FB2046BDE8A4
:10275000104000F0FFBA00000F4842F2107142072B
:1027600005D0C01D0C4A20F00700821A891A0B4AB6
:1027700000230144C2E900030839103A21F007019F
:1027800011604B600B600B1AC0E9001393604FF0AF
:1027900000405360D06070479002002090000020FD
:1027A000154E164CA6F1C8074FF08058DFF8509030
:1027B00012E000BF00F09AFAF068C568281D00F02A
:1027C0004FFA2069401E2061E068401EE06000F082
:1027D000ADFA2846FFF7B5FFE0680028EAD138686F
:1027E000012805D9C9F80080BFF34F8FBFF36F8F61
:1027F00000F049FAF0E700006802002044000020E1
:1028000004ED00E02DE9F0479A46DDE909848146B0
:102810006FF00303206B03EB82021044089D20F04D
:102820000706700707D0502080F31188BFF34F8F41
:10283000BFF36F8FFEE723180A5C83F834200A5C2D
:1028400012B1401C1028F6D3002784F84370072DDE
:1028500000D30625E562C4E91157201D00F01FFAD8
:1028600004F1180000F01BFA2461C5F1070064624E
:10287000A061E76484F8507052464946304600F043
:102880000FF92060B8F1000F01D0C8F80040BDE892
:10289000F087000030B5114900E011460A68824215
:1028A000FBD34B685C18844203D1406818444860ED
:1028B000084643681C18944209D1084C103C24680F
:1028C000A24209D052681A4442600A681268026043
:1028D000814200D0086030BD0460F9E7900000201C
:1028E00010B5044600F002FAA06B28B15FF00004B6
:1028F00000F01CFA204610BD0124F9E706484168A3
:10290000096829B14168C968C968496801637047A5
:102910004FF0FF31FAE7000044000020084840680B
:10292000401C4FF0500080F3118804D0BFF34F8F4C
:10293000BFF36F8FFEE7BFF34F8FBFF36F8FFEE7DD
:10294000980000202DE9F041044600F0CFF994F9F9
:10295000455004F1240609E0606A48B1304601F0B0
:102960009BF808B100F0AAFA6D1E6DB2002DF3DCE1
:102970004FF0FF3684F8456000F0D8F900F0B6F962
:1029800094F9445004F1100709E0206948B1384631
:1029900001F082F808B100F091FA6D1E6DB2002DC1
:1029A000F3DC84F84460BDE8F04100F0BFB90000FA
:1029B0002DE9F0410546002700F026FB314E306836
:1029C00008B9FFF7C9FEF06805424BD1C5B3083519
:1029D00068070ED005F00700C0F10800054468073D
:1029E00007D0502080F31188BFF34F8FBFF36F8F54
:1029F000FEE72DB37068854234D822481030014676
:102A00000C6801E020460C466168A94202D22168A8
:102A10000029F7D131688C4224D007682168016011
:102A200060680837411B10290FD96019420708D088
:102A3000502080F31188BFF34F8FBFF36F8FFEE7F5
:102A400010E041606560FFF725FF61687068401A1B
:102A50007060B268904200D2B060F068014300201C
:102A6000C4E9000101F052F8780707D0502080F344
:102A70001188BFF34F8FBFF36F8FFEE73846BDE875
:102A8000F0810000800000200449086818B108683F
:102A9000826C521C82640868704700004400002069
:102AA00010B5031F4FF080741C601B1F21F0010143
:102AB0001960191F044B0B6014390A60091F6FF06D
:102AC000020244380A6010BD1D2900087CB50120AF
:102AD00000F0EAFB164CE060012000F0E5FB20610D
:102AE00060690025CDE900504FF48076114B3246E5
:102AF00011A1134800F094FEA0690E4BCDE90050DF
:102B0000103332460FA10E4800F08AFE00950023D4
:102B100032460EA10F48019500F082FE611C02B002
:102B20000448BDE8704001228C38FEF7C7BD0000A4
:102B30000000002040010020536572766F310000D4
:102B4000BD300008536572766F320000436F6E73BC
:102B50006F6C6500753000082D49C86C40F00100AD
:102B6000C8644FF09040026800220260026842F0A0
:102B70000A020260026842F028020260026A42F021
:102B800001020262026A42F010020262886D40F0A5
:102B9000010088654FF4FA5108068162816940F2AC
:102BA000033291438161816941F00801816181694A
:102BB00041F400618161816941F4DC618161816975
:102BC00041F4DC218161816921F480618161816945
:102BD00021F430618161016841F080010160016A86
:102BE00041F001010162016A41F010010162C82156
:102BF000C162322141638163416941F00101416158
:102C0000016921F0010101610121016070470000AB
:102C1000001002401048816D41F0020181650F49AA
:102C200041F63F7008600D482838016841F0800186
:102C300001600A4A41F28831121D116007491439B6
:102C40000A6842F001020A60091F0A6822F00102C4
:102C50000A60012101607047001002402804004012
:102C6000D0E9013201699A60D0E901235A604A68CB
:102C7000824201D182684A60002202610868401ED7
:102C8000086008687047704700F108014FF0FF3294
:102C9000C0E90112C160016100210160704700219B
:102CA0000161704730B50B685A1C02D000F1080270
:102CB00002E0026904E02246546825689D42FAD980
:102CC00053684B6099608A60516008610168491CD3
:102CD000016030BD42684A6093688B6093685960B8
:102CE000916008610168491C01607047502080F3C1
:102CF0001188BFF34F8FBFF36F8F0A494868401C9C
:102D0000486001280CD10848006810F0FF0F07D078
:102D1000502080F31188BFF34F8FBFF36F8FFEE712
:102D2000704700009800002004ED00E00849486862
:102D300028B1401E486001D180F3118870475020AF
:102D400080F31188BFF34F8FBFF36F8FFEE7000052
:102D50009800002070B5002827D0144DA0F1080479
:102D60006168E868014207D1502080F31188BFF301
:102D70004F8FBFF36F8FFEE722683AB1502080F388
:102D80001188BFF34F8FBFF36F8FFEE78143616000
:102D900000F03AF960686968084468602046FFF707
:102DA00079FDBDE8704000F0B1BE70BD800000202C
:102DB0004FF0E02000210161816105494FF47A72F2
:102DC0000968B1FBF2F1491E4161072101617047B9
:102DD0004000002010B5FDF73DFA114910280ED330
:102DE00000F1E02090F8F0030A78904207D25020DA
:102DF00080F31188BFF34F8FBFF36F8FFEE7094851
:102E00000068896800F4E060884207D9502080F3A8
:102E10001188BFF34F8FBFF36F8FFEE710BD000027
:102E2000980000200CED00E070B50B4C05464FF00B
:102E3000FF31E06800F0FEFB2846FDF789FA82B218
:102E400029460648FEF7C4FCE068BDE87040002350
:102E50001A46194600F0A2BA00000020B400002073
:102E600010B5020014D00F48806B38B1502080F3A9
:102E70001188BFF34F8FBFF36F8FFEE700F0C4F8E8
:102E800000211046FFF774FB00F040FE002807D138
:102E900005494FF080500860BFF34F8FBFF36F8F2D
:102EA00010BD00004400002004ED00E002498A6AE1
:102EB00002604969416070474400002001490120D7
:102EC000486270474400002010B50C4650B10949D3
:102ED00009681831FFF7E6FE2046BDE810400121E1
:102EE000FFF746BB502080F31188BFF34F8FBFF32D
:102EF0006F8FFEE74400002070B504004BD0A26C39
:102F0000A2B1606C884200D30146E06A884242D098
:102F1000012A40D1204D2A6894420FD1502080F3DD
:102F20001188BFF34F8FBFF36F8FFEE7502080F300
:102F30001188BFF34F8FBFF36F8FFEE7E162A26985
:102F4000002A02DBC1F10701A161144E00EB8000F1
:102F5000616906EB800081421DD1201DFFF780FED4
:102F6000012150B9E06A00EB800256F8222022B914
:102F7000AA6901FA00F08243AA61E06AAA69814065
:102F80001143A96100EB800006EB8000211DBDE824
:102F90007040FFF79FBE70BD44000020A0010020DC
:102FA0001CB515480024CDE900402346802213A11A
:102FB000144800F035FC012809D0401C1AD15020DB
:102FC00080F31188BFF34F8FBFF36F8FFEE7502060
:102FD00080F31188BFF34F8FBFF36F8F06484FF018
:102FE000FF31343801630121C1614461BDE81C40F7
:102FF00000F0E0B81CBD00007800002049444C45BA
:1030000000000000A12700080248816B491C816371
:1030100070470000440000201448816B11B1012169
:1030200041627047002141628169B1FA81F1C1F1C9
:103030001F0101EB81020E4951F822306BB101EB07
:10304000820101F108034A6852684A609A4201D13C
:1030500052684A60D16801607047502080F311883F
:10306000BFF34F8FBFF36F8FFEE7000044000020D7
:10307000A00100200F4C104D002620780028FCD025
:103080000021286900F0D6FA0128F6D12078696974
:10309000FFF724FA6078A969FFF720FA0548FFF7DF
:1030A000C3FE002326701A461946286900F076F9F7
:1030B000E3E700002C01002000000020DFF8EC9086
:1030C0004FF47A78A9F11C0707F1300A0026384D31
:1030D0004FF0020B00F0D2FBFFF74EF969684FF496
:1030E0007A704143B1FBF8F02C46FFF7B9FE6660F9
:1030F00020780428FDD00128FBD000F0BFFB7969BF
:10310000884207D199F8011001F0E000207201F027
:103110001F000BE000F0B2FBB969884207D19AF8B2
:10312000010000F0E001217200F01F006072207ABF
:1031300040280FD003DC80B3202834D104E080285D
:103140000BD0A0282FD123E000F098FB617AFFF785
:1031500073F91BE0607A606018E0207B10B10320F7
:103160002070B7E7607A607300F088FB7969884265
:1031700002D199F8010006E000F080FBB9698842AD
:1031800011D19AF80100A073012020732670A1E7E5
:10319000607B18B1401E6073F8E702E0A6732673E7
:1031A000F4E70420DCE784F800B093E71C0000207B
:1031B000400100201CB537480168374A914207D1C9
:1031C000502080F31188BFF34F8FBFF36F8FFEE75E
:1031D00000683149491E884207D1502080F3118888
:1031E000BFF34F8FBFF36F8FFEE72C490878019034
:1031F000FF20087008788DF800009DF800009DF809
:10320000002000F0F000904207D0502080F3118899
:10321000BFF34F8FBFF36F8FFEE79DF80000204B89
:1032200000F0500018700720986005E09DF800201D
:1032300052008DF80020401E9DF800201206F5D4A3
:103240009860032807D0502080F31188BFF34F8F78
:10325000BFF36F8FFEE74FF44070986001980870DD
:103260000C482030016841F470010160016841F0B0
:1032700070410160FFF79CFD00205860FCF7B2FF31
:103280000848016841F040410160FCF797FF0020C9
:103290001CBD000000ED00E071C20F4100E400E041
:1032A0009800002034EF00E010B502460021012014
:1032B00000F00CF8041E07D00021416001600B46AD
:1032C0000A46C16000F06AF8204610BD70B50E468F
:1032D000050013D0D6B105FB06F04830FFF768FBB8
:1032E000040009D004F1480120468EB10160C0E914
:1032F0000F56012100F00EF8204670BD502080F3DB
:103300001188BFF34F8FBFF36F8FFEE70020E4E714
:103310000060ECE770B50D46040025D0FFF7E6FC31
:10332000D4E90F20216802FB001161600021A16334
:103330002168A1600A46D4E90F01401E00FB01216B
:10334000E16021464FF0FF3001F8440F487004F16E
:1033500010008DB1FFF798FC04F12400FFF794FCF6
:10336000FFF7E4FC012070BD502080F31188BFF30B
:103370004F8FBFF36F8FFEE721690029F0D000F077
:103380008BFB0028ECD004494FF080500860BFF35D
:103390004F8FBFF36F8FE3E704ED00E02DE9FF47A8
:1033A00082B01D468A464FF00008040003D0BAF1EF
:1033B000000F08D011E0502080F31188BFF34F8F29
:1033C000BFF36F8FFEE7206C38B1502080F3118877
:1033D000BFF34F8FBFF36F8FFEE7022D0AD1E06B73
:1033E000012807D0502080F31188BFF34F8FBFF31F
:1033F0006F8FFEE700F048FA3F4F4FF000094FF0A3
:10340000805648B9049838B1502080F31188BFF332
:103410004F8FBFF36F8FFEE7FFF768FCA06BE16B88
:10342000884207D3022D05D00498D0B1B8F1000F1F
:103430001AD01EE02A4651462046FFF74CF9616A31
:1034400019B104F1240000F027FB20B13E60BFF366
:103450004F8FBFF36F8FFFF769FC012006B0BDE807
:10346000F087FFF763FC22E06846FFF71FFD4FF08F
:103470000108FFF75BFCFFF7C7FDFFF737FC94F986
:103480004400401C01D184F8449094F94500401C4C
:1034900001D184F84590FFF749FC04A9684600F083
:1034A00085F930B12046FFF74DFA00F02FFB0020E0
:1034B000D4E7FFF71BFCA06BE16B884213D1FFF749
:1034C00035FC04F110000499FFF7FEFC2046FFF7DD
:1034D00039FA00F01BFB00289ED13E60BFF34F8FEE
:1034E000BFF36F8F98E7FFF721FC2046FFF72AFA1A
:1034F00000F00CFB90E7000004ED00E070B50E4614
:10350000040009D0206C78B1502080F31188BFF3FB
:103510004F8FBFF36F8FFEE7502080F31188BFF30A
:103520004F8FBFF36F8FFEE7206848B9606838B1EE
:10353000502080F31188BFF34F8FBFF36F8FFEE7EA
:10354000FFF748FC5020EFF3118580F31188BFF39B
:103550004F8FBFF36F8FA16BE06B884218D994F93E
:103560004500491CA163411C04D0401C84F845005F
:1035700001200EE0606A0028FAD004F1240000F077
:103580008BFA0028F4D0002EF2D001203060EFE753
:10359000002085F3118870BD2DE9F04790468946DB
:1035A000040003D0B9F1000F08D011E0502080F3DF
:1035B0001188BFF34F8FBFF36F8FFEE7206C38B1D8
:1035C000502080F31188BFF34F8FBFF36F8FFEE75A
:1035D000FFF700FC5020EFF3118680F31188BFF352
:1035E0004F8FBFF36F8FA76BF7B194F944504946E3
:1035F0002046FFF75DF87F1EA763681C04D06D1C92
:1036000084F84450012010E020690028FAD004F129
:10361000100000F041FA0028F4D0B8F1000FF1D00A
:103620000121C8F80010EDE7002086F31188BDE8FD
:10363000F08700002DE9F343002683B004003546EF
:1036400009D0206C78B1502080F31188BFF34F8FE0
:10365000BFF36F8FFEE7502080F31188BFF34F8FC9
:10366000BFF36F8FFEE700F00FF9DFF83C814FF0FA
:1036700000094FF0805748B9049838B1502080F3C2
:103680001188BFF34F8FBFF36F8FFEE7FFF72EFB5D
:10369000A06BC8B1401EA063206810B9FFF7F4F911
:1036A0006060206950B104F1100000F0F5F928B114
:1036B000C8F80070BFF34F8FBFF36F8FFFF736FB73
:1036C000012005B0BDE8F083049808B166B10FE0B1
:1036D0003DB1502080F31188BFF34F8FBFF36F8F40
:1036E000FEE7FFF723FB5DE06846FFF7DFFB0126FF
:1036F000FFF71CFBFFF788FCFFF7F8FA94F944008A
:10370000401C01D184F8449094F94500401C01D13B
:1037100084F84590FFF70AFB04A9684600F046F8D4
:103720000028204612D0FFF70DF900F0EFF92046EF
:10373000FFF7D6F80028A9D09DB3FFF7D7FA606A43
:1037400050B3206B0068C0F1070126E0FFF7C8F80E
:10375000E0B1206838B9FFF7C9FA606800F052F9A3
:103760000546FFF7E3FA04F124000499FFF7ACFBE8
:103770002046FFF7E7F800F0C9F9002886D1C8F81D
:103780000070BFF34F8FBFF36F8F7FE72046FFF7C7
:10379000D9F800F0BBF979E700216068FFF7ACFBCE
:1037A0009FE7FFE700208CE704ED00E02DE9F04102
:1037B0000C46050011D0C4B1FFF798FA174B5A69AF
:1037C0006E682068911B471C17D02F689B6A9F4228
:1037D00019D0964217D8012410E0502080F31188A8
:1037E000BFF34F8FBFF36F8FFEE7502080F3118838
:1037F000BFF34F8FBFF36F8FFEE70024FFF796FAFA
:103800002046BDE8F081884205D9401A206028464C
:10381000FFF74CFBF1E700202060DCE744000020CC
:103820002DE9FF5F8346DDE90E87994616468A46F5
:103830009000FFF7BDF805001AD05420FFF7B8F844
:10384000040012D025630021CDE90241CDE90087B3
:103850004B46324651465846FEF7D4FF2046FEF707
:10386000BFFE012004B000F006B82846FFF772FA48
:103870004FF0FF30F6E730BCBDE8C09F014800685C
:1038800070470000440000200548C16919B1806BF1
:1038900018B10020704701207047022070470000D7
:1038A000440000202DE9F0412E4C0027A06B40B1D0
:1038B000206A401C2062606A00B101273846BDE8DA
:1038C000F0816669761C666113D16068006838B162
:1038D000502080F31188BFF34F8FBFF36F8FFEE747
:1038E0006068A1686160A060A06A401CA062FFF7E8
:1038F00005F8206BDFF87080864209D360680068A5
:1039000080B16068C068C568686886420DD220636F
:103910002068C06A00EB800158F821000128CAD94C
:103920000127C8E74FF0FF30F1E7281DFFF798F9AE
:10393000A86A18B105F11800FFF792F9E86A0121A9
:10394000A26981401143A16100EB800108EB810075
:10395000291DFFF7BFF9E86A2168C96A8842CDD3FB
:103960000127CBE744000020A001002070B504002F
:103970004FF0000140D0214D2868844207D05020EC
:1039800080F31188BFF34F8FBFF36F8FFEE7A06CFA
:1039900038B1401EA064636CE26A9A422CD040B1F8
:1039A0002AE0502080F31188BFF34F8FBFF36F8F51
:1039B000FEE7201DFFF754F9114A012150B9E06AD2
:1039C00000EB800352F8233023B9AB6901FA00F011
:1039D0008343AB61606CE062C0F10700A061E06A04
:1039E000AB6981401943A96100EB800002EB8000C4
:1039F000211DFFF76FF90121084670BD440000202A
:103A0000A001002070B504004FF0000038D0204D18
:103A1000E16A2A68D26A914233D2A069002804DBA5
:103A20002868C06AC0F10700A0611A4E01EB81014D
:103A3000606906EB810188421ED1201DFFF710F955
:103A4000012150B9E06A00EB800256F8222022B929
:103A5000AA6901FA00F08243AA612868C06AE0629C
:103A6000AA6981401143A96100EB800006EB800048
:103A7000211DFFF72FF902E02868C06AE0620120EB
:103A800070BD616C2A68D26A9142F8D370BD0000A3
:103A900044000020A00100202DE9F041C068C46866
:103AA000ACB104F118000746FFF7DAF8154DA86B22
:103AB0000126A0B139461448FFF70CF9E06A2968DD
:103AC000C96A88421CD901206E62BDE8F08150208D
:103AD00080F31188BFF34F8FBFF36F8FFEE7201D78
:103AE000FFF7BEF8E16AAA6906FA01F01043A8617F
:103AF00001EB81000449B43901EB8000211DDBE7B3
:103B00000020E2E744000020540200202DE9F047A5
:103B10002C4D00242746A86B38B1FFF7E7F8A86BB7
:103B2000401EA863A86B40B146E0502080F3118886
:103B3000BFF34F8FBFF36F8FFEE72969224E01203D
:103B4000D1B3A6F1B40980463068E8B1F068C46822
:103B500004F11800FFF784F8201DFFF781F8E06AF0
:103B6000AA6908FA00F11143A96100EB800109EB91
:103B70008100211DFFF7AEF8E06A2968C96A884212
:103B8000E2D3C5F82480DFE70CB1FEF7B7FE2C6A5C
:103B900044B14646FFF786FE00B16E62641EF9D15D
:103BA00000202862686A38B1084901273807086090
:103BB000BFF34F8FBFF36F8FFFF7B8F83846BDE8FC
:103BC000F0870000440000205402002004ED00E0D3
:103BD0002C3C0008E11B0008000000000000000071
:103BE000800000000000000000000000010203044B
:103BF00006070809A0860100400D0300801A060090
:103C000000350C0040420F0080841E0000093D007A
:103C100000127A000024F40000366E010048E8012A
:103C2000006CDC02000000000102030464656661B0
:103C3000756C745461736B00583C000800000020E0
:103C4000A40000005A230008FC3C0008A400002047
:103C5000FC2C00006A2300080000000000000000A7
:103C60000000000000000000000000000000000054
:103C70000000000020252023802124A020224023B2
:103C80004022235F5F5F2400202122232425242358
:103C9000222100000000000000093D00000000009B
:103CA0000000000000000000000000000000000014
:103CB0000000000000000000000000000000000004
:103CC00000000000000000000000000000000000F4
:103CD00000000000000000000000000000000000E4
:103CE00000000000000000000000000000000000D4
:0C3CF00000000000AAAAAAAA0000000020
:040000050800018965
:00000001FF
