:020000040800F2
:10000000A80600202902000865020008670200080F
:10001000690200086B0200086D0200080000000081
:100020000000000000000000000000006F02000857
:100030007102000800000000730200087502000849
:1000400077020008770200087702000877020008AC
:10005000770200087702000877020008770200089C
:10006000770200087702000877020008770200088C
:10007000770200087702000877020008770200087C
:10008000770200087702000877020008770200086C
:10009000770200087702000877020008770200085C
:1000A000770200087702000877020008770200084C
:1000B000770200087702000877020008770200083C
:1000C000770200087702000877020008770200082C
:1000D000770200087702000877020008770200081C
:1000E000770200087702000877020008770200080C
:1000F00077020008770200087702000877020008FC
:1001000077020008770200087702000877020008EB
:1001100077020008770200087702000877020008DB
:1001200077020008770200087702000877020008CB
:1001300077020008770200087702000877020008BB
:1001400077020008770200087702000877020008AB
:10015000770200087702000877020008770200089B
:10016000770200087702000877020008770200088B
:1001700077020008770200087702000800000000FC
:10018000770200087702000800F002F800F03CF85F
:100190000AA090E8000C82448344AAF10107DA45E2
:1001A00001D100F031F8AFF2090EBAE80F0013F0F8
:1001B000010F18BFFB1A43F0010318479C10000001
:1001C000BC100000103A24BF78C878C1FAD8520792
:1001D00024BF30C830C144BF04680C6070470000C1
:1001E0000023002400250026103A28BF78C1FBD840
:1001F000520728BF30C148BF0B6070471FB501F0E0
:1002000025F81FBD10B510BD00F0B7F81146FFF777
:10021000F5FF00F01BFD00F0D5F803B4FFF7F2FF87
:1002200003BC00F0DDF8000016481749174B99424F
:100230003CBF50F8042B41F8042BF8D314494FF07D
:1002400000028B4238BF43F8042BFAD3DFF8440096
:10025000016841F470010160BFF34F8FBFF36F8FEE
:100260000D480047FEE7FEE7FEE7FEE7FEE7FEE794
:10027000FEE7FEE7FEE7FEE708480949094A0A4BA0
:10028000704700007812000800000020480000209D
:10029000A806002088ED00E089010008A8000020E1
:1002A000A8060020A8020020A80200200FB41CB558
:1002B000074B06AA7B4469460090059800F031F888
:1002C0000020694600F040F81CBC5DF814FB0000FB
:1002D0009100000010B5431C02E010F8011B71B141
:1002E0008107FAD14FF0013202C88C1A8C4314EA0C
:1002F000C211F9D0C01A0A0603D0C01E10BDC01A20
:1003000010BD0A0401D0801E10BD0902FCD0401EA1
:1003100010BD70477047704701694A1C0261087838
:10032000704700B58FB0CDE9013100210591054935
:100330007944CDE903101146684600F00AF80FB081
:1003400000BD0000E5FFFFFF0A6802F8010B0A602C
:1003500070472DE9F04106460024D6E90170F568A2
:100360008046304603E04146B847641C3046A84703
:100370000028F8D12046BDE8F081754600F02CF841
:10038000AE4605006946534620F00700854618B082
:1003900020B5FFF771FFBDE820404FF000064FF099
:1003A00000074FF000084FF0000B21F00701AC46AA
:1003B000ACE8C009ACE8C009ACE8C009ACE8C009C9
:1003C0008D46704710B50446AFF300802046BDE867
:1003D0001040FFF722BF000000487047480000208F
:1003E00001491820ABBEFEE726000200704700005E
:1003F0000348406920F4807001494861704700005B
:10040000001000480348406940F480700149486189
:1004100070470000001000482348C06C40F01200F4
:100420002149C8646FF03000204908600846006820
:1004300040F0100008601D480830006820F03000CF
:100440001A49083108600846006840F0300008602A
:10045000081F006820F00400091F086013480C30D2
:10046000006820F0300011490C3108606FF4403012
:100470000F4908600846006840F48030086008466C
:10048000806820F4403088600846806840F440303E
:1004900088600846406820F4807048600846C0685C
:1004A00020F44030C860704700100240000400484B
:1004B000001000480348006820F00400014908606B
:1004C00070470000140400480348006840F004002E
:1004D0000149086070470000140400485E4909683B
:1004E00021F007015C4A11601146096841F00201E0
:1004F00011605A49096841F48071584A116000BF7F
:100500005649096801F480610029F9D01020534947
:10051000496821F0F851514A51601146496841EA51
:10052000006151601146096821F08071116000BFBF
:100530004A49096801F00071B1F1007FF8D04749DC
:10054000C96821F00301454AD1601146C96841F0EC
:100550000201D1601146C96821F4FE4141F4A05165
:10056000D1601146C96821F0700141F01001D160DD
:100570001146C96821F0C061D1601146C96841F0D7
:100580008071D1601146096841F08071116000BF2F
:100590003249096801F000710029F9D02F498968B2
:1005A00021F003012D4A91601146896841F0030151
:1005B000916000BF2949896801F00C010C29F9D12B
:1005C0002649896821F0F001244A91601146896822
:1005D00021F4E06191601146896821F460519160D5
:1005E0001146096821F08061116000BF1B4909684C
:1005F00001F08061B1F1806FF8D01849096921F4E8
:10060000FE41164A11611146096941F4C051116158
:100610001146096941F4003111611146096941F43B
:10062000803111611146096841F08061116000BF9D
:100630000A49096801F080610029F9D00749883129
:10064000096821F44001054AC2F888101146096E74
:1006500041F4001111667047002002400010024072
:100660001A48C06C40F008001849C864184800686F
:1006700020F47050164908600846006840F4205085
:10068000086013482030006840F0EE6010492031C7
:1006900008600F480830006840F470500C49083179
:1006A0000860081D006820F47050091D08600846A5
:1006B000006840F4A05008600548001D006820F064
:1006C00060000349091D08607047000000100240E7
:1006D000000C004800B50D48806D40F400300B4917
:1006E00088650A488830006820F00C00C1F888004E
:1006F0000846D0F8880040F00400C1F88800FFF7F1
:10070000AFFF034800F010F800BD000000100240E9
:1007100000440040642242430723B2FBF3F100BFD0
:100720004A1E111EFCD17047016821F001010160D1
:10073000016821F010210160016821F4004101608D
:10074000416821F44051416042F28D01C16001686D
:1007500041F00C0101601E4988421BD1016841F043
:1007600020010160016821F040010160016821F071
:1007700010010160016821F080010160016821F42D
:1007800080710160016821F040010160016821F081
:10079000010101600F49884209D1016A41F040011D
:1007A00001620D49096841F0C0010B4A11600168FE
:1007B00041F00101016000BFC16901F4001100298D
:1007C000FAD000BFC16901F480010029FAD0704756
:1007D000004C004000440040083801400146888C2D
:1007E000C0B27047F0B504460E46174600250CE02F
:1007F00000BFE06900F080000028FAD0705D20851D
:100800004FF49670FFF786FF6D1CBD42F0D300BF1A
:10081000E06900F040000028FAD0E06920F04000D4
:10082000E061F0BD10B504461248005D30B101280A
:1008300009D002280CD0032814D10EE0FFF7E2FD06
:10084000FFF738FE13E0FFF7D3FDFFF733FE0EE0AE
:10085000FFF7CEFDFFF738FE09E0FFF7D3FDFFF706
:1008600033FE04E0FFF7CEFDFFF72EFE00BF00BF12
:1008700010BD00000200002010B504467448005D61
:1008800030B1012864D0022863D003285FD1C0E0D2
:100890007048007830B900206D49085501206E4934
:1008A000085554E06B480078012806D102206849B9
:1008B000085500206849085549E066480078022834
:1008C00010D16648005D401E644908550846015D28
:1008D000204600F06BFA02205D49085500205E4971
:1008E000085534E05B480078032810D15B48005D70
:1008F000401C5A4908550846015D204600F056FA4A
:100900000220534908550020534908551FE051481B
:100910000078042806D100204D49085501204E4991
:10092000085514E04B480078052806D102204849B4
:10093000085500204849085509E04648007806282F
:1009400005D10320424908550120434908557DE05F
:100950007CE04048007830B900203D49085501202E
:100960003D49085554E03B480078012806D1022053
:100970003749085500203849085549E0354800787E
:10098000022810D13548005D401E344908550846FC
:10099000015D204600F00AFA02202D49085500208A
:1009A0002D49085534E02B480078032810D12B48F6
:1009B000005D401C294908550846015D204600F0AD
:1009C000F5F90220224908550020234908551FE067
:1009D00020480078042806D102201D49085500202F
:1009E0001D49085514E01B480078052806D102204F
:1009F0001749085500201849085509E0154800789E
:100A0000062805D10320124908550120124908552E
:100A10001CE010480078042806D103200C49085532
:100A200001200D49085510E00A480078052806D134
:100A300002200749085500200749085505E0032012
:100A40000349085501200449085500BF00BF10BDE7
:100A500000000020040000200200002033000020DD
:100A600010B504467448005D30B1012864D00228F6
:100A700063D003285FD1C0E07048007830B900200F
:100A80006D49085501206E49085554E06B480078BF
:100A9000012806D1022068490855002068490855F8
:100AA00049E066480078022810D16648005D401E83
:100AB000644908550846015D204600F077F9022098
:100AC0005D49085500205E49085534E05B480078D0
:100AD000032810D15B48005D401C5A490855084660
:100AE000015D204600F062F90220534908550020BC
:100AF000534908551FE051480078042806D10020CA
:100B00004D49085501204E49085514E04B480078DE
:100B1000052806D1022048490855002048490855B3
:100B200009E046480078062805D1032042490855C7
:100B30000120434908557DE07CE04348007830B906
:100B400000203D49085501203D49085554E03E48E4
:100B50000078012806D1022037490855002038497D
:100B6000085549E038480078022810D13548005D22
:100B7000401E344908550846015D204600F016F92C
:100B800002202D49085500202D49085534E02E48F3
:100B90000078032810D12B48005D401C29490855D6
:100BA0000846015D204600F001F90220224908555F
:100BB0000020234908551FE023480078042806D167
:100BC00002201D49085500201D49085514E01E4803
:100BD0000078052806D10220174908550020184939
:100BE000085509E018480078062805D10320124965
:100BF00008550120124908551CE0134800780428C4
:100C000006D103200C49085501200D49085510E074
:100C10000D480078052806D1022007490855002014
:100C20000749085505E003200349085501200449F8
:100C3000085500BF00BF10BD0000002004000020C8
:100C4000020000203300002005000020FFF746FCD2
:100C5000FFF740FDFFF7E0FB00F056FA00F0C8FA9E
:100C600016E000200B49086000F0CEF8002000F0EC
:100C700013F80020FFF7D6FD012000F00DF805E085
:100C800004480068B0F57A7F00D300E0F8E700BFC1
:100C9000E7E700002404004070B504463B48005DCF
:100CA00028B13A48005D401E3849085570BD3848A3
:100CB000005D032803D03748005D012800D1F5E727
:100CC0003548005D3549085C00F0E0063248005DBB
:100CD000085C00F01F05402E12D004DC002E41D02D
:100CE000202E46D104E0802E10D0A02E41D121E04C
:100CF0002946204600F05AF80020264908553CE0D5
:100D00002248055500202349085536E02448005D57
:100D100018B103201F4908552FE000201D49085530
:100D2000204805551C48005D1F49085501201C49F5
:100D3000085522E01B48005D60B1002015490855A8
:100D40001848005D401E174908551748005D1249B4
:100D5000085506E000200F49085513490855104969
:100D600008550AE000200B4908550320084908559A
:100D700003E002200749085500BF00BF0648005D98
:100D8000401C0549085500BF90E7000035000020D1
:100D9000000000200200002031000020060000209A
:100DA0003B000020370000203900002010B502462B
:100DB000062910D2DFE801F0030507090B0D142006
:100DC00009E0112007E00E2005E00B2003E00820D9
:100DD00001E0042000BF00BF1F2903D90223084CF3
:100DE000A3540CE02AB94FF080435863054CA1543A
:100DF00005E0012A03D193079863024CA15410BD6A
:100E000002000020330000201CB5B448007888B9E7
:100E1000B3A16846FFF74AFA6846FFF75BFA044653
:100E200022466946B048FFF7DDFCAC480078401C1C
:100E3000AA490870AC481C30006800F02000B8B126
:100E4000A948FFF7CBFCA9490870084600780D288F
:100E500003D00122A448FFF7C5FCA4480078A449A8
:100E60009E4A127888549D480078401C9B4908701F
:100E70009A480078042872D19D48407862286FD043
:100E800010DC4E287DD006DC42287FD0432834D0A9
:100E90004C2868D15BE0502814D0522842D0582802
:100EA0007CD178E070280CD006DC632824D06C2834
:100EB0004CD06E2872D163E0722832D078286DD180
:100EC00068E000BF8B480078032806D106208A49D5
:100ED00008700120894908700DE0884800780228D0
:100EE00003D104208449087005E00020824908707D
:100EF00001208249087052E000BF7E480078032834
:100F000003D106207C4908700AE07C48007802285A
:100F100003D104207849087002E001207649087066
:100F20003DE000BF75480078012803D004207249D5
:100F300008700AE072480078002803DD02206E493C
:100F4000087002E004206C49087028E000BF6B487C
:100F50000078012808D00420674908700FE0BAE043
:100F600013E00EE012E019E065480078052803DA86
:100F700003206149087002E004205F4908700EE018
:100F800000BF04205C49087009E000BF05205A49F1
:100F9000087004E000BFFFF737FF00E01CBD00BF92
:100FA0005348807862286ED010DC4E287CD006DC56
:100FB00042287ED0432834D04C2867D15BE05028AB
:100FC00014D0522842D058287BD177E070280CD01A
:100FD00006DC632824D06C284CD06E2871D162E0E6
:100FE000722832D078286CD167E000BF4148407841
:100FF000032806D106204349087001203F49487064
:101000000DE03E484078022803D104203A49087098
:1010100005E000203B49087001203849487051E044
:1010200000BF34484078032803D1062035490870B2
:101030000AE032484078022803D104202E49087083
:1010400002E001202F4908703CE000BF2B484078A7
:10105000012803D004202B4908700AE02848407872
:10106000002803DD02202749087002E004202549FA
:10107000087027E000BF21484078012807D00420ED
:10108000204908700EE013E00EE012E019E01C4861
:101090004078052803DA03201A49087002E004208A
:1010A000184908700EE000BF04201649087009E0D6
:1010B00000BF05201349087004E000BFFFF7A4FE3D
:1010C00000E06BE700BF002004490870FFF7D4FB85
:1010D0000120FFF7C5FC00BF60E7000045000020CD
:1010E0000A0D3E20000000000044004044000020A3
:1010F000400000200000002004000020020000202A
:1011000033000020050000203848C06C40F001008A
:101110003649C8644FF09040006800204FF090417D
:1011200008600846006840F00A0008600846006849
:1011300040F0280008600846006A40F0010008629C
:101140000846006A40F0100008622848806D40F0B0
:101150000100264988654FF4FA50010688620006AE
:10116000806940F2033188434FF08041886108462E
:10117000806940F0080088610846806940F400609A
:1011800088610846806940F4DC60886108468069AF
:1011900040F4DC2088610846806920F48060886122
:1011A0000846806920F4306088610846006840F095
:1011B000800008600846006A40F0010008620846A6
:1011C000006A40F010000862C820C86232204863FC
:1011D00088634007406940F00100486108460069A3
:1011E00020F00100086101200860704700100240F3
:1011F0001448806D40F002001249886541F63F7046
:101200001149086010482838006840F080000E49F5
:101210002839086041F288300B49091D08600A48E6
:101220001438006840F00100074914390860081FAD
:10123000006820F00100091F0860012002492839D8
:101240000860704700100240280400404FF04070D2
:10125000E1EE100A7047000078120008000000203C
:1012600048000000C4010008C01200084800002027
:1012700060060000E00100080101000000002025D8
:101280002023802124A0202240234022235F5F5F6F
:10129000240020212223242524232221002321236A
:1012A0000025227222274A60000000000000000092
:1012B00000000000004D4F5600000000000000003C
:040000050800018965
:00000001FF
