:020000040800F2
:10000000D82F00207D02000877230008CB1F0008AE
:1000100075230008CD070008152E00080000000019
:100020000000000000000000000000009D0100082A
:10003000CF07000800000000F901000801270008B0
:10004000970200089702000897020008970200082C
:10005000970200089702000897020008970200081C
:10006000970200089702000897020008970200080C
:1000700097020008970200089702000897020008FC
:1000800097020008970200089702000897020008EC
:1000900097020008970200089702000897020008DC
:1000A00097020008970200089702000897020008CC
:1000B0009702000805280008970200089702000828
:1000C00097020008970200089702000897020008AC
:1000D0009702000897020008092E000897020008FE
:1000E000970200089702000897020008970200088C
:1000F000970200089702000897020008970200087C
:10010000970200089702000897020008970200086B
:10011000970200089702000897020008970200085B
:10012000970200089702000897020008970200084B
:10013000970200089702000897020008970200083B
:10014000970200089702000897020008970200082B
:10015000970200089702000897020008970200081B
:10016000970200089702000897020008970200080B
:10017000970200089702000897020008000000009C
:100180009702000897020008DFF80CD000F0E0FAB0
:1001900000480047A9300008D82F00202C4B1968D0
:1001A000086800F05AB880F30988BFF36F8F4FF0EA
:1001B000000080F3118870470000000008480068C4
:1001C000006880F308884FF0000080F3148862B65E
:1001D00061B6BFF34F8FBFF36F8F00DF00BF00BF6B
:1001E00008ED00E0DFF80C00016841F470010160E7
:1001F000704700BF88ED00E0EFF30980BFF36F8F19
:10020000134B1A681EF0100F08BF20ED108A20E96A
:10021000F04F106009B44FF0500080F31188BFF325
:100220004F8FBFF36F8F03F0CDFD4FF0000080F3D1
:10023000118809BC1968086800F014B81EF0100F86
:1002400008BF00F014B880F30988BFF36F8F7047C0
:100250008C000020EFF30580704730C8B0E8C04F35
:10026000FFF7A1BF30C8B0E8C04FFFF7E7BFB0EC61
:10027000088AB0EC08CAFFF7E6BF000006488047CE
:1002800006480047FEE7FEE7FEE7FEE7FEE7FEE77B
:10029000FEE7FEE7FEE7FEE7C12700088901000848
:1002A0002DE9F05F0546002092469B4688460646AB
:1002B000814640241BE0284641464746224600F03E
:1002C000C7F953465A46C01A914110D311461846F1
:1002D000224600F0AEF92D1A67EB01084F46224680
:1002E0000120002100F0A5F917EB00094E41201E66
:1002F000A4F10104DFDC484631462A46434600F0BB
:1003000000B830BCBDE8C09F40EA01039B0703D0A2
:1003100009E008C9121F08C0042AFAD203E011F844
:10032000013B00F8013B521EF9D27047D2B201E006
:1003300000F8012B491EFBD270470022F6E710B5EA
:1003400013460A4604461946FFF7F0FF204610BD43
:10035000421C10F8011B0029FBD1801A70472DE9BF
:10036000FE4F804681EA0300C00F0C46009021F04A
:10037000004123F00045B8EB0200A94105D24046F8
:10038000214690461C460B46024623F0004010438F
:1003900047D0270DC7F30A00C3F30A510290401A51
:1003A000019040286BDAC3F3130040F4801B0098DF
:1003B000924620B10023D2EB030A63EB0B0B0198AA
:1003C0005946C0F14002504600F033F906460D464A
:1003D00050465946019A00F04BF910EB0800614174
:1003E000002487EA115284EAE7731A4340D0009A46
:1003F00062B3019A012A4FEA075215DC001B61EB38
:1004000002014FF0004202EA0752CDE90042001C0F
:1004100041F5801132462B4600F04BF903B000F055
:1004200045B840462146F9E7001B61EB0201001C7C
:1004300041F5801300185B412018A2F5001747EB27
:10044000030140EAD570B6196D4111E06D084FEA1D
:10045000360645EAC0754FEA0752001B61EB020100
:10046000001C41F5801149084FEA30000019514144
:1004700032462B4603B000F01CB800F00BB90098D0
:10048000012240000023D0EB020263EBE0730098EE
:1004900021464FEAE074B8EB000061EB0401E9E7A4
:1004A00083F000435BE781F0004158E730BCBDE8D2
:1004B000C08F30BCBDE8C04FFFF7DFBF2DE9FE4F56
:1004C00081EA030404F0004421F0004100944FF05D
:1004D000000B23F0004350EA01045ED052EA03040B
:1004E0005BD0C3F30A54C1F30A552C44A4F2F3348D
:1004F0000194A0FB0254C1F3130141F48011C3F332
:10050000130343F4801301FB024400FB034E840AEF
:10051000970A44EA815447EA8357A4FB0768029587
:100520008D0A05FB07854FEA932C04FB0C54270525
:10053000029D4FEA065847EA1637B5EB08056EEB01
:10054000070C870E920E47EA811742EA8312A7FB37
:100550000201B6EB0B0164EB00042B0D43EA0C33F4
:100560005E1844EB1C50DA465146E7FB0201C5F326
:1005700013044FEA0B3343EA14534FEA0432019C4D
:1005800043EA0603A4F10C040294009CCDE900B4F4
:1005900000F08FF803B000F003B800200146F9E73F
:1005A00030BCBDE8C08F0EB5C10F80EAE0700844D2
:1005B000CA07002140F233438DE80E000A460B467D
:1005C00000F077F803B000BD70B5C1F30A5201F036
:1005D00000450024C1F3130140F2FF3341F48011C0
:1005E0009A4201DA002070BD40F233439A42A2F2EF
:1005F000334203DC524200F02BF800E090402C43E1
:10060000F1D0404270BD30B50B460146002020229B
:10061000012409E021FA02F59D4205D303FA02F50F
:10062000491B04FA02F52844151EA2F10102F1DC6F
:1006300030BD202A04DB203A00FA02F10020704786
:100640009140C2F1200320FA03F319439040704710
:10065000202A04DB203A21FA02F00021704721FA17
:1006600002F3D040C2F1200291400843194670477E
:10067000202A06DBCB17203A41FA02F043EAE07366
:1006800006E041FA02F3D040C2F120029140084353
:100690001946704710B5141E73F1000408DA401CA7
:1006A00041F1000192185B411A4301D120F0010091
:1006B00010BD2DE9F04D92469B4611B1B1FA81F281
:1006C00002E0B0FA80F220329046FFF7B2FF044613
:1006D0000F4640EA0A0041EA0B0153465A460843D6
:1006E00013D0114653EA010019D0C8F14002504618
:1006F000FFF7AEFF05460E46504659464246FFF705
:1007000098FF084305D0012004E020463946BDE8A3
:10071000F08D0020054346EAE0762C4337430A98E3
:100720006305E40AA0EB08000022FD0A44EA4754EE
:100730000A3002D500200146E9E701051019694198
:10074000DDE9084500196941BDE8F04DA2E7000068
:10075000064C074D06E0E06840F0010394E807000E
:1007600098471034AC42F6D3FFF712FDB0470008AB
:10077000D047000803490968096B002900D00847E1
:10078000704700005400002070B50E4C0125002673
:10079000A0688047D42803D0A0688047D5280ED110
:1007A000094D41F23F002C60216888472868816A22
:1007B000304688472868C16A1020884700252846A7
:1007C00070BD00005800002054000020FEE7704774
:1007D000704700002DE9F041354C86B0E06C40F0E8
:1007E0001000E064E06C012500F010000095059019
:1007F00001AA00260327DFF8BC8082E8E0006946F2
:10080000404600F0E3F801221146404600F0C3F9EB
:10081000E06C40F00400E064E06C009500F004003F
:10082000059001AADFF8908082E8E0006946404622
:1008300000F0CCF801221146404600F0ACF9E06C23
:1008400040F00800E064E06C694600F008000590A4
:1008500080208DE8E100194D284600F0B7F801220C
:100860008021284600F097F9E06C40F00800E06431
:10087000E06C694600F0080005900420CDE9000610
:100880002846CDE9026700F0A1F8E06C40F00200D4
:10089000E064E06C694600F002000590A01500904D
:1008A000074800F093F801F0BFFE06B0BDE8F08104
:1008B000001002400010004800080048000C0048EA
:1008C000000400482DE9F04114460546012A02D9EA
:1008D00041F0C00601E041F08006104F0022802167
:1008E000384600F058F90E480068016821F4444188
:1008F0000160304601F0E2FE06E0002001F0DEFE7D
:10090000641E05F8010BA4B2002CF6D13846BDE8F0
:10091000F0410122802100F03EB90000000C0048A7
:10092000740300202DE9F041144605460E46012AC5
:1009300001D941F040060F4F00228021384600F0D7
:100940002AF90D480068016821F4444101603046ED
:1009500001F0B4FE05E0287801F0B0FE641EA4B2F8
:100960006D1C002CF7D13846BDE8F04101228021F2
:1009700000F011B9000C00487403002010B590F885
:1009800025100024022903D00421C16301241AE0A8
:1009900001680A6822F00E020A6001680A6822F003
:1009A00001020A6090F84410036C01F01C0201215E
:1009B00001FA02F25A6080F82510002180F8241014
:1009C000816B01B18847204610BD00002DE9F84F2A
:1009D000DFF898B100234FF0010C4FF0030A4FF0FD
:1009E0000F090BF1040EB9E00CFA03F4224070D0A9
:1009F0004D68022D01D0122D0ED1DD0800EB8508C7
:100A0000D8F820505E07F70E09FA07F6B5430E69CD
:100A1000BE402E43C8F8206007685E0091F804804D
:100A20000AFA06F508F00308AF4308FA06F848EAA0
:100A30000708C0F800804F68012F05D0022F03D0AF
:100A4000112F01D0122F13D1D0F80880CF6828EAD7
:100A50000508B74047EA08078760D0F804800F7997
:100A600028EA0408C7F300179F4047EA08074760D1
:100A7000D1F804806FEA0807BF0706D1C76AA74309
:100A8000C8F3C0049C403C43C462C468AC438D6856
:100A9000B5402543C5604C68E4005ED5344C256EF6
:100AA00045F001052566246E23F0030504F00104DA
:100AB0000094304C2E19B4689D072F0F09FA07F5E2
:100AC000AC43B0F1904F05D02B4DA84204D1012585
:100AD0001CE042E0002519E0284DA84201D1022582
:100AE00014E0274DA84201D103250FE0254DA8426F
:100AF00001D104250AE0244DA84201D1052505E0D5
:100B0000224DA84201D1062500E00725BD4025431E
:100B1000B560DBF800405D464E689443F60300D5AF
:100B200014432C60DEF8004075464E689443B603CB
:100B300000D514432C600D4D08352C684E68944345
:100B4000F60200D514432C60084D0C352C684E6815
:100B50009443B60200D514432C605B1C0A6832FA39
:100B600003F57FF441AF00F013B80000000401402A
:100B70000010024000000140000400480008004846
:100B8000000C0048001000480014004800180048FD
:100B900018BCBDE8E08F0AB181617047816270477F
:100BA00001488068704700004400002002488168C6
:100BB00042681144816070474400002010B5002451
:100BC000032000F08DF8002000F008F808B101249F
:100BD00001E000F03DF8204610BD000000B50146E0
:100BE00087B000221D2000F05BF81D2000F04AF8BD
:100BF0001348816D41F002018165806D05A900F007
:100C000002000690684600F021FB00F03FFB0D4912
:100C10000D4AB0FBF1F10D48491E0260416040F2FF
:100C2000E7320021C0E90321816000F003FF10B129
:100C3000012007B000BD054800F02CFFF9E70000D7
:100C40000010024040420F00000400409C020020BF
:100C50000B4882B0016E41F001010166016E01F0A6
:100C600001010091816D41F080518165806D00220C
:100C700000F0805000900F21901E02B000F010B8DC
:100C800000100240002809DB00F01F020121914002
:100C90004009800000F1E020C0F80011704700001A
:100CA000F0B40E4B1B680C46C3F30223C3F10705D7
:100CB000042D00D90425191D072901D2002300E0C5
:100CC000DB1E012606FA05F1491E214099409E408F
:100CD000761E16403143F0BC02F0B2B80CED00E0D5
:100CE000064900F0070208684FF6FF03184040EA83
:100CF0000220034A10430860704700000CED00E03A
:100D00000000FA051649B0F5007F0868C0F34120DD
:100D100009D0022805D0086820F4C06040F4806043
:100D20000860002070470128FBD0086820F4C060EC
:100D300040F4007008600B483222006850430A4AB1
:100D4000B0FBF2F0401C00E0401E4A69520501D59C
:100D50000028F9D148694005E3D503207047000019
:100D6000007000405000002040420F000248006820
:100D700000F4C06070470000007000402DE9F84F9B
:100D8000044600270088E54D3E46010504F1200B8E
:100D90001DD5606E78B1B0F5800F11D0B0F5000FA1
:100DA00004D0B0F5400F22D001270FE0E86840F4EE
:100DB0008030E8601BE00021201D01F0DDFA03E037
:100DC0000021584601F06EFB070010D03E462088F7
:100DD000C00426D5A06EC0B1B0F1807F1AD0B0F1AA
:100DE000007F0DD0B0F1407F19D0012718E0D5F871
:100DF0008800616E20F440000843C5F88800E6E7EB
:100E0000E86840F48030E86009E00021201D01F02E
:100E1000B3FA03E00021584601F044FB0746F7B15E
:100E20003E46206880033AD5A86D4FF00008C00008
:100E300009D4A86D40F08050A865A86D4FF0010856
:100E400000F080500090DFF8D8A2DAF8001041F4EA
:100E50008071CAF80010FFF7A3FE814610E0D5F8B4
:100E60008800A16E20F040700843C5F88800D8E7DC
:100E7000FFF796FEA0EB0900022801D9032705E041
:100E8000DAF80000C005F3D5002F7CD04FEA070642
:100E9000B8F1000F03D0A86D20F08050A86520782D
:100EA000C00707D0D5F88800A16B20F003000843E5
:100EB000C5F888002078800707D5D5F88800E16B51
:100EC00020F00C000843C5F888002078400707D5BB
:100ED000D5F88800216C20F030000843C5F8880060
:100EE0002078000707D5D5F88800616C20F0C00095
:100EF0000843C5F888002078C00607D5D5F88800D3
:100F0000A16C20F440700843C5F888002078800662
:100F100007D5D5F88800E16C20F440600843C5F897
:100F200088002088800507D5D5F88800E16D20F479
:100F300040200843C5F888002088400507D5D5F82B
:100F40008800216E20F440100843C5F888002078FE
:100F5000400607D5D5F88800216D20F4405008439D
:100F6000C5F888002078000607D5D5F88800616D9F
:100F700020F440400843C5F888002088C00509D502
:100F8000D5F8880000E01CE0A16D20F44030084353
:100F9000C5F8880020884FF0006780044FF0806813
:100FA0004FD5D5F88800E16E20F040600843C5F8C1
:100FB0008800E06EB8423CD1E86840F48010E860F8
:100FC0003FE0D5F8900010F4407015D0D4F88410AC
:100FD000814211D0D5F89000D5F8901020F44070DF
:100FE00041F48031C5F89010D5F8901021F480318B
:100FF000C5F89010C5F89000C00710D0FFF7D0FDDD
:10100000074641F2883906E0FFF7CAFDC11B494592
:1010100001D903263CE7D5F890008007F4D5D5F830
:101020009000D4F8841020F440700843C5F8900074
:101030002EE7404505D10121201D01F09DF900B1A9
:1010400006462068000317D5D5F88800216F20F0E8
:1010500040600843C5F88800206FB84204D1E868B2
:1010600040F48010E86007E0404505D10121201DD3
:1010700001F082F900B106462068400317D5D5F883
:101080008800616F20F040600843C5F88800606FF9
:10109000B84204D1E86840F48010E86007E04045B9
:1010A00005D10121201D01F067F900B10646208815
:1010B00040041AD5D5F88800A16F20F040500843AD
:1010C000C5F88800A06FB0F1805F03D0B0F1005F79
:1010D00005D00AE00221201D01F04EF903E00221B3
:1010E000584601F0DFF900B106462088000407D514
:1010F000D5F88800E16F20F080400843C5F88800EB
:101100002068C00307D555F8880FD4F8801020F068
:10111000004008432860304600F004B80010024048
:101120000070004018BCBDE8E08F00002DE9F047DA
:101130000F46050058D0404E306800F00700B84216
:1011400009D2306820F0070038433060306800F082
:101150000700B84248D12878384CC0072CD06868BE
:10116000032811D0022812D0216898B1490500291E
:101170003ADAA16821F003010143A160FFF710FDF5
:10118000804641F2883910E021688901EFE7216843
:101190008903ECE78907EAE7FFF702FDA0EB080106
:1011A000494502D90320BDE8F087A068696800F0CE
:1011B0000C00B0EB810FEFD12878800705D5A0682F
:1011C000A96820F0F0000843A060306800F0070034
:1011D000B8420BD9306820F00700384330603068DF
:1011E00000F00700B84201D00120DCE72878400772
:1011F00005D5A068E96820F4E0600843A06028787D
:10120000000706D5A068296920F4605040EAC100B3
:10121000A06000F05FF8A168094AC1F30311515CB6
:1012200001F01F01C8400749086007480068BDE891
:10123000F047FFF7D3BC000000200240001002403E
:101240001847000850000020440000200F220260D0
:101250000C4A936803F003034360936803F0F003C0
:101260008360936803F4E063C36092684FF4E063C3
:1012700003EAD20202610448006800F00700086037
:101280007047000000100240002002400548064957
:1012900000688968054AC1F30221515C01F01F0111
:1012A000C840704750000020001002405847000816
:1012B0000548064900688968054AC1F3C221515CA6
:1012C00001F01F01C840704750000020001002408C
:1012D0005847000870B52549002318468A68CC682D
:1012E00012F00C0204F00306214C4FEA640509D009
:1012F0000C2A05D0042A32D0082A00D1284670BD15
:10130000012E10D10B681B0704D4D1F89430C3F31D
:10131000032302E00B68C3F30313164E56F8233081
:10132000DAB10C2AEBD1C86800F00300022818D00B
:10133000032818D01846CA68CB68C2F30212C3F358
:1013400006234343521CB3FBF2F2C868C0F341606A
:10135000401C4000B2FBF0F070BD184670BD204646
:1013600070BD2046E7E72846E5E700000010024090
:101370000024F400284700082DE9F84304006ED04B
:10138000FD4DA86800F00C06E86800F0030720781F
:10139000C00663D576B10C2E01D1012F0AD0A06909
:1013A0000028286878D040F001002860FFF7F8FB9B
:1013B00080465BE02868800702D5A0690028DED05F
:1013C000216A2868000703D5286800F0F00004E0CF
:1013D000D5F89400F02202EA1010814216D908468E
:1013E00001F0E4F800283AD1286840F008002860AD
:1013F0002868216A20F0F000084328606868E169E5
:1014000020F47F4040EA0120686015E0286840F041
:10141000080028602868216A20F0F000084328604E
:101420006868E16920F47F4040EA01206860206A32
:1014300001F0BCF80028D6D1FFF74CFFA968CF4ACD
:10144000C1F30311515C01F01F01C840CC49086091
:10145000CC480068FFF7C2FB00287DD12DE0C9E031
:10146000FFF79EFBA0EB0800022876D828688007CB
:10147000F6D5286840F0080028602868216A20F026
:10148000F000084328606868E16920F47F4040EA82
:101490000120686011E0FFE720F001002860FFF7FD
:1014A0007FFB804606E000BFFFF77AFBA0EB080059
:1014B0000228DAD828688007F6D42078C00740D000
:1014C000082E18D00C2E01D1032F14D06068B0F56F
:1014D000803F17D0B0F5A02F286817D020F48030B7
:1014E0002860286820F4802028606068E0B1FFF759
:1014F00057FB804614E02868800322D560680028E6
:1015000078D01EE0286840F48030EDE740F4802079
:101510002860F7E7FFF744FBA0EB08006428A4D895
:1015200028688003F6D50CE0FFF73AFB804605E01B
:10153000FFF736FBA0EB0800642896D828688003E4
:10154000F6D4207880073BD5042E11D00C2E01D183
:10155000022F0DD0E06801E03EE19FE000282868FE
:101560001ED040F480702860FFF71AFB07460CE09D
:10157000286840050CD5E0680028C1D008E000BF0D
:10158000FFF70EFBC01B022893D828684005F7D54B
:101590006868217C20F0F85040EA016068600FE044
:1015A00020F480702860FFF7FBFA074605E000BFD3
:1015B000FFF7F6FAC01B022870D828684005F7D458
:1015C0002078000729D560690028D5F8940012D04A
:1015D00040F00100C5F89400FFF7E2FA074604E086
:1015E000FFF7DEFAC01B022858D8D5F89400800710
:1015F000F6D512E029E120F00100C5F89400FFF7CC
:10160000CFFA074605E000BFFFF7CAFAC01B022861
:1016100044D8D5F894008007F6D42078400768D5E0
:10162000A86D0027C00008D4A86D40F08050A865C0
:10163000A86D012700F08050009053480168C9054B
:1016400012D40168814641F480710160FFF7A8FA65
:10165000804605E0FFF7A4FAA0EB080002281DD899
:10166000D9F80000C005F5D5A068012817D00528D5
:10167000D5F8900018D020F00100C5F89000D5F8FA
:10168000900020F0040000BFC5F89000A06841F26F
:101690008839D0B1FFF784FA804611E06BE0D5F8C5
:1016A000900040F00100EFE740F00400C5F8900022
:1016B000F5E700BFFFF774FAA0EB080149455AD8D7
:1016C000D5F890008007F5D50EE0FFF769FA80465F
:1016D00006E000BFFFF764FAA0EB080149457AD89D
:1016E000D5F890008007F5D41FB1A86D20F0805088
:1016F000A865A06AF0B30C2E75D00228286820F0E7
:101700008070286004D0286810F0205F51D054E029
:10171000FFF746FA064604E0FFF742FA801B02286C
:1017200059D828688001F7D4D4E90B016FF00F0273
:1017300002EB01110843A18F5204490802EB415109
:10174000626B41EA0221084394F840104FF07E4258
:10175000490802EB41610843A16B090940EA414095
:10176000E9680A4A11400843E860286840F0807040
:1017700028600DE06BE02EE00010024018470008E2
:101780005000002044000020007000408C809DF933
:10179000E86840F08070E860FFF702FA044604E071
:1017A000FFF7FEF9001B022815D828688001F7D53D
:1017B0004DE0E86820F00300E860E868254908404B
:1017C000E860FFF7EDF9044609E000BFFFF7E8F92C
:1017D000001B022803D90320BDE8F88303E0286832
:1017E0008001F3D433E00128F6D0E868E26A00F023
:1017F0000301914229D1216B00F0700209011039D7
:10180000914222D1626B00F4FE41B1EB022F1CD158
:10181000A26B00F40031072A01D0012200E000226F
:10182000914212D1A18F00F4C00249084905A1F5E7
:101830000011914209D194F8401000F0C0604908AD
:101840004906A1F10071814201D00120C4E70020C6
:10185000C2E70000FFFFEEFE70B5040003D0607920
:10186000002510B105E0012070BD2571204600F073
:101870000DF8022060712068016841F004010160E8
:1018800001206071A560002070BD000008B50068EF
:101890000649884208D10648C16C41F48021C164E0
:1018A000C06C00F48020009008BD000000080650C5
:1018B0000010024090F85D0070472DE9F0410400EF
:1018C00005D00025A56294F85D0018B107E001205D
:1018D000BDE8F08184F85C50204600F045F8022312
:1018E00084F85D302068016821F040010160E06803
:1018F0004FF4E066B04201D9002101E04FF480517D
:10190000B0F5706F02D0B04200D0A562276B012203
:1019100027B9B04201D9236300E02263D4E901036F
:101920001843D4E9043633431843238B03F400737C
:101930001843E3691843236A1843A36A18432368CA
:101940001860636B606AA66918430427E36807EAB6
:10195000164633431843084321684860256684F8D7
:101960005D200020B4E7000010B586B004461421C5
:101970006846FEF7E2FC1249206888421ED11148F1
:10198000816D41F480418165816D01F48041059153
:10199000C16C41F00801C164C06C694600F00800E8
:1019A00005901A2000900220019000200290032050
:1019B0000390052004900448FFF708F806B010BD16
:1019C0000038004000100240000C0048704770478B
:1019D0007047000070B590F83C20012A24D0012403
:1019E00080F83C40022280F83D20026853689568E8
:1019F0000E4EB24202D00E4EB24203D123F4700614
:101A00004B68334323F070060B688968334325F035
:101A10008005294353600268916080F83D400021B1
:101A200080F83C10084670BD022070BD002C0140BB
:101A30000034014010B5040003D094F83D0010B10B
:101A400007E0012010BD002084F83C00204600F093
:101A50000DF8022084F83D00211D206800F0D8FE1A
:101A6000012084F83D00002010BD000008B500688A
:101A70000649884208D10648816D41F00801816518
:101A8000806D00F00800009008BD0000000C0040D0
:101A9000001002400168CA6842F00102CA60016891
:101AA0008868064A1040062806D0B0F5803F03D06B
:101AB000086840F00100086000207047070001003E
:101AC00070B5044690F83C00012817D0012584F831
:101AD0003C50022084F83D00226890682E4B18404C
:101AE00020F47F4090600868502830D00DDC20281A
:101AF0004DD005DC98B310283BD148E0022070BDE2
:101B0000302844D0402834D139E0602828D07028CB
:101B100006D0B0F5805F2CD0B0F5005F29D10AE087
:101B2000CB68D1E90121206800F0D2FE20688168ED
:101B300041F0770109E0CB68D1E90121206800F08C
:101B4000C7FE2068816841F48041816011E0CA6865
:101B50004968206800F0CEFE5021206807E016E0BA
:101B6000CA684968206800F0D6FE6021206800F04D
:101B7000B9FE84F83D50002084F83C0070BDCA686E
:101B80004968206800F0B6FE40212068EFE722682F
:101B900001461046EBE7000088FFFEFF704770B576
:101BA0000446006801694FF00005C943890715D450
:101BB000C168C943890711D4E91E0161012020775A
:101BC000206880698007204602D0FFF7E7FF04E025
:101BD00000F0A7F8204600F0A5F8257720680169F5
:101BE000C943490717D4C168C943490713D46FF0E3
:101BF00004010161022020772068806910F4407F91
:101C0000204602D0FFF7CAFF04E000F08AF8204621
:101C100000F088F8257720680169C943090716D4C0
:101C2000C168C943090712D46FF00801016104209B
:101C300020772068C0698007204602D0FFF7AEFFFA
:101C400004E000F06EF8204600F06CF8257720687C
:101C50000169C943C90617D4C168C943C90613D469
:101C60006FF010010161082020772068C06910F42E
:101C7000407F204602D0FFF791FF04E000F051F8CA
:101C8000204600F04FF8257720680169C943C9074D
:101C900008D1C168C943C90704D1891E0161204622
:101CA00000F042F820680169C943090609D4C168F7
:101CB000C943090605D46FF0800101612046FFF792
:101CC00086FE20680169C943C90509D4C168C943B2
:101CD000090605D46FF4807101612046FFF776FE96
:101CE00020680169C943490609D4C168C943490646
:101CF00005D46FF040010161204600F01FF8206814
:101D00000169C94389060BD4C168C943890607D450
:101D10006FF0200101612046BDE87040FFF758BE1A
:101D200070BD70477047000000680349884201D1C8
:101D3000FEF73CBF7047000000040040704770474A
:101D4000704700002DE9F04102680446D06911682F
:101D5000936810F00F0F4FF000055BD003F0010601
:101D600001F49077374369D0C70707D0CF0505D571
:101D700001271762E26F42F00102E267820708D58D
:101D8000DA0706D0276802223A62E26F42F00402C4
:101D9000E267420708D5DA0706D0236804221A62F0
:101DA000E26F42F00202E26702070AD501F0200268
:101DB000324306D0236808221A62E26F42F008021A
:101DC000E267E26F002A32D0800605D5880603D587
:101DD000216E09B120468847E06F2168896849066D
:101DE00001D4000725D5204600F041FE2068816817
:101DF000490619D5816821F040018160E06E98B1F3
:101E000020498163E06EFEF7B9FD00280FD0E06E37
:101E1000816B06E0860611D58E060FD5216E1EE079
:101E20002046BDE8F04108472046FFF789FFBDE89E
:101E3000F0812046FFF784FFE567F8E7C60209D581
:101E40005B0207D54FF4801010622046BDE8F041D8
:101E5000FFF775BF030605D50B0603D5616E002994
:101E6000DED1E4E74006E2D54806E0D51168204619
:101E700021F04001116020216167656600F0A4F83F
:101E8000D5E700005B2A000810B5040002D0606F9F
:101E900010B107E0012010BD002084F8700020463A
:101EA00000F026F8242060672068016821F0010115
:101EB0000160204600F0EAFD0128ECD0606A10B114
:101EC000204600F03AFD2068416821F490414160CD
:101ED0002068816821F02A0181602068016841F052
:101EE000010101602046BDE8104000F08ABD0000FD
:101EF00010B586B0044614216846FEF71EFA16494E
:101F00002068884226D11548816D41F400318165F1
:101F1000816D01F400310591C16C41F00801C1648B
:101F2000C06C694600F00800059060200090022017
:101F3000019000200290032003900720049008489D
:101F4000FEF744FD002205212620FEF7A9FE2620EB
:101F5000FEF798FE06B010BD00440040001002409D
:101F6000000C0048436F202B28D1B1B1AAB190F8E2
:101F70007030012B22D0012380F87030C164A0F8AA
:101F80005020A0F8522000214166C16721224267FB
:101F90008268B2F5805F02D003E0012070470269D9
:101FA00052B1074A426680F870100068016841F03B
:101FB0008001016000207047024AF3E70220704769
:101FC0006D2D00082D2D00087047FEE7704738B5CD
:101FD0000446012222216846FEF774FC14B1012C4C
:101FE00005D00AE09DF8000000F07F0003E09DF8B6
:101FF000000000F0F7008DF8000001222221684661
:10200000FEF790FC38BD38B504460122222168460F
:10201000FEF758FC14B1012C07D00EE09DF800002B
:1020200000F07F0040F0800005E09DF8000000F027
:10203000F70040F008008DF80000012222216846D8
:10204000FEF770FC38BD38B50446012224216846ED
:10205000FEF738FC9DF80000012200F0EF0020435D
:102060008DF8000024216846FEF75CFC38BD38B5C9
:102070000446012221216846FEF724FC9DF8000059
:10208000012200F0C00020438DF8000021216846A5
:10209000FEF748FC38BD1CB5044600208DF8000052
:1020A0008DF80400012230216846FEF70BFC012266
:1020B000222101A8FEF706FC9DF80000012200F095
:1020C00080008DF800009DF80400302100F0DF0052
:1020D00004438DF804406846FEF724FC01222221C7
:1020E00001A8FEF71FFC1CBD38B5044600208DF882
:1020F0000000FEF76FFB8DF80040012220216846AA
:10210000FEF710FC200A8DF800000122232168460A
:10211000FEF708FC38BD08B501228DF8000020212B
:102120006846FEF7FFFB08BD08B5FEF753FB01222A
:102130000F216846FEF7C6FB9DF8000008BD0000B1
:1021400070B505462DED028B86B000200090019001
:10215000029003908DF8100004469FED288A01221A
:10216000232104A8FEF7AEFB062228216846FEF7CD
:10217000A9FB9DF8101068464B0602AA0DD400BFBB
:1021800000EB440610F81430767803EB062322F8AF
:102190001430641C032CF3DB0BE000EB440310F859
:1021A00014605B7803EB062322F81430641C032CC4
:1021B000F3DB11F0300004D0102805D0202808D11E
:1021C00005E09FED0F8A04E09FED0E8A01E09FED90
:1021D0000E8A002132F9110000EE100A05EB810091
:1021E000491CB8EEC00A032920EE080A80ED000A57
:1021F000F0DB06B0BDEC028B70BD000000000000FB
:1022000000000C4100008C4100008C4208B5012206
:1022100024216846FEF756FB9DF80000012240F09D
:1022200080008DF8000024216846FEF77BFB08BD86
:1022300070B586B014216846FEF77FF81A48C16C65
:1022400041F00801C164C16C01F008010591C16C45
:1022500041F00201C164C06C144E00F00200059010
:10226000002280213046FEF796FC114D0420CDE976
:1022700000050024694602943046FEF7A7FB802043
:1022800000900120CDE90104694630460394FEF731
:102290009DFB4FF48070CDE9000569460294054826
:1022A000FEF794FB06B070BD00100240000C004821
:1022B00000001110000400480E480D494FF4407210
:1022C00001604FF4827141600021C0E902124FF4B5
:1022D00000720161C0E90512C16101620722416219
:1022E000C0E90A12016308214163FFF7E6BA000062
:1022F000003800407801002010B588B00024114853
:102300000094019402940394049405940C49069457
:10231000C0E900148460C46004618461FFF78AFB33
:102320004FF48050009069460648FFF7C9FB0494BB
:1023300004A904480694FFF74DFB08B010BD000047
:10234000000C0040DC0100200948084901604FF4FE
:10235000E1314160002181600C22C160C0E90412BA
:102360008161C16101624162FFF78EBD004400409E
:102370001C020020FEE770472DE9F041444C054661
:102380008846E0680026810728680DD0E16801F0E2
:102390000301814216D1A8B1E0686968C0F3021058
:1023A000401C88420ED120E0012804D0022805D02C
:1023B000032807D108E02168890701E02168490561
:1023C000002907DB01265FE02168890302D4216828
:1023D0004903F5E7E1686A686FF00F0321F07301C4
:1023E00003EB021211430143E160206820F080609A
:1023F0002060FEF7D5FB074605E000BFFEF7D0FBE7
:10240000C01B022837D820680001F7D4B8F1000FAC
:1024100018D0B8F1010F1ED0287D4FF07E41400842
:1024200001EB4060A96840EA01202169194A114086
:1024300008432061206840F080602060FEF7B0FB18
:1024400007461AE0A868E9680002090940EA414025
:102450002169114AEBE7288A1049400801EB4050F6
:10246000A96840EA012021690D4AE0E7FEF798FBE0
:10247000C01B022801D9032606E020680001F5D51B
:102480002069A969084320613046BDE8F081000059
:1024900000100240FF80FFF9FF80FDFF0000E0FF19
:1024A000FF809FFF2DE9F0413D4C06468846E068DD
:1024B0000025810730680DD0E16801F003018142F9
:1024C00016D1A8B1E0687168C0F30210401C8842C0
:1024D0000ED120E0012804D0022805D0032807D11E
:1024E00008E02168890701E021684905002907DB28
:1024F000012551E02168890302D421684903F5E7E9
:10250000E16872686FF00F0321F0730103EB0212B0
:1025100011430143E160206820F080502060FEF705
:102520003FFB074605E000BFFEF73AFBC01B022851
:1025300029D820688000F7D4B8F1000F15D0307C7E
:102540004FF07E41400801EB4060B16840EA012055
:102550006169144A114008436061206840F080506E
:102560002060FEF71DFB07460FE0B068F16800022F
:10257000090940EA414061690B4AEBE7FEF710FBAD
:10258000C01B022801D9032506E020688000F5D58C
:1025900060697169084360612846BDE8F081000008
:1025A00000100240FF80FFF9FF80FDFFF8B51C4DD1
:1025B00006460024A86DC00002D5FEF7D7FB0DE04B
:1025C000A86D40F08050A865A86D00F08050009084
:1025D000FEF7CCFBA96D21F08051A965B0F5007F15
:1025E00004D0802E07D94FF003040AE0802E08D9CA
:1025F000A02E01D804E001D1022402E0702E00D107
:1026000001240848016821F00701214301600068A6
:1026100000F00700A04201D00120F8BD0020F8BD65
:10262000001002400020024000B587B01F48FFF7AD
:1026300041F9002838D11D481D49072201601021A9
:10264000C1610021816041610161C0E90A12120289
:10265000C26001624FF40072826141624FF4827283
:1026600042601448826D42F480428265826D02F4B9
:1026700080420592C26C42F00802C264C06C00F055
:10268000080005901A2000900220CDE90101039076
:102690000520049069460848FEF798F907B00348FA
:1026A0005DF804EBFFF709B907B000BD7403002023
:1026B0000038004000100240000C00480D490A6834
:1026C000136843F0400313600A6893689B07FCD5C6
:1026D000107309688868C007FCD0087B8A6812F408
:1026E000C05FFBD18A681206FCD40A6822F040025F
:1026F0000A60704774030020012000F015FDFBE71D
:1027000010B5502080F31188BFF34F8FBFF36F8F48
:1027100001F062FE18B104494FF0805008600020BB
:1027200080F3118810BD000004ED00E02DE9F041B8
:10273000B8B0442122A8FDF700FE142133A8FDF70C
:10274000FCFD88216846FDF7F8FD0224E001259094
:1027500010202294269001262C94CDE92D46142099
:102760004FF00708CDE92F080427CDE9314722A80B
:10277000FEF702FE0F20002533900320CDE934053B
:102780003695042133A83795FEF7D0FC0B480F95FA
:10279000009040061D900597CDE901460C20CDE93B
:1027A0000308E004CDE906406846FEF7E7FA200298
:1027B000FEF7A8FA38B0BDE8F0810000020004007E
:1027C0000D48016841F4700101600C48016841F056
:1027D00001010160002181600268094B1A4002601A
:1027E0008214C260026822F4802202608161024980
:1027F000C00380390860704788ED00E00010024097
:10280000FFFFF6EA0148FFF7CAB900009C0200206A
:102810002DE9F0470268264B264D274E274F284CBE
:102820004FF0804A984209D0504507D0A84205D0C1
:10283000B04203D0B84201D0A04204D122F0700CC3
:102840004A6842EA0C02DFF87CC0DFF87C80DFF8DF
:102850007C9098420FD050450DD0A8420BD0B0428A
:1028600009D0B84207D0A04205D0604503D040450A
:1028700001D0484503D122F44075CA682A434D6906
:1028800022F080022A4302608A68C2620A68826279
:10289000984207D0A04205D0604503D0404501D002
:1028A000484501D10969016301214161BDE8F08713
:1028B000002C01400004004000080040000C0040D3
:1028C0000034014000400140004401400048014004
:1028D00010B5846842EA032224F47F440A43224369
:1028E000826010BD826822F070020A4342F0070144
:1028F0008160704710B5036A046A24F00104046221
:10290000846924F0F00444EA021423F00A020A4322
:102910008461026210BD10B5036A23F010030362E4
:102920008369046A23F4704343EA023224F0A0036B
:1029300043EA01118261016210BD90F82410C907B9
:1029400006D001684A68836A22F400321A434A605A
:1029500090F82410890706D501684A68C36A22F4F2
:1029600080321A434A6090F82410490706D501685E
:102970004A68036B22F480221A434A6090F82410BC
:10298000090706D501684A68436B22F400421A43DE
:102990004A6090F82410C90606D501688A68836BDE
:1029A00022F480521A438A6090F82410890606D5D2
:1029B00001688A68C36B22F400521A438A6090F857
:1029C0002410490611D501684A68036C22F480126C
:1029D0001A434A60016CB1F5801F06D101684A684C
:1029E000436C22F4C0021A434A6090F8241009068E
:1029F00006D501684A68806C22F4002202434A60CE
:102A00007047F8B500260446C667FEF7C9F80546C4
:102A1000206800686FF07E47000708D52B4600222B
:102A20004FF400112046009700F0BEF960B920680D
:102A3000006840070AD52B4600224FF4800120464B
:102A4000009700F0B1F908B10320F8BD20206067BD
:102A5000A06784F870600020F8BD10B5806A00217E
:102A6000A0F85A10A0F85210FFF76AF910BD0168DB
:102A70000A6822F490720A6001688A6822F00102F2
:102A80008A60202181670021016670472DE9F041AD
:102A90000546016880682B69EC6918436B6900275B
:102AA00023431843954A0B68954C234003430B601E
:102AB00028684168EB6821F4405119434160296856
:102AC000A869914201D02B6A18438B6823F43063C4
:102AD00003438B608B4B29688B4899420DD1D0F80A
:102AE000880010F0030006D0012868D0022864D0C6
:102AF000032851D165E001244FE0844B99420BD16A
:102B0000D0F8880010F00C0055D0042857D00828C1
:102B100053D00C2840D154E07D4B99420BD1D0F8D2
:102B2000880010F0300046D0102848D0202844D02B
:102B3000302831D145E0774B99420BD1D0F888004D
:102B400010F0C00037D0402839D0802835D0C028B8
:102B500022D136E0704B99420ED1D0F8880010F4A3
:102B6000407028D0B0F5807F29D0B0F5007F24D008
:102B7000B0F5407F10D124E091420DD1D0F888000B
:102B800010F4406017D0B0F5806F18D0B0F5006F2A
:102B900013D0B0F5406F14D01024604B00264FF4D2
:102BA0000040914245D174B1022C0FD0042C0FD0BB
:102BB000082C18D10FE00024EFE70224EDE70424ED
:102BC000EBE70824E9E7FEF761FB03E0184602E0C3
:102BD000FEF780FBA8B36A6802EB4201814202D88B
:102BE000B0EB023F01D9012775E0DFF834815CB119
:102BF000022C0CD0042C13D0082CF4D15008210541
:102C0000401846F1000105E0FEF740FB0AE05008DD
:102C10004449F5E70023FDF743FBA0F5407156E07A
:102C2000FEF758FB6A68010E03025008181871413C
:102C3000F0E7E9694FF6EF7881422FD1092CD2D223
:102C400000E048E0DFE804F006092005230505055B
:102C50002600C8E7FEF71AFB01E0FEF729FB41005A
:102C6000D5F8040001EB5001B1FBF0F080B2A0F107
:102C700010014145B7D84FF6F0710140C0F3420052
:102C800001432868C16026E027496868EAE7FEF743
:102C900021FBE4E74FF480316868E3E7092CA2D216
:102CA000DFE804F006091E052205050525009AE760
:102CB000FEF7ECFA01E0FEF7FBFA0146686801EB6B
:102CC000500100BFB1FBF0F080B2A0F1100141450E
:102CD00089D82968C8602E6638466E66BDE8F081DE
:102CE000686803EB5001EDE7FEF7F4FAE5E7696881
:102CF00000EB5100B0FBF1F0E6E70000008000407F
:102D0000F369FFEF0038014000100240004400402A
:102D100000480040004C0040005000400024F400F7
:102D2000FFFC0F00000024F40048E801416F212956
:102D300010D1B0F8521071B1C16C02680988C1F3AA
:102D400008011185C16C891CC164B0F85210491E7C
:102D5000A0F85210704701680A6822F080020A60E9
:102D60000068016841F0400101607047416F21290E
:102D70000ED1B0F8521061B1C16C026809781185AA
:102D8000C16C491CC164B0F85210491EA0F8521021
:102D9000704701680A6822F080020A6000680168D2
:102DA00041F04001016070472DE9F0419846174617
:102DB0000E460446069D08E0681C06D0FDF7F0FEAE
:102DC000A0EB0800A8420BD855B12068C06936EACC
:102DD000000017D00020B842EED00020BDE8F081FE
:102DE0002068016821F4D07101602068816821F0B9
:102DF0000101816020206067A067002084F87000D6
:102E00000320EBE70120E6E70148FEF79BBF000047
:102E10001C020020FEE700000FB4084B10B504A907
:102E200002AA039800F02CF8044602A9002000F042
:102E3000D4F8204610BC5DF814FB0000DB2F00081E
:102E40000907090E002804DB00F1E02080F80014D7
:102E5000704700F00F0000F1E02080F8141D70476B
:102E600002E008C8121F08C1002AFAD17047704753
:102E7000002001E001C1121F002AFBD170470000B1
:102E80002DE9FF4F89B09B460446002506E0252822
:102E90000BD05A460B999047641C6D1C2078002873
:102EA000F5D10DB0284600F095B80027B8460122AC
:102EB000474900E0074314F8013F203B02FA03F0C2
:102EC0000842F7D120782E2819D114F8010F47F0C5
:102ED00004072A280ED06FF02F022078A0F13001CD
:102EE00009290CD808EB880102EB410100EB01082D
:102EF000641CF2E70A98641C50F8048B0A9020784E
:102F00000028CED0642808D0692806D075281ED0A5
:102F10005A460B9990476D1C58E00A994FF00A09E0
:102F200001C90A91002802DA40422D2102E0390548
:102F300004D52B218DF82010012103E0F90704D0DE
:102F40002021F7E78A4608AE0DE00021FAE70A994A
:102F50004FF00A0901C90A91F7E74946FDF753FB0B
:102F6000303106F8011D0028F7D1ADEB060000F165
:102F70002009780701D44FF00108C84502DDA8EB0D
:102F8000090000E000208046002706E008A85A4615
:102F9000C05D0B9990476D1C7F1C5745F6DB04E024
:102FA00030205A460B9990476D1CB8F10001A8F1EA
:102FB0000108F5DC05E016F8010B5A460B9990471D
:102FC0006D1CB9F10001A9F10109F4DC641C65E78D
:102FD0000928010030BCBDE8C08F0A68531C0B6093
:102FE000107070472DED028B1C4E9FED1D8A1D4DFC
:102FF00006F10C041948FDF7BDFB002006EB80012B
:1030000054F8202091ED000AC0EE080ABDEEE00A57
:1030100010EE101A114444F82010401C0328EDDB78
:103020000021286801F0A0F8012812D1A06800F161
:103030004B01FA2907D800EB800040F2E24101EB96
:1030400040000949086000231A461946286800F024
:10305000DBFF1E2000F068F8CCE70000EC00002049
:1030600000401C4640000020340000201CB5FDF745
:103070008BFB08B1FDF7ACFB0020009003460190EC
:103080004FF4807205A1074801F064F9012803D0CC
:10309000BDE81C40FDF79CBB1CBD00007072696E52
:1030A00074000000E52F000886B0FDF787FDFFF7EC
:1030B0003DFBFFF7BDF8FFF747F9154913480860D6
:1030C0000846FEF7C9FBFFF717F9FFF7F5F80120EF
:1030D00000F020FF0F4C6060012000F01BFFA0609B
:1030E00014220D496846FDF70FF90021684600F0EB
:1030F00027F8206000F03CF800F0D8FAFFF7B6FFA0
:1031000000F096FC00F017F8FEE7000000080650FB
:103110006801002038000020044700080146002014
:10312000842900D0C81C704710B500B9012000F0F8
:103130006DFD002010BD10B500F008FE002010BD90
:103140003EB504460D46B0F90800FFF7E7FF02A9B7
:10315000CDE90001208A2B4682B2D4E9001001F0AB
:10316000F9F8012801D000203EBD02983EBD0000C4
:1031700010B5012000F0CEFE0149086010BD00002E
:10318000000000202DE9F041184C0F460546666905
:103190002068001D00F064FC38B9206890F82C10FD
:1031A00001208840A1698143A161681C07D137B122
:1031B0002168BDE8F0410E48091D00F08BBC206875
:1031C0003544B5424560216805D2A068BDE8F041AC
:1031D000091D00F067BC6068091D00F063FC206BEE
:1031E000854200D22563BDE8F08100008C000020FC
:1031F000B40400202DE9F041054600F077FC2E4C88
:103200002069401C206120682C4F10B1E06940B358
:103210002DE025602069012829D1002606EB8600D3
:1032200007EB800000F030FC761C072EF6D3234815
:103230008C3000F029FC2148A03000F025FC1F480C
:10324000B43000F021FC1D48C83000F01DFC1B48C4
:10325000DC3000F019FC19488C3060601430A0603C
:1032600005E02068E96AC06A884200D82560E06A03
:10327000401CE062E96A0120A26988401043A06115
:1032800001EB810007EB8000291D00F023FC00F01A
:103290004DFCE06900280CD02068E96AC06A8842C9
:1032A00007D207494FF080500860BFF34F8FBFF33C
:1032B0006F8FBDE8F08100008C000020D803002053
:1032C00004ED00E02DE9F041856B17460446002629
:1032D000026C82B1C7B1E068FDF716F8E168206CB6
:1032E000091AE1602268914202D26168081AE0601E
:1032F000022F16D017E02068A8B9606801F0D0F856
:103300000646002060600EE0A068FCF7FDFF216C1F
:10331000A0680844A0606168884204D32068A06067
:1033200001E005B16D1E6D1CA5633046BDE8F0815E
:1033300010B50446006B00F00DFC2046BDE81040BF
:1033400000F008BC0F4842F21071420705D0C01DC2
:103350000C4A20F00700821A891A0B4A0023014404
:10336000C2E900030839103A21F0070111604B60EF
:103370000B600B1AC0E9001393604FF000405360DC
:10338000D0607047C8040020D8000020154E164CAD
:10339000A6F1C8074FF08058DFF8509012E000BF48
:1033A00000F0A4FBF068C568281D00F059FB2069F7
:1033B000401E2061E068401EE06000F0B7FB284638
:1033C000FFF7B6FFE0680028EAD13868012805D980
:1033D000C9F80080BFF34F8FBFF36F8F00F053FB2E
:1033E000F0E70000A00400208C00002004ED00E0C5
:1033F0002DE9F0479A46DDE9098481466FF0030321
:10340000206B03EB82021044089D20F00706700732
:1034100007D0502080F31188BFF34F8FBFF36F8F19
:10342000FEE723180A5C83F834200A5C12B1401CC2
:103430001028F6D3002784F84370072D00D3062503
:10344000E562C4E91157201D00F029FB04F11800C2
:1034500000F025FB2461C5F107006462A061E76408
:1034600084F8507052464946304600F091F9206089
:10347000B8F1000F01D0C8F80040BDE8F0870000A7
:1034800030B5114900E011460A688242FBD34B680F
:103490005C18844203D14068184448600846436879
:1034A0001C18944209D1084C103C2468A24209D04F
:1034B00052681A4442600A6812680260814200D071
:1034C000086030BD0460F9E7D800002010B504465C
:1034D00000F00CFBA06B28B15FF0000400F026FBAD
:1034E000204610BD0124F9E706484168096829B162
:1034F0004168C968C9684968016370474FF0FF3186
:10350000FAE700008C00002008484068401C4FF09B
:10351000500080F3118804D0BFF34F8FBFF36F8F3B
:10352000FEE7BFF34F8FBFF36F8FFEE7E000002091
:103530002DE9F041044600F0D9FA94F9455004F120
:10354000240609E0606A48B1304601F03FF808B14E
:1035500000F08AFB6D1E6DB2002DF3DC4FF0FF36DC
:1035600084F8456000F0E2FA00F0C0FA94F94450A3
:1035700004F1100709E0206948B1384601F026F847
:1035800008B100F071FB6D1E6DB2002DF3DC84F804
:103590004460BDE8F04100F0C9BA00002DE9F041F7
:1035A0000546002700F006FC314E306808B9FFF7E9
:1035B000C9FEF06805424BD1C5B3083568070ED087
:1035C00005F00700C0F108000544680707D0502047
:1035D00080F31188BFF34F8FBFF36F8FFEE72DB3DA
:1035E0007068854234D82248103001460C6801E0EA
:1035F00020460C466168A94202D221680029F7D111
:1036000031688C4224D007682168016060680837FF
:10361000411B10290FD96019420708D0502080F3B0
:103620001188BFF34F8FBFF36F8FFEE710E041604B
:103630006560FFF725FF61687068401A7060B268C6
:10364000904200D2B060F06801430020C4E900015C
:1036500000F0F6FF780707D0502080F31188BFF301
:103660004F8FBFF36F8FFEE73846BDE8F081000053
:10367000C80000200449086818B10868826C521C10
:1036800082640868704700008C000020054D064EDB
:103690004FF08044286860633068A0630A20FFF719
:1036A00043FDF7E730000020340000201CB5354909
:1036B000C86C40F00100C8644FF0904002680022DE
:1036C0000260036843F00A030360036843F02803C1
:1036D0000360036A43F001030362036A43F01003CB
:1036E0000362886D40F0010088654FF080404F21F3
:1036F0008162816940F2033399438161816941F0BC
:1037000008018161816941F400618161816941F44D
:10371000DC618161816941F4DC218161816921F48D
:1037200080618161816921F430618161016841F0CA
:1037300080010160016A41F001010162016A41F00A
:103740001001016244F62061C1623221416381634C
:10375000416941F001014161016921F0010101610B
:1037600001210160009201928215002306A1074801
:1037700000F0F0FD012803D0BDE81C40FDF728B89B
:103780001CBD00000010024070776D008D360008EF
:1037900010B5031F4FF080741C601B1F21F0010146
:1037A0001960191F044B0B6014390A60091F6FF070
:1037B000020244380A6010BD093500082DED028B65
:1037C000674F684DDFF8A091684C84B000264FF039
:1037D00001084FF4FA6AA06A01280DD13A68D4E9C9
:1037E0000110091A491CB2FBF1F301FB1321084433
:1037F000286000F0EBFD2062A9E0A06A0B2809D147
:10380000D4E905235A495B48FFF706FB594800F005
:10381000E1F9A67000F0DAFDE061217899B13A682B
:10382000D4E90110091A491CB2FBF1F301FB132181
:103830000844286000F0CAFD2062267060780028E5
:1038400000D0667080E0216A401A41F288316062DF
:1038500088421CDB84F80080A26A521CA262607855
:10386000002871D1A069401CA0610B2A0AD042A196
:103870004048FFF7D1FA3F4800F0ACF95046FFF757
:1038800053FC61E047A13B48FFF7C6FAF3E728681D
:103890000390FCF788FE83469FED4A8B009153EC22
:1038A000182BFCF70BFE41EC110B009953EC112B7C
:1038B00041EC10BB51EC100BFCF751FDFCF784FE02
:1038C000E060009953EC182B41EC10BB51EC100B4D
:1038D000FCF7F4FD41EC100B009953EC102B41EC7C
:1038E00011BB51EC110BFCF7DBFDFCF76DFE206109
:1038F000D4E90512A06A8DE80700D9F8003033A199
:103900001C48039AFFF788FA1A4800F063F9E16847
:10391000D9F80000814217DB2169814214DC3AA109
:103920001448A26AFFF778FA124800F053F9606968
:10393000401C6061A06A401CA06284F8018050466F
:10394000FFF7F2FB84F800800A20FFF7EDFBA07878
:1039500000287FF452AF1E20FFF7E6FB3BE7000094
:103960000808065030000020340000200400002029
:1039700060470008040100200C20596F75204D4954
:103980005353454420746865207461726765742ED2
:103990002E2E2E2E2E0A0D20526F756E643A202583
:1039A000640000000C20596F75204D495353454465
:1039B00020746865207461726765742E2E2E2E2E19
:1039C0002E0A0D009A9999999999A93F0C20205394
:1039D0006572766F313A20256420536572766F32B6
:1039E0003A20256420526F756E643A202564204881
:1039F0006974733A202564204D69737365733A20A6
:103A000025640A0D000000000C20596F75204869DC
:103A10007420746865207461726765742E2E2E2E72
:103A20002E2E0A0D20526F756E643A202564000018
:103A30001CB500200090034601904FF4807205A150
:103A4000064800F087FC012803D0BDE81C40FCF7C5
:103A5000BFBE1CBD7265666572656500BD37000836
:103A6000D0E9013201699A60D0E901235A604A68BD
:103A7000824201D182684A60002202610868401EC9
:103A8000086008687047704700F108014FF0FF3286
:103A9000C0E90112C160016100210160704700218D
:103AA0000161704730B50B685A1C02D000F1080262
:103AB00002E0026904E02246546825689D42FAD972
:103AC00053684B6099608A60516008610168491CC5
:103AD000016030BD42684A6093688B6093685960AA
:103AE000916008610168491C01607047502080F3B3
:103AF0001188BFF34F8FBFF36F8F0A494868401C8E
:103B0000486001280CD10848006810F0FF0F07D06A
:103B1000502080F31188BFF34F8FBFF36F8FFEE704
:103B200070470000E000002004ED00E0084948680C
:103B300028B1401E486001D180F3118870475020A1
:103B400080F31188BFF34F8FBFF36F8FFEE7000044
:103B5000E000002070B5002827D0144DA0F1080423
:103B60006168E868014207D1502080F31188BFF3F3
:103B70004F8FBFF36F8FFEE722683AB1502080F37A
:103B80001188BFF34F8FBFF36F8FFEE781436160F2
:103B900000F010F960686968084468602046FFF723
:103BA0006FFCBDE8704000F04BBD70BDC800002048
:103BB0004FF0E02000210161816105494FF47A72E4
:103BC0000968B1FBF2F1491E4161072101617047AB
:103BD0005000002070B50B4C05464FF0FF312068B7
:103BE00000F0C2FA2846FCF7B3FB82B22946064829
:103BF000FEF7B8F92068BDE8704000231A46194660
:103C000000F002BA000000201C02002010B50200E3
:103C100014D00F48806B38B1502080F31188BFF367
:103C20004F8FBFF36F8FFEE700F0C4F800211046FE
:103C3000FFF7A8FA00F004FD002807D105494FF06E
:103C400080500860BFF34F8FBFF36F8F10BD00002F
:103C50008C00002004ED00E002498A6A0260496994
:103C6000416070478C000020014901204862704784
:103C70008C00002010B50C4650B109490968183174
:103C8000FFF710FF2046BDE810400121FFF77ABA88
:103C9000502080F31188BFF34F8FBFF36F8FFEE783
:103CA0008C00002070B504004BD0A26CA2B1606CF7
:103CB000884200D30146E06A884242D0012A40D1BE
:103CC000204D2A6894420FD1502080F31188BFF311
:103CD0004F8FBFF36F8FFEE7502080F31188BFF343
:103CE0004F8FBFF36F8FFEE7E162A269002A02DB0C
:103CF000C1F10701A161144E00EB8000616906EB80
:103D0000800081421DD1201DFFF7AAFE012150B97C
:103D1000E06A00EB800256F8222022B9AA6901FA73
:103D200000F08243AA61E06AAA6981401143A96157
:103D300000EB800006EB8000211DBDE87040FFF71E
:103D4000C9BE70BD8C000020D80300201CB51548EA
:103D50000024CDE900402346802213A1144800F03E
:103D6000F9FA012809D0401C1AD1502080F311889B
:103D7000BFF34F8FBFF36F8FFEE7502080F31188A2
:103D8000BFF34F8FBFF36F8F06484FF0FF313438CA
:103D900001630121C1614461BDE81C4000F040B8ED
:103DA0001CBD0000C000002049444C45000000003C
:103DB0008D3300080248816B491C81637047000005
:103DC0008C0000201448816B11B1012141627047C1
:103DD000002141628169B1FA81F1C1F11F0101EB5A
:103DE00081020E4951F822306BB101EB820101F1E1
:103DF00008034A6852684A609A4201D152684A6090
:103E0000D16801607047502080F31188BFF34F8F55
:103E1000BFF36F8FFEE700008C000020D803002066
:103E20001CB537480168374A914207D1502080F3CA
:103E30001188BFF34F8FBFF36F8FFEE700683149E2
:103E4000491E884207D1502080F31188BFF34F8F5D
:103E5000BFF36F8FFEE72C4908780190FF200870B0
:103E600008788DF800009DF800009DF8002000F013
:103E7000F000904207D0502080F31188BFF34F8F9D
:103E8000BFF36F8FFEE79DF80000204B00F050005D
:103E900018700720986005E09DF8002052008DF80A
:103EA0000020401E9DF800201206F5D498600328DB
:103EB00007D0502080F31188BFF34F8FBFF36F8F6F
:103EC000FEE74FF440709860019808700C4820306D
:103ED000016841F470010160016841F070410160C6
:103EE000FFF766FE00205860FCF77CF9084801687F
:103EF00041F040410160FCF761F900201CBD000069
:103F000000ED00E071C20F4100E400E0E00000209D
:103F100034EF00E010B502460021012000F00CF85B
:103F2000041E07D00021416001600B460A46C160B3
:103F300000F06AF8204610BD70B50E46050013D09B
:103F4000D6B105FB06F04830FFF728FB040009D086
:103F500004F1480120468EB10160C0E90F560121ED
:103F600000F00EF8204670BD502080F31188BFF39A
:103F70004F8FBFF36F8FFEE70020E4E70060ECE7B0
:103F800070B50D46040025D0FFF7B0FDD4E90F2031
:103F9000216802FB001161600021A1632168A1601A
:103FA0000A46D4E90F01401E00FB0121E1602146D1
:103FB0004FF0FF3001F8440F487004F110008DB14C
:103FC000FFF762FD04F12400FFF75EFDFFF7AEFD91
:103FD000012070BD502080F31188BFF34F8FBFF3D5
:103FE0006F8FFEE721690029F0D000F0EFFA00287A
:103FF000ECD004494FF080500860BFF34F8FBFF3FF
:104000006F8FE3E704ED00E02DE9FF4782B01D4626
:104010008A464FF00008040003D0BAF1000F08D020
:1040200011E0502080F31188BFF34F8FBFF36F8FE3
:10403000FEE7206C38B1502080F31188BFF34F8F1A
:10404000BFF36F8FFEE7022D0AD1E06B012807D086
:10405000502080F31188BFF34F8FBFF36F8FFEE7BF
:1040600000F0A6F93F4F4FF000094FF0805648B9D5
:10407000049838B1502080F31188BFF34F8FBFF3FD
:104080006F8FFEE7FFF732FDA06BE16B884207D32D
:10409000022D05D00498D0B1B8F1000F1AD01EE05F
:1040A0002A4651462046FFF70DF9616A19B104F11D
:1040B000240000F08BFA20B13E60BFF34F8FBFF3B6
:1040C0006F8FFFF733FD012006B0BDE8F087FFF7E3
:1040D0002DFD22E06846FFF7BFFD4FF00108FFF716
:1040E00025FDFFF767FEFFF701FD94F94400401C32
:1040F00001D184F8449094F94500401C01D184F822
:104100004590FFF713FD04A9684600F0E9F830B1C7
:104110002046FFF70DFA00F093FA0020D4E7FFF7EE
:10412000E5FCA06BE16B884213D1FFF7FFFC04F1C3
:1041300010000499FFF79EFD2046FFF7F9F900F003
:104140007FFA00289ED13E60BFF34F8FBFF36F8F81
:1041500098E7FFF7EBFC2046FFF7EAF900F070FA6A
:1041600090E7000004ED00E02DE9F343002683B062
:104170000400354609D0206C78B1502080F31188B6
:10418000BFF34F8FBFF36F8FFEE7502080F311888E
:10419000BFF34F8FBFF36F8FFEE700F009F9DFF831
:1041A0003C814FF000094FF0805748B9049838B16E
:1041B000502080F31188BFF34F8FBFF36F8FFEE75E
:1041C000FFF794FCA06BC8B1401EA063206810B933
:1041D000FFF750FA6060206950B104F1100000F060
:1041E000F5F928B1C8F80070BFF34F8FBFF36F8F98
:1041F000FFF79CFC012005B0BDE8F083049808B1EE
:1042000066B10FE03DB1502080F31188BFF34F8FAE
:10421000BFF36F8FFEE7FFF789FC5DE06846FFF7AD
:104220001BFD0126FFF782FCFFF7C4FDFFF75EFCD4
:1042300094F94400401C01D184F8449094F945005D
:10424000401C01D184F84590FFF770FC04A9684632
:1042500000F046F80028204612D0FFF769F900F078
:10426000EFF92046FFF732F90028A9D09DB3FFF7F8
:104270003DFC606A50B3206B0068C0F1070126E086
:10428000FFF724F9E0B1206838B9FFF72FFC606828
:1042900000F052F90546FFF749FC04F124000499A7
:1042A000FFF7E8FC2046FFF743F900F0C9F90028C2
:1042B00086D1C8F80070BFF34F8FBFF36F8F7FE7D1
:1042C0002046FFF735F900F0BBF979E70021606877
:1042D000FFF7E8FC9FE7FFE700208CE704ED00E034
:1042E0002DE9F0410C46050011D0C4B1FFF7FEFBEB
:1042F000174B5A696E682068911B471C17D02F68AE
:104300009B6A9F4219D0964217D8012410E0502092
:1043100080F31188BFF34F8FBFF36F8FFEE75020FC
:1043200080F31188BFF34F8FBFF36F8FFEE7002438
:10433000FFF7FCFB2046BDE8F081884205D9401A12
:1043400020602846FFF788FCF1E700202060DCE7CA
:104350008C0000202DE9FF5F8346DDE90E8799463A
:1043600016468A469000FFF719F905001AD0542026
:10437000FFF714F9040012D025630021CDE90241B2
:10438000CDE900874B46324651465846FFF730F894
:104390002046FEF72FFF012004B000F006B82846A3
:1043A000FFF7D8FB4FF0FF30F6E730BCBDE8C09F09
:1043B0000548C16919B1806B18B100207047012010
:1043C00070470220704700008C00002001484069BF
:1043D000704700008C0000202DE9F0412E4C002792
:1043E000A06B40B1206A401C2062606A00B10127C6
:1043F0003846BDE8F0816669761C666113D1606855
:10440000006838B1502080F31188BFF34F8FBFF39D
:104410006F8FFEE76068A1686160A060A06A401CC1
:10442000A062FFF761F8206BDFF87080864209D345
:104430006068006880B16068C068C5686868864266
:104440000DD220632068C06A00EB800158F821007B
:104450000128CAD90127C8E74FF0FF30F1E7281D2E
:10446000FFF7FEFAA86A18B105F11800FFF7F8FA8D
:10447000E86A0121A26981401143A16100EB80013A
:1044800008EB8100291DFFF725FBE86A2168C96A4E
:104490008842CDD30127CBE78C000020D803002031
:1044A00070B504004FF0000140D0214D28688442CF
:1044B00007D0502080F31188BFF34F8FBFF36F8F69
:1044C000FEE7A06C38B1401EA064636CE26A9A42B9
:1044D0002CD040B12AE0502080F31188BFF34F8FD9
:1044E000BFF36F8FFEE7201DFFF7BAFA114A0121D3
:1044F00050B9E06A00EB800352F8233023B9AB696E
:1045000001FA00F08343AB61606CE062C0F1070028
:10451000A061E06AAB6981401943A96100EB8000AA
:1045200002EB8000211DFFF7D5FA0121084670BD7E
:104530008C000020D803002070B504004FF000006C
:1045400038D0204DE16A2A68D26A914233D2A069FC
:10455000002804DB2868C06AC0F10700A0611A4E79
:1045600001EB8101606906EB810188421ED1201DAB
:10457000FFF776FA012150B9E06A00EB800256F8A5
:10458000222022B9AA6901FA00F08243AA612868B0
:10459000C06AE062AA6981401143A96100EB800012
:1045A00006EB8000211DFFF795FA02E02868C06A3B
:1045B000E062012070BD616C2A68D26A9142F8D332
:1045C00070BD00008C000020D80300202DE9F041D0
:1045D000C068C468ACB104F118000746FFF740FAA0
:1045E000154DA86B0126A0B139461448FFF772FAA1
:1045F000E06A2968C96A88421CD901206E62BDE858
:10460000F081502080F31188BFF34F8FBFF36F8F7D
:10461000FEE7201DFFF724FAE16AAA6906FA01F015
:104620001043A86101EB81000449B43901EB80001B
:10463000211DDBE70020E2E78C0000208C04002035
:104640002DE9F0472C4D00242746A86B38B1FFF721
:104650004DFAA86B401EA863A86B40B146E05020FD
:1046600080F31188BFF34F8FBFF36F8FFEE7296987
:10467000224E0120D1B3A6F1B40980463068E8B1DA
:10468000F068C46804F11800FFF7EAF9201DFFF78D
:10469000E7F9E06AAA6908FA00F11143A96100EBA1
:1046A000800109EB8100211DFFF714FAE06A2968F7
:1046B000C96A8842E2D3C5F82480DFE70CB1FEF76F
:1046C00013FF2C6A44B14646FFF786FE00B16E62C6
:1046D000641EF9D100202862686A38B108490127B0
:1046E00038070860BFF34F8FBFF36F8FFFF71EFAD5
:1046F0003846BDE8F08700008C0000208C040020C4
:1047000004ED00E0A4470008F926000800000000BE
:104710000000000080000000000000000000000019
:104720000102030406070809A0860100400D0300EA
:10473000801A060000350C0040420F0080841E00E5
:1047400000093D0000127A000024F40000366E01DA
:104750000048E801006CDC020000000001020304D4
:104760000C2047616D65204F7665722E2E2E0A0D46
:1047700020596F75722073746174732061726520A3
:10478000617320666F6C6C6F77733A0A0D486974B9
:10479000733A2025640A0D4D69737365733A2025B9
:1047A000640A0D0064656661756C745461736B0016
:1047B000D047000800000020EC000000602E000838
:1047C000BC480008EC000020EC2E0000702E000811
:1047D0000000000000000100B80B0000F401000020
:1047E00000000000000000000000000000000000C9
:1047F00000000000000000000000000001000000B8
:1048000000000000000000000000000000000000A8
:104810000000000010000000010000000000000087
:1048200000093D0000000000E9200008CD1F00083D
:10483000292100080D2200081721000897200008F0
:1048400007200008CF1F0008000000000000000043
:104850006F200008472000084121000800000000E8
:104860000000000000000000000000000000000048
:104870000000000000000000000000000000000038
:104880000000000000000000000000000000000028
:104890000000000000000000000000000000000018
:1048A0000000000000000000000000000000000008
:0C48B00000000000AAAAAAAA0000000054
:040000050800018965
:00000001FF
