:020000040800F2
:1000000020330020790200088102000883020008E2
:10001000850200088702000889020008000000002D
:100020000000000000000000000000009D0100082A
:100030008D02000800000000F10100089929000865
:10004000930200089302000893020008930200083C
:10005000930200089302000893020008930200082C
:10006000930200089302000893020008930200081C
:10007000930200089302000893020008930200080C
:1000800093020008930200089302000893020008FC
:1000900093020008930200089302000893020008EC
:1000A00093020008930200089302000893020008DC
:1000B00093020008930200089302000893020008CC
:1000C00093020008930200089302000893020008BC
:1000D00093020008930200089302000893020008AC
:1000E000930200089302000893020008930200089C
:1000F000930200089302000893020008930200088C
:100100009302000893020008D12A00089302000815
:10011000930200089302000893020008930200086B
:10012000930200089302000893020008930200085B
:10013000930200089302000893020008930200084B
:10014000930200089302000893020008D1260008D9
:10015000930200089302000893020008930200082B
:10016000930200089302000893020008930200081B
:1001700093020008930200089302000800000000A8
:100180009302000893020008DFF80CD000F0FAF99F
:1001900000480047CD470008203300202B4B19684A
:1001A000086800F058B880F30988BFF36F8F4FF0EC
:1001B000000080F3118870470000000006480068C6
:1001C000006880F3088862B661B6BFF34F8FBFF353
:1001D0006F8F00DF00BF00BF08ED00E0DFF80C000C
:1001E000016841F470010160704700BF88ED00E0D4
:1001F000EFF30980BFF36F8F144B1A681EF0100FD6
:1002000008BF20ED108A20E9F04F106008B44FF0CD
:10021000500080F31188BFF34F8FBFF36F8F05F04D
:1002200099F94FF0000080F3118808BC196808683C
:1002300000F016B81EF0100F08BF00F016B880F3DB
:100240000988BFF36F8F704700BF00BF28000020F0
:10025000EFF30580704730C8B0E8C04FFFF7A3BF89
:1002600030C8B0E8C04FFFF7E5BFB0EC088AB0EC8B
:1002700008CAFFF7E4BF0000064880470648004769
:10028000FEE7FEE7FEE7FEE7FEE7FEE7FEE7FEE746
:10029000FEE7FEE78D2A0008890100082DE9F05FDE
:1002A0000546002092469B468846064681464024E5
:1002B0001BE0284641464746224600F0F6F85346E2
:1002C0005A46C01A914110D311461846224600F0F2
:1002D000DDF82D1A67EB01084F4622460120002168
:1002E00000F0D4F817EB00094E41201EA4F10104E0
:1002F000DFDC484631462A46434600F000B830BCB1
:10030000BDE8C09F40EA01039B0703D009E008C98C
:10031000121F08C0042AFAD203E011F8013B00F8CA
:10032000013B521EF9D27047421C10F8011B0029F4
:10033000FBD1801A70472DE9F04D81EA030404F0E7
:10034000004B21F0004514464FF0000A23F0004115
:1003500050EA050220D054EA01021DD0C5F30A5725
:100360000246C5F31303C1F31300C1F30A5640F468
:10037000801543F48013A7EB0608101BD64608F23D
:10038000FD3873EB050002D308F1010801E0921873
:100390005B41B8F1000F03DA00200146BDE8F08DA3
:1003A00000204FF48011064684460EE0171B73EBC5
:1003B000050705D3121B63EB050306434CEA010C4A
:1003C00049084FEA300092185B4150EA0107EDD12D
:1003D00052EA030012D082EA040083EA05010843CE
:1003E00005D0101BAB4106D20122002306E00022FB
:1003F0004FF0004302E06FF0010253101AEB0600C9
:100400004CEB085110EB0A0041EB0B01BDE8F04D3D
:1004100000F05BB80EB540F2334102910021CDE906
:1004200000110A460B4600F05FF803B000BDC1F3AF
:100430000A5210B5C1F3130140F2FF3341F48011A9
:100440009A4201DA002010BD40F233439A42A2F2F0
:10045000334203DC524200F028F810BD904010BD3A
:1004600030B50B46014600202022012409E021FA84
:1004700002F59D4205D303FA02F5491B04FA02F581
:100480002844151EA2F10102F1DC30BD202A04DB54
:10049000203A00FA02F1002070479140C2F1200397
:1004A00020FA03F3194390407047202A04DB203AD6
:1004B00021FA02F00021704721FA02F3D040C2F184
:1004C0002002914008431946704710B5141E73F17D
:1004D000000408DA401C41F1000192185B411A4304
:1004E00001D120F0010010BD2DE9F04D92469B4650
:1004F00011B1B1FA81F202E0B0FA80F220329046F6
:10050000FFF7C4FF04460F4640EA0A0041EA0B0128
:1005100053465A46084313D0114653EA010019D0F6
:10052000C8F140025046FFF7C0FF05460E46504650
:1005300059464246FFF7AAFF084305D0012004E0D0
:1005400020463946BDE8F08D0020054346EAE076B6
:100550002C4337430A986305E40AA0EB0800002205
:10056000FD0A44EA47540A3002D500200146E9E773
:10057000010510196941DDE9084500196941BDE827
:10058000F04DA2E7064C074D06E0E06840F001039D
:1005900094E8070098471034AC42F6D3FFF7F8FD13
:1005A000F46200081463000870B50546D0F87403BF
:1005B000C46994F84E0003281BD0042822D1217B63
:1005C000284603F0D5F901281CD1217B284603F0E9
:1005D000BAF981B2A06A884215D0628B8A4212D2DF
:1005E000401AA062206A08442062032084F84E006A
:1005F0000FE0237B628B2846216A02F01DFD042058
:1006000084F84E0070BD002084F84E00284602F0A9
:100610006FFED5F8C803BDE870400022042104F045
:1006200085B9F8B50546D0F874030126C46994F875
:100630004D0001280CD0022818D1617B284603F018
:1006400097F9012813D0022810D184F84D6020E0DA
:10065000228B606A0096637B904200D882B2284663
:10066000E16902F0F9FC022084F84D00F8BD208B0E
:10067000616A0022814206D9091A6162E36918445D
:10068000E061E2D100E0626284F84D20284602F089
:1006900032FED5F8C803BDE8F8400022042104F07A
:1006A00045B9000010B500224FEA020100EB8203B9
:1006B000521CC3F87C130F2AF8D300224FF40073A6
:1006C0008418521C84F81C119A42F9D301704170AD
:1006D00001228270C0F8B8130276402383714176FC
:1006E00080F81C1380F81D23002010BDA122027485
:1006F000212242740022428282820722C28202F0B8
:100700001EBE70B5044600F0F5F80546601C00D02A
:10071000641C00F0EFF8401BA042FAD370BD00004B
:100720002DE9F84FDFF898B100234FF0010C4FF09E
:10073000030A4FF00F090BF1040EB9E00CFA03F4B1
:10074000224070D04D68022D01D0122D0ED1DD084F
:1007500000EB8508D8F820505E07F70E09FA07F677
:10076000B5430E69BE402E43C8F8206007685E009E
:1007700091F804800AFA06F508F00308AF4308FA76
:1007800006F848EA0708C0F800804F68012F05D036
:10079000022F03D0112F01D0122F13D1D0F80880CF
:1007A000CF6828EA0508B74047EA08078760D0F80D
:1007B00004800F7928EA0408C7F300179F4047EA2E
:1007C00008074760D1F804806FEA0807BF0706D121
:1007D000C76AA743C8F3C0049C403C43C462C468D2
:1007E000AC438D68B5402543C5604C68E4005ED5D8
:1007F000344C256E45F001052566246E23F0030573
:1008000004F001040094304C2E19B4689D072F0F9A
:1008100009FA07F5AC43B0F1904F05D02B4DA84233
:1008200004D101251CE042E0002519E0284DA84232
:1008300001D1022514E0274DA84201D103250FE084
:10084000254DA84201D104250AE0244DA84201D13A
:10085000052505E0224DA84201D1062500E0072527
:10086000BD402543B560DBF800405D464E689443CB
:10087000F60300D514432C60DEF8004075464E6840
:100880009443B60300D514432C600D4D08352C68F5
:100890004E689443F60200D514432C60084D0C3585
:1008A0002C684E689443B60200D514432C605B1C40
:1008B0000A6832FA03F57FF441AF00F013B8000084
:1008C0000004014000100240000001400004004804
:1008D00000080048000C00480010004800140048C0
:1008E0000018004818BCBDE8E08F0AB1816170476C
:1008F00081627047014800687047000024000020B2
:10090000D0F8940202F0D4BFD0F8940202F0ECBF09
:10091000006803F005BB006803F006BB01EB810132
:1009200000EBC10090F85C00704701EB810100EB27
:10093000C100C06C704710B5044690F890020128C1
:1009400009D0012084F89002206803F0F8FA002012
:1009500084F8900210BD022010BDFEB50546DDE909
:10096000096095F89042089F012C1ED0012485F85B
:10097000904201EB810405EBC40402F07F0C04F803
:10098000383F20816170E67184F802C04FEAD21CC2
:1009900084F803C027710097CDE90160286803F04F
:1009A0008BFB002185F89012FEBD0220FEBDD0F821
:1009B000940203F025B82DE9F00301EB8104DDE991
:1009C0000689DDE908C700EBC404022684F83B2051
:1009D00084F83F30B8F1000F0AD084F84260002557
:1009E00053B1012B3FD0022B1DD0032B2AD120E085
:1009F000032584F84250F2E7B8F1010F22D10ABB77
:100A0000BCF1000F10D1012284F8512002E084F8DB
:100A1000425001E084F8426094F85C20022A11D030
:100A200084F83D700EE02AB994F85120002AF1D1E3
:100A3000EDE712B194F8502001E094F8512092B102
:100A400084F84260C4E9119C84F85C50E56484F841
:100A5000391084F85D50027C04F138010068BDE86B
:100A6000F00303F099BB84F84250EBE72DE9F04125
:100A7000044600680025064603F05DFA01287DD192
:100A8000206803F09EFC002878D0206803F099FCD1
:100A9000800203D521684FF400104861206803F0FC
:100AA00090FCC00203D521684FF480104861206893
:100AB00003F087FC400103D521684FF08060486156
:100AC000206803F07EFC800702D52168022048617F
:100AD000206803F076FC800010D5D6F8400420F0A2
:100AE0002E00C6F840042046FFF70EFF01212068C3
:100AF00003F04CFC21684FF000504861206803F07F
:100B000060FCC00102D5204601F0CEFB206803F056
:100B100058FC000705D5204600F0B7F821680820EA
:100B20004861206803F04DFC800120D5206803F067
:100B30002CFB07464FF0010812E000BF08FA05F051
:100B400038420CD006EB4510D0F80005E9B200049D
:100B5000204602D501F072F901E001F08FFA6D1C18
:100B6000A068A842EAD821684FF000704861206868
:100B700003F027FCC0060ED5206800E00BE0816979
:100B800021F010018161204601F0E6FB20688169B7
:100B900041F010018161BDE8F08130B58BB00400F7
:100BA00003D094F8910218B108E001200BB030BDD9
:100BB000002084F89002204600F024F8032084F8F6
:100BC0009102206803F068F904F1100128220D4613
:100BD0006846FFF797FB94E80F0003F029F901211D
:100BE000206803F018FC282229466846FFF78AFB94
:100BF00094E80F0003F078FB012084F891020020B4
:100C0000D4E7000010B5006886B0B0F1A04F34D131
:100C10004FF4C05000900220019000200290032069
:100C200003900A20049069464FF09040FFF778FD4A
:100C3000134CE06C40F48050E064E06C00F48050B1
:100C40000590A06DC0000ED4A06D40F08050A0654E
:100C5000A06D00F08050059000F048F9A06D20F0E4
:100C60008050A06501E000F041F9002205214320F9
:100C700000F0D8F8432000F0C9F806B010BD00001D
:100C800000100240006803F0B0BBD0F8940202F0FC
:100C900073BE10B5044690F8900201280DD00120D3
:100CA00084F89002206803F013F90121206803F012
:100CB000F9F8002084F8900210BD022010BD10B594
:100CC000044690F89002012809D0012084F890028F
:100CD000206803F0B6FB002084F8900210BD0220CB
:100CE00010BD000002480168491C01607047000007
:100CF00024000020074810B5016841F480710160AC
:100D0000032000F0AFF8002000F006F800F03EF8F5
:100D1000002010BD0020024000B5014687B000222F
:100D2000322000F07FF8322000F070F81348816D17
:100D300041F008018165806D05A900F0080006906A
:100D4000684600F07FFB00F0A3FB0D490D4AB0FBA5
:100D5000F1F10D48491E0260416040F2E732002186
:100D6000C0E90321816000F0CDFE10B1012007B081
:100D700000BD054800F0E2FEF9E700000010024067
:100D800040420F00000C0040C82100201E4808B55A
:100D9000016E41F001010166016E01F00101009157
:100DA000816D41F080518165806D00F08050009030
:100DB000032000F057F8002211466FF00B0000F0FE
:100DC00031F8002211466FF00A0000F02BF80022E3
:100DD00011466FF0090000F025F800221146501F5F
:100DE00000F020F800221146101F00F01BF800222E
:100DF0000F21901E00F016F800220F21BDE80840D8
:100E0000501E00F00FB800000010024000F01F025A
:100E1000012191404009800000F1E020C0F800115C
:100E200070470000F0B40E4B1B680C46C3F302235E
:100E3000C3F10705042D00D90425191D072901D286
:100E4000002300E0DB1E012606FA05F1491E2140C1
:100E500099409E40761E16403143F0BC01F028BCFC
:100E60000CED00E0064900F0070208684FF6FF03AA
:100E7000184040EA0220034A10430860704700000F
:100E80000CED00E00000FA051549B0F5007F086898
:100E9000C0F3412009D0022805D0086820F4C060C2
:100EA00040F480600860002070470128FBD008688B
:100EB00020F4C06040F4007008600A480A4A0068E4
:100EC000B0FBF2F03222504300E0401E10B14A69FC
:100ED0005205FAD448694005E5D503207047000063
:100EE000007000400000002040420F0002484168AE
:100EF00041F4806141607047007000400248006822
:100F000000F4C060704700000070004002480168B3
:100F100041F0040101607047001002402DE9F84FD4
:100F2000044600270088E54D3E46010504F1200BEC
:100F30001DD5606E78B1B0F5800F11D0B0F5000FFF
:100F400004D0B0F5400F22D001270FE0E86840F44C
:100F50008030E8601BE00021201D01F0BFFB03E0B2
:100F60000021584601F050FC070010D03E46208872
:100F7000C00426D5A06EC0B1B0F1807F1AD0B0F108
:100F8000007F0DD0B0F1407F19D0012718E0D5F8CF
:100F90008800616E20F440000843C5F88800E6E749
:100FA000E86840F48030E86009E00021201D01F08D
:100FB00095FB03E00021584601F026FC0746F7B1F7
:100FC0003E46206880033AD5A86D4FF00008C00067
:100FD00009D4A86D40F08050A865A86D4FF00108B5
:100FE00000F080500090DFF8D8A2DAF8001041F449
:100FF0008071CAF80010FFF77DFC814610E0D5F83B
:101000008800A16E20F040700843C5F88800D8E73A
:10101000FFF770FCA0EB0900022801D9032705E0C7
:10102000DAF80000C005F3D5002F7CD04FEA0706A0
:10103000B8F1000F03D0A86D20F08050A86520788B
:10104000C00707D0D5F88800A16B20F00300084343
:10105000C5F888002078800707D5D5F88800E16BAF
:1010600020F00C000843C5F888002078400707D519
:10107000D5F88800216C20F030000843C5F88800BE
:101080002078000707D5D5F88800616C20F0C000F3
:101090000843C5F888002078C00607D5D5F8880031
:1010A000A16C20F440700843C5F8880020788006C1
:1010B00007D5D5F88800E16C20F440600843C5F8F6
:1010C00088002088800507D5D5F88800E16D20F4D8
:1010D00040200843C5F888002088400507D5D5F88A
:1010E0008800216E20F440100843C5F8880020785D
:1010F000400607D5D5F88800216D20F440500843FC
:10110000C5F888002078000607D5D5F88800616DFD
:1011100020F440400843C5F888002088C00509D560
:10112000D5F8880000E01CE0A16D20F440300843B1
:10113000C5F8880020884FF0006780044FF0806871
:101140004FD5D5F88800E16E20F040600843C5F81F
:101150008800E06EB8423CD1E86840F48010E86056
:101160003FE0D5F8900010F4407015D0D4F884100A
:10117000814211D0D5F89000D5F8901020F440703D
:1011800041F48031C5F89010D5F8901021F48031E9
:10119000C5F89010C5F89000C00710D0FFF7AAFB63
:1011A000074641F2883906E0FFF7A4FBC11B494519
:1011B00001D903263CE7D5F890008007F4D5D5F88F
:1011C0009000D4F8841020F440700843C5F89000D3
:1011D0002EE7404505D10121201D01F07FFA00B125
:1011E00006462068000317D5D5F88800216F20F047
:1011F00040600843C5F88800206FB84204D1E86811
:1012000040F48010E86007E0404505D10121201D31
:1012100001F064FA00B106462068400317D5D5F8FE
:101220008800616F20F040600843C5F88800606F57
:10123000B84204D1E86840F48010E86007E0404517
:1012400005D10121201D01F049FA00B10646208890
:1012500040041AD5D5F88800A16F20F0405008430B
:10126000C5F88800A06FB0F1805F03D0B0F1005FD7
:1012700005D00AE00221201D01F030FA03E002212E
:10128000584601F0C1FA00B106462088000407D58F
:10129000D5F88800E16F20F080400843C5F8880049
:1012A0002068C00307D555F8880FD4F8801020F0C7
:1012B000004008432860304600F004B800100240A7
:1012C0000070004018BCBDE8E08F00002DE9F04739
:1012D000DFF8608105460E46D8F8000000F00700F0
:1012E000B0420CD2D8F8001021F007013143C8F801
:1012F0000010D8F8000000F00700B04275D128783F
:101300004D4CC00757D06868032818D0022819D060
:101310002168D0B14905002967DAA16821F00301ED
:101320000143A160FFF7E6FA6968074641F2883099
:10133000032913D002291FD0814651B336E021681A
:101340008901E8E721688903E5E78907E3E700BF4A
:10135000FFF7D0FAC11B494501D924E08146A068B6
:10136000C0F381000328F3D125E000BFFFF7C2FAE4
:10137000C11B494501D916E08146A068C0F3810030
:101380000228F3D117E000BFFFF7B4FAC11B4945AB
:1013900009D8A06810F00C0FF6D10CE0FFF7AAFAFC
:1013A000C11B494502D90320BDE8F087A068C0F3FE
:1013B00081000128F2D12878800705D5A068A968A6
:1013C00020F0F0000843A060D8F80010404601F07B
:1013D0000701B1420BD9016821F0070131430160D7
:1013E000006800F00700B04201D00120DCE7287857
:1013F000400705D5A068E96820F4E0600843A060D4
:101400002878000706D5A068296920F4605040EAD2
:10141000C100A06000F05CF8A168084AC1F30311A4
:10142000515CC840064908600020FFF775FC0020A9
:10143000BAE70000002002400010024014600008DB
:10144000000000200F2202600C4A936803F003039F
:101450004360936803F0F0038360936803F4E063F0
:10146000C36092684FF4E06303EAD2020261044869
:10147000006800F00700086070470000001002409C
:101480000020024001480068704700000000002072
:101490000448054900688968044AC1F30221515C87
:1014A000C84070470000002000100240546000084F
:1014B0000448054900688968044AC1F3C221515CA7
:1014C000C84070470000002000100240546000082F
:1014D00030B52D49002318468A682C4C12F00C0FA9
:1014E0004FEA640514D08A68C2F38102032A04D14A
:1014F000CA6802F00302012A0AD08A68C2F3810294
:10150000012A19D08A68C2F38102022A16D016E095
:101510000A68120704D4D1F89420C2F3032202E02F
:101520000A68C2F303121A4B53F822308A6812F089
:101530000C0F04D1184602E0204600E028468A68D5
:10154000C2F38102032A1DD1C868CA6800F00300F3
:10155000C2F30212521C022804D0032805D0B3FBA8
:10156000F2F004E0B4FBF2F001E0B5FBF2F0CA687F
:10157000C968C2F306225043C1F34161491C4900C6
:10158000B0FBF1F030BD0000001002400024F40078
:10159000246000082DE9F84304460078FE4DC0069B
:1015A0005DD5A86810F00C0F0AD0A0690028286843
:1015B00071D040F001002860FFF79CF9064654E026
:1015C0002868800702D5A06900287DD0216A286894
:1015D000000703D5286800F0F00004E0D5F8940077
:1015E000F02202EA1010814216D9084601F090F963
:1015F000002869D1286840F0080028602868216A1E
:1016000020F0F000084328606868E16920F47F401A
:1016100040EA0120686015E0286840F00800286072
:101620002868216A20F0F000084328606868E169B2
:1016300020F47F4040EA01206860206A01F068F9E8
:101640000028D6D1FFF744FFA968D44AC1F303119B
:10165000515CC840D24908600020FFF75DFB29E0DB
:10166000FFF748F9801B02287ED828688007F7D545
:10167000286840F0080028602868216A20F0F000FF
:10168000084328606868E16920F47F4040EA01204F
:1016900068600FE0FFE720F001002860FFF72AF9FB
:1016A000064604E0FFF726F9801B0228DCD82868EC
:1016B0008007F7D42078C0074AD0A868C0F381001B
:1016C00002281FD0A86800E098E0C0F3810003283A
:1016D00003D1E868C043800714D06068B0F5803F4C
:1016E00017D0B0F5A02F286817D020F480302860DC
:1016F000286820F4802028606068E0B1FFF7FAF8DD
:10170000064614E02868800322D56068002875D05A
:101710001EE0286840F48030EDE740F48020286027
:10172000F7E700BFFFF7E6F8801B64289CD828681D
:101730008003F7D50CE0FFF7DDF8064605E000BFB3
:10174000FFF7D8F8801B64288ED828688003F7D468
:101750002078800742D5A868C0F38100012816D000
:10176000A868C0F3810000E0A9E0032804D1E8687C
:1017700000F0030002280AD0E068002828681DD085
:1017800040F480702860FFF7B5F806460BE0286843
:1017900040050BD5E0680028B9D007E0FFF7AAF8AC
:1017A000801B0228C2D828684005F7D56868217CCC
:1017B00020F0F85040EA016068600FE020F480708B
:1017C0002860FFF797F8064605E000BFFFF792F89C
:1017D000801B022873D828684005F7D420780007BA
:1017E00029D560690028D5F8940013D040F0010095
:1017F000C5F89400FFF77EF8064606E0FBE000BF60
:10180000FFF778F8801B022859D8D5F89400800794
:10181000F6D510E020F00100C5F89400FFF76AF853
:10182000064604E0FFF766F8801B022847D8D5F883
:1018300094008007F6D42078400763D5A86D002671
:10184000C00008D4A86D40F08050A865A86D01269E
:1018500000F08050009053480168C90511D4016818
:10186000804641F480710160FFF744F8074604E0C8
:10187000FFF740F8C01B022821D8D8F80000C005A7
:10188000F6D5A068012815D00528D5F8900017D006
:1018900020F00100C5F89000D5F8900020F0040079
:1018A000C5F89000A06841F28838C8B1FFF722F867
:1018B000074610E0D5F8900040F00100F0E777E02F
:1018C00040F00400C5F89000F4E700BFFFF712F8FD
:1018D000C11B41456CD8D5F890008007F6D50CE0C7
:1018E000FFF708F8074604E0FFF704F8C11B41457D
:1018F00079D8D5F890008007F6D41EB1A86D20F0F5
:101900008050A865A06AE0B3A968C1F381010329EA
:1019100072D00228286820F08070286011D02868D2
:10192000000106D42868800003D4E86820F0030092
:10193000E860E8681C490840E860FEF7DBFF044601
:1019400054E0FEF7D7FF064605E000BFFEF7D2FFE2
:10195000801B022847D828688001F7D4206BE16AF1
:10196000000110380843616BA26B0902120941EAB9
:1019700042410843A18F0D4A490802EB41510843F7
:1019800000E036E094F840104908120102EB416192
:101990000843E86028680CE000100240146000086A
:1019A0000000002000700040FFFFEEFE0000E0FF9E
:1019B00019E040F080702860E86840F08070E860CE
:1019C000FEF798FF044604E0FEF794FF001B022890
:1019D00009D828688001F7D50BE000BFFEF78AFF21
:1019E000001B022802D90320BDE8F8832868800183
:1019F000F4D40020F8E7FFE70120F5E72DE9F047F0
:101A0000044600790026894601280CD00127277159
:101A10006079B046012808D05FF0010684F80480A0
:101A20003046BDE8F0870220FBE702206071FEF738
:101A300061FF05460BE000BFFEF75CFF401B02287C
:101A400005D90420607184F804800320E9E7206848
:101A50004068C043C007EFD120688068A060C9F823
:101A600000006771DAE710B5040002D0607910B1A8
:101A700006E0012010BD00202071204600F00CF887
:101A8000022060712068016841F0040101600120BA
:101A90006071002010BD000008B50068064988424A
:101AA00008D10648C16C41F48021C164C06C00F4C7
:101AB0008020009008BD0000000806500010024081
:101AC0004FF0E0210428086903D020F004000861E9
:101AD000704740F00400FAE710B5401EB0F1807F77
:101AE00001D3012010BD4FF0E02460610F21601789
:101AF00000F0DEFD0020A06107202061002010BD65
:101B00007047704710B5040003D094F83D0010B141
:101B100007E0012010BD002084F83C00204600F0C2
:101B20000CF8022084F83D00211D206800F0D6FF4B
:101B3000012084F83D00002010BD70470168CA688C
:101B400042F00102CA600068016841F001010160D1
:101B500000207047704770B50446006801694FF077
:101B60000005C943890715D4C168C943890711D441
:101B7000E91E0161012020772068806980072046E6
:101B800002D0FFF7E7FF04E000F098F8204600F0ED
:101B900096F8257720680169C943490717D4C168B9
:101BA000C943490713D46FF0040101610220207773
:101BB0002068806910F4407F204602D0FFF7CAFFFA
:101BC00004E000F07BF8204600F079F825772068E3
:101BD0000169C943090716D4C168C943090712D46A
:101BE0006FF008010161042020772068C069800738
:101BF000204602D0FFF7AEFF04E000F05FF8204679
:101C000000F05DF8257720680169C943C90617D43B
:101C1000C168C943C90613D46FF0100101610820DF
:101C200020772068C06910F4407F204602D0FFF77B
:101C300091FF04E000F042F8204600F040F82577DC
:101C400020680169C943C90708D1C168C943C907E8
:101C500004D1891E0161204600F032F82068016934
:101C6000C943090609D4C168C943090605D46FF000
:101C7000800101612046FFF743FF20680169C943E5
:101C8000490609D4C168C943490605D46FF040012B
:101C90000161204600F01EF820680169C9438906E9
:101CA0000BD4C168C943890607D46FF020010161D4
:101CB0002046BDE87040FFF724BF70BD70477047F5
:101CC00000680349884201D1FFF70CB87047000053
:101CD000000C0040704710B5040003D094F8710068
:101CE00010B107E0012010BD002084F870002046EC
:101CF00000F026F8242084F871002068016821F0A3
:101D000001010160204600F0DBFF0128EBD0606A92
:101D100010B1204600F042FF2068416821F4904154
:101D200041602068816821F02A0181602068016893
:101D300041F0010101602046BDE8104000F092BF73
:101D400000B500680E4987B0884216D10D48816DF4
:101D500041F400318165806D694600F400300590E2
:101D60006020009002200190012002900320039047
:101D7000072004900448FEF7D3FC07B000BD000024
:101D80000044004000100240000C00482DE9F843D8
:101D9000044690F871001F4616460D4620284BD188
:101DA000C5B1BEB194F87000012845D0012084F877
:101DB00070004FF00008C4F87480212084F871008E
:101DC000FEF798FDA4F850608146A4F852604FF4E5
:101DD000805615E00120BDE8F8838021204601F0FF
:101DE000DFF8D8B9A068B04201D12069C0B115F8B8
:101DF000010B21680885B4F85200401EA4F8520077
:101E0000B4F852004B464FF0000200970028E4D18E
:101E10004FF04001204601F0C3F830B10320DAE76B
:101E200035F8020BC0F30800E3E7202084F87100C6
:101E300084F870800020CEE70220CCE72DE9F05F27
:101E400006460068884600EB4814D4F808054FF0B1
:101E5000040B410708EB88004FF0050A4FF010070C
:101E600006EBC00508D5C4F808B5D4F80C0540F059
:101E70000200C4F80C0532E0D4F80805800601D54C
:101E800020202AE0D4F808054FF00809000710D5F3
:101E9000D4F80C0540F00200C4F80C0585F85DA0EC
:101EA000C4F80875C4F808954146306802F047F850
:101EB00015E0D4F80805400511D5D4F80C0540F01C
:101EC0000200C4F80C054146306802F038F8C4F846
:101ED000087585F85D904FF48060C4F80805D4F863
:101EE000080580050ED5D4F80C0540F00200C4F8B2
:101EF0000C05414604F5A164306802F020F84FF467
:101F000000708DE0D4F808054FF00001C0074FF0D5
:101F1000010236D0306930B1A86CD4F81035C3F363
:101F20001203C01AE86485F85D20A965C4F8082585
:101F300095F83F0020B1022802D003280ED019E006
:101F4000D4F80C0540F00200C4F80C05414604F535
:101F5000A164306801F0F3FF27600BE0D4F80005BE
:101F600040F00050C4F8000585F85C20414630463A
:101F7000FEF71DFD15F8500F80F00100287000F0ED
:101F80007AB8D4F80805800733D5D4F80C0520F0CA
:101F90000200C4F80C0595F85D000223012806D064
:101FA000052807D0062808D0082806D018E085F8AC
:101FB0005C2015E085F85CA012E0A86D421CAA65C3
:101FC000032803D9A96585F85CB001E085F85C3089
:101FD000D4F8000520F0804040F00040C4F800052F
:101FE000C4F8083595F85C2041463046FEF7DFFC22
:101FF000C5E7D4F80805000614D5D4F80C0540F060
:102000000200C4F80C05A86D4146401CA8650620D6
:1020100085F85D0004F5A164306801F090FF802030
:102020002060ACE7D4F80805C006A8D595F83F00B5
:10203000032809D1D4F80C0540F00200C4F80C05BF
:102040004146306801F07BFF032085F85D00C4F84D
:10205000087595F83F0008B1022890D1D4F8000522
:1020600020F08040C4F80005D4F8000540F000409E
:10207000C4F8000583E730BCBDE8C09F2DE9F047F8
:10208000026802EB4114D4F808254FF0040C520703
:1020900009D5C4F808C5D4F80C0540F00200C4F80E
:1020A0000C05BDE8F087D4F8082501EB8103920602
:1020B0004FF0020600EBC30514D52022C4F8082512
:1020C00095F83D20012AECD185F85DC0D4F80C25A7
:1020D00042F00202C4F80C25006801F030FF85F8D8
:1020E0005C60DEE7D4F808254FF0000352060FD5F8
:1020F00085F85DC0AB65D4F80C2542F00202C4F847
:102100000C25006804F5A16401F019FF402010E0DF
:10211000D4F8082592050ED5D4F80C2542F0020219
:10212000C4F80C25006804F5A16401F008FF4FF421
:1021300000702060B5E7D4F808254FF00108D207F9
:1021400010D0AB65D4F80C2542F00202C4F80C257F
:10215000006804F5A16401F0F2FEC4F8008085F87F
:102160005D809EE7D4F808254FF0080912074FF06C
:10217000050A0DD5C4F80895D4F80C2542F00202E2
:10218000C4F80C25006801F0DAFE85F85DA088E748
:10219000D4F808254FF01007D20610D5AB65D4F857
:1021A0000C2542F00202C4F80C25006804F5A16475
:1021B00001F0C5FE032085F85D00276071E7D4F8C3
:1021C000082512060FD5D4F80C2542F00202C4F8F7
:1021D0000C25006804F5A16401F0B1FE062085F825
:1021E0005D008020A5E7D4F80825520511D5D4F864
:1021F0000C2542F00202C4F80C25006804F5A16425
:1022000001F09DFE27604FF48060206085F85D90AE
:1022100047E7D4F8082592078CD5D4F80C2522F08E
:102220000202C4F80C2595F85D20012A0AD0032A81
:1022300015D0042A16D0052A19D0062A1AD0082A41
:1022400018D02AE085F85C8095F83F20022A24D136
:1022500095F8512082F0010285F851201DE085F8A3
:102260005C601AE085F85C6085F83D3015E085F823
:102270005CA012E0AA6D571CAF65032A03D9AB65B9
:1022800085F85CC001E085F85C60D4F8002522F098
:10229000804242F00042C4F80025C4F8086595F871
:1022A0005C20FEF784FBFCE67CB505680446D5F8A7
:1022B00040040190D5F8400420F02E0000900198D1
:1022C00080070DD50198C00706D0A86920F00051FD
:1022D000A9612046FEF714FB009840F00200009030
:1022E0000198000727D5009840F008000090019859
:1022F00040072AD5A069012803D0E06803280CD044
:102300000FE00198C0F341400228206803D001216A
:1023100002F03CF805E00221FAE74EF66020C5F82D
:1023200004042046FEF7ECFAE06820B920688169D1
:1023300041F00051816101988006009802D540F07B
:1023400020000090C5F840047CBDD5F8400420F082
:102350002E00C5F84004E9E72DE9F0410246006887
:102360000646016AC1F3434301F00F07C1F30A14A3
:10237000022B25D1002C23D007EB870102EBC105EE
:10238000696C00291CD0224602F01FF8686C2044BA
:102390006864E86C2044E86406EB4710D0F8101538
:1023A000084A11420CD0D0F8001521F0804141F0CC
:1023B0000041C0F8001515F8500F80F0010028709A
:1023C000BDE8F0810000F81F28B100224FF4007131
:1023D0000248FEF78ABA0122F8E700000008004828
:1023E00000B585B0142206496846FDF78BFF002131
:1023F000684602F0D3FA0349086005B000BD00004A
:1024000078600008880000202DE9F04F734887B0FD
:10241000C16C41F01001C164C16C01F01001059163
:10242000C16C41F00401C164C16C01F0040105916B
:10243000C16C41F08001C164C16C01F08001059163
:10244000C16C41F00101C164C16C01F00101059151
:10245000C16C41F00201C164C16C01F0020105913F
:10246000C16C41F00801C164C06C002200F008009A
:10247000059040F209115A48FEF737FA00220C2164
:102480005848FEF732FA012251025748FEF72DFA5A
:1024900000224FF400615448FEF727FA0022802101
:1024A0005248FEF722FAF4200226CDE9000602AADD
:1024B00000244FF003084FF00D0982E8100369462D
:1024C0004748FEF72DF94FF0080B0125CDF800B075
:1024D0000396CDE9015469464148FEF721F9444F7E
:1024E0004FF41050CDE90007694602943E48FEF7CC
:1024F00017F90720CDE9000469463B480294FEF72E
:102500000FF92F208DE851004FF0904A6946504650
:10251000FEF706F91020CDE90007694602945046FF
:10252000FEF7FEF80420CDE90005CDE90258694622
:102530002C48FEF7F5F84FF4807ACDE900A5CDE9F7
:10254000025869462648FEF7EBF868020090CDE98C
:102550000164CDE9034969462148FEF7E1F84FF4EB
:1025600020600090CDE9015469461F480394FEF7AE
:10257000D7F80520CDE90007694602941B48FEF70D
:10258000CFF88020CDE90005CDE90248694617481B
:10259000FEF7C6F8CDF800B0CDE901546946114800
:1025A0000394FEF7BDF8CDF800A0CDE901746946AB
:1025B0000C48FEF7B5F80095CDE901546946084886
:1025C0000394FEF7ADF80096CDE90174694604481E
:1025D000FEF7A6F807B000F00DB8000000100240AA
:1025E000001000480004004800080048000C0048A3
:1025F0000000121030BCBDE8C08F0000084910B5C3
:10260000064808600846FFF72EFA002805D0BDE806
:102610001040422103A001F085BF10BD0008065004
:10262000142D00202E2E2F5372632F726E672E638F
:10263000000000000E4810B50C4901604FF4E13174
:102640004160002181600C22C160C0E904128161F7
:10265000C16101624162FFF73EFB002805D0BDE881
:1026600010404E2103A001F05DBF10BD00440040AA
:10267000CC2800202E2E2F5372632F757361727435
:102680002E63000010B501220649074801F0CCF87E
:102690000649054801F07CFBBDE81040024801F006
:1026A000ACBB0000113E00084429002004000020BB
:1026B0000907090E002806DA00F00F0000F1E020FB
:1026C00080F8141D704700F1E02080F80014704776
:1026D0000148FEF7CBB90000342600202DE9F04177
:1026E000444C05468846E0680026810728680DD0DE
:1026F000E16801F00301814216D1A8B1E068696880
:10270000C0F30210401C88420ED120E0012804D002
:10271000022805D0032807D108E02168890701E0D5
:1027200021684905002907DB01265FE0216889034C
:1027300002D421684903F5E7E1686A686FF00F0386
:1027400021F0730103EB021211430143E1602068A1
:1027500020F080602060FEF7CDF8074605E000BF5E
:10276000FEF7C8F8C01B022837D820680001F7D44C
:10277000B8F1000F18D0B8F1010F1ED0287D4FF02E
:102780007E41400801EB4060A96840EA01202169D0
:10279000194A114008432061206840F080602060A1
:1027A000FEF7A8F807461AE0A868E96800020909D8
:1027B00040EA41402169114AEBE7288A1049400864
:1027C00001EB4050A96840EA012021690D4AE0E789
:1027D000FEF790F8C01B022801D9032606E0206806
:1027E0000001F5D52069A969084320613046BDE89C
:1027F000F081000000100240FF80FFF9FF80FDFF24
:102800000000E0FFFF809FFF2DE9F0413D4C0646B0
:102810008846E0680025810730680DD0E16801F046
:102820000301814216D1A8B1E0687168C0F30210BB
:10283000401C88420ED120E0012804D0022805D097
:10284000032807D108E02168890701E021684905CC
:10285000002907DB012551E02168890302D42168A2
:102860004903F5E7E16872686FF00F0321F0730127
:1028700003EB021211430143E160206820F0805015
:102880002060FEF737F8074605E000BFFEF732F894
:10289000C01B022829D820688000F7D4B8F1000FA7
:1028A00015D0307C4FF07E41400801EB4060B168AC
:1028B00040EA01206169144A1140084360612068C0
:1028C00040F080502060FEF715F807460FE0B06832
:1028D000F1680002090940EA414061690B4AEBE7EF
:1028E000FEF708F8C01B022801D9032506E020687E
:1028F0008000F5D560697169084360612846BDE8CC
:10290000F081000000100240FF80FFF9FF80FDFF12
:10291000F8B51C4D06460024A86DC00002D5FEF790
:10292000EDFA0DE0A86D40F08050A865A86D00F0AC
:1029300080500090FEF7E2FAA96D21F08051A96560
:10294000B0F5007F04D0802E07D94FF003040AE0D1
:10295000802E08D9A02E01D804E001D1022402E083
:10296000702E00D101240848016821F0070121439D
:102970000160006800F00700A04201D00120F8BD0E
:102980000020F8BD0010024000200240FFF77AFE50
:10299000012001F06BFFFBE701F0F6BFF0B5354811
:1029A000B9B050F8901F21F01801016001261C20D9
:1029B0002796249600242290CDE9286402256020E1
:1029C000CDE92C562A9014200727CDE92E60CDE9B9
:1029D0003075329522A8FEF7DDFD10B14FF40E716F
:1029E00030E00F203390032034908020CDE935046F
:1029F000012133A83794FEF769FC10B140F246215B
:102A000020E00F94149415941B484FF40074009028
:102A100060041D901B9021941820CDE9026001965E
:102A2000E002CDE90650CDE904756846FEF776FA76
:102A300010B140F25B2105E02046FEF725FA20B1F7
:102A400040F262210DA001F06DFDFEF71BFD4FF479
:102A50007A71B0FBF1F0FFF73FF80420FFF730F890
:102A6000FEF754FA00220F21501EFEF7DBF939B0B1
:102A7000F0BD000000100240C22006002E2E2F5391
:102A800072632F6D61696E2E630000000D4801684E
:102A900041F4700101600C48016841F001010160DE
:102AA000002181600268094B1A4002608214C260F2
:102AB000026822F48022026081610249C0038039E9
:102AC0000860704788ED00E000100240FFFFF6EA62
:102AD0000148FFF740B80000C82100202DE9F04769
:102AE0000268264B264D274E274F284C4FF0804A30
:102AF000984209D0504507D0A84205D0B04203D033
:102B0000B84201D0A04204D122F0700C4A6842EAD7
:102B10000C02DFF87CC0DFF87C80DFF87C90984204
:102B20000FD050450DD0A8420BD0B04209D0B842CA
:102B300007D0A04205D0604503D0404501D04845AC
:102B400003D122F44075CA682A4322F080054A69FD
:102B50002A4302608A68C2620A688262984207D089
:102B6000A04205D0604503D0404501D0484501D181
:102B70000969016301214161BDE8F087002C014032
:102B80000004004000080040000C004000340140F8
:102B900000400140004401400048014090F82410EA
:102BA000C90706D001684A68836A22F400321A43D2
:102BB0004A6090F82410890706D501684A68C36AFC
:102BC00022F480321A434A6090F82410490706D54F
:102BD00001684A68036B22F480221A434A6090F825
:102BE0002410090706D501684A68436B22F40042A5
:102BF0001A434A6090F82410C90606D501688A680D
:102C0000836B22F480521A438A6090F8241089065C
:102C100006D501688A68C36B22F400521A438A60A1
:102C200090F82410490611D501684A68036C22F413
:102C300080121A434A60016CB1F5801F06D1016809
:102C40004A68436C22F4C0021A434A6090F8241088
:102C5000090606D501684A68806C22F40022024306
:102C60004A607047F8B5002604464667FDF742FE05
:102C70000546206800686FF07E47000708D52B46A0
:102C800000224FF400112046009700F089F960B946
:102C90002068006840070AD52B4600224FF48001C7
:102CA0002046009700F07CF908B10320F8BD2020F1
:102CB00084F8710084F8720084F870600020F8BD18
:102CC0002DE9F0410446016880682369E6691843EC
:102CD00063691025002733431843954A0B68954EC6
:102CE000334003430B6020684168E36821F440519E
:102CF000194341602168A069914201D0236A1843B9
:102D00008B6823F4306303438B608B4B21688B48C3
:102D100099420DD1D0F8880010F0030006D00128A8
:102D20005AD0022856D0032859D157E0012556E041
:102D3000834B99420BD1D0F8880010F00C0047D09B
:102D4000042849D0082845D00C2848D146E07D4BBE
:102D500099420BD1D0F8880010F0300038D01028FC
:102D60003AD0202836D0302839D137E0764B9942F6
:102D70000BD1D0F8880010F0C00029D040282BD00B
:102D8000802827D0C0282AD128E0704B99420ED144
:102D9000D0F8880010F440701AD0B0F5807F1BD0B6
:102DA000B0F5007F16D0B0F5407F18D116E0914203
:102DB00015D1D0F8880010F4406009D0B0F5806FCC
:102DC0000AD0B0F5006F05D0B0F5406F07D105E02F
:102DD000002504E0022502E0042500E008255C4B04
:102DE00000264FF4004091423DD135B1022D07D06D
:102DF000042D07D0082D10D107E0FEF749FB03E0B2
:102E0000184602E0FEF764FBA8B3626802EB4201D9
:102E1000814202D8B0EB023F01D9012775E0DFF80B
:102E200034815DB1022D0CD0042D13D0082DF4D1C6
:102E300050082905401846F1000105E0FEF728FB7F
:102E40000AE050084449F5E70023FDF727FAA0F50A
:102E5000407156E0FEF73CFB6268010E0302500829
:102E600018187141F0E7E1694FF6EF7881422FD1F0
:102E7000092DD2D200E048E0DFE805F00609200580
:102E8000230505052600C8E7FEF702FB01E0FEF773
:102E90000FFB4100D4F8040001EB5001B1FBF0F04E
:102EA00080B2A0F110014145B7D84FF6F071014052
:102EB000C0F3420001432068C16026E027496068F2
:102EC000EAE7FEF705FBE4E74FF480316068E3E7EB
:102ED000092DA2D2DFE805F006091E052205050529
:102EE00025009AE7FEF7D4FA01E0FEF7E1FA014681
:102EF000606801EB500100BFB1FBF0F080B2A0F1BF
:102F00001001414589D82168C86026663846666642
:102F1000BDE8F081606803EB5001EDE7FEF7D8FAF9
:102F2000E5E7616800EB5100B0FBF1F0E6E7000077
:102F300000800040F369FFEF0038014000100240BC
:102F40000044004000480040004C00400050004059
:102F50000024F400FFFC0F00000024F40048E80106
:102F600070B50C4C054600230A221946606B02F02E
:102F700033FC2846FDF7D8F982B2074B29460748AB
:102F8000FEF704FF606BBDE8704000231A46194647
:102F900002F020BD8C00002040420F00CC28002011
:102FA0002DE9F041984617460E460446069D1DE061
:102FB000681C1BD02DB1FDF79DFCA0EB0800A842BA
:102FC00014D92068016821F4D071016020688168FB
:102FD00021F001018160202084F8710084F87200E2
:102FE000002084F870000320BDE8F0812068C069EB
:102FF00036EA000004D00020B842D9D00020F3E720
:103000000120F9E710B500224FF6FF7300EB8204B0
:10301000B4F87C43240409D49A4205D000EB820022
:1030200041F40041C0F87C13D0B210BD521CD2B2A2
:103030000B2AEBD31A46F7E77FB51C46012501AEF4
:103040000023009586E80E0002232A46214600F060
:1030500038FD04B0002070BD7FB51D4690F81D33CB
:10306000089C03B100240123CDE90031CDE90224FD
:1030700002230022294600F024FD04B0002070BD88
:1030800070B50446D0F87403C16920464031FDF79D
:103090002DFB050004D1D4F8C4230221204690471B
:1030A000284670BD70B50546D0F874030026C46983
:1030B000217839B1284600F01FF92178284600F020
:1030C000AAF92670217B39B1284600F015F9217B39
:1030D000284600F0A0F92673617B39B1284600F03C
:1030E0000BF9617B284600F096F96673D5F87403F6
:1030F000C06920B101F03CFBD5F87403C661002023
:1031000070BDFEB50227054601233A46394600F058
:1031100060F90646FF287ED00146284600F046FEAC
:10312000502001F06DFBD5F874130446C86106EB1E
:10313000860000EBC60005EB400090F848130A0635
:1031400003D56170B0F84A03608161782846FFF7C3
:1031500059FF2070014695F81D03638903228DE80D
:103160000D0095F81C336278284600F0C2FC2178E7
:103170000022284600F075FC00231A460A21284642
:1031800000F027F9FF2854D000EB800101EBC000CC
:1031900005EB400090F848130A0604D5E173B0F837
:1031A0004A13618303E0A173B0F84A13218390F8B6
:1031B00050130A0604D5E173B0F85203608303E0AC
:1031C000A173B0F852032083A17B2846FFF71AFFB2
:1031D0006073E17B2846FFF715FF2073208B95F87D
:1031E0001D1302260091CDE9016095F81C33A27BE6
:1031F000617B284600F07DFC608B95F81D130091E3
:10320000CDE9016095F81C33E27B217B284600F074
:1032100070FC002000E00CE084F84C000246617B6A
:10322000284600F01EFC217B0022284600F019FCF5
:1032300000273846FEBD70472DE9F0410546D0F81D
:10324000740301270026C4694FF0040894F84C0069
:1032500005284AD2DFE800F00305163B42000027AC
:1032600043E02122A16C2A7420226A746E82AE820D
:1032700007222846EA8200F062F848B9022084F862
:103280004C0032E004F140012846FDF72FFA20B14E
:1032900001282AD084F84C8027E084F84C60A06C88
:1032A00094F84410027991421FD194F84610827923
:1032B00091421AD194F845104279914215D1216C6E
:1032C0000068814211D12846FFF7B5FF0DE028467E
:1032D000FDF7A7F92846FDF767F906E00021284623
:1032E00000F00FF808B984F84C603846BDE8F0816A
:1032F000704700207047704710B500F0C9FA0020F1
:1033000010BD8278012A07D1022202740122427480
:10331000002242828182C2820022114600F00FB850
:103320007FB51C46012501AE0023009586E80E00FE
:103330002A46214600F0C5FB04B0002070BD70B5E0
:103340000446012580782E46012802D0022819D192
:103350000BE0A160A28126760220A070002203214A
:10336000D4F8C80301F0E2FA0CE0204600F007F9B7
:10337000050002D0022D04D004E0A67000202076C3
:1033800000E0A670284670BD7FB51D4690F81D333D
:10339000089C03B100240123CDE90031CDE90224CA
:1033A00000231A46294600F08CFB04B0002070BDB3
:1033B0001FB500231446CDE900310822CDE90223D0
:1033C0001A46214600F07DFB04B0002010BDFDF739
:1033D00098B970B5002400F2323004EB840505EB97
:1033E000C40500EB4505EE7B0A358E4201D0FF296E
:1033F00009D1AE79964201D0FF2A04D1ED799D42E0
:1034000007D0FF2B05D0641C64B2022CE5DBFF2043
:1034100070BDE0B270BD0B2907D200EB8100B0F89F
:103420007C13C1F30E01C0F87C130020704730B448
:103430008578029C012D0FD141F080010174062195
:10344000417403214282B1EB122F02D140F20941B3
:1034500000E000218182C482224630BC1946FFF779
:103460006EBF0A8803781A440A80017808447047BE
:10347000F8B50E4600F11C05009104462B464FF4AA
:1034800000720021FFF7D3FF070005D1324629461D
:1034900004F2323000F037FB3846F8BD38B50D463F
:1034A0000091044600F58E734FF480720021FFF7FF
:1034B000BEFF01003DD104F5487094F81C21027054
:1034C00094F81D21427094F81E2194F81F31082DA4
:1034D00002EB0322428094F82021027194F821210A
:1034E000427194F82221827194F82321C27120D96B
:1034F00094F8242194F8253102EB0322028194F8F8
:10350000262194F8273102EB0322428194F82821E6
:1035100094F8293102EB0322828194F82A218273E4
:1035200094F82B21C27394F82C21027494F82D2165
:103530004274084638BDF8B51C461646009341F45F
:10354000407200F58E731D460021FFF770FF0028C2
:1035500014D16978032911D129788A1EA24200DC8E
:1035600014460021A2B2AD1C04E06B5C891C06F875
:10357000013B89B29142F8D300213170F8BD2DE9A9
:10358000F84F04460125007E0B262F464FF0090810
:103590004FF007094FF0050B4FF00D0A0C2837D2FA
:1035A000DFE800F0B0060E2B37414D606B7A879C48
:1035B000627904F110012046FFF7FAFE022026E0AE
:1035C0006179204600F0D4F901287AD1207CE18A83
:1035D00000F0800039B1802802D10320207676E007
:1035E00084F818B073E0802802D184F818806EE067
:1035F00084F818906BE0267669E0D4F8B803E0818F
:103600002379A2892046A168FFF78AFE042020764C
:1036100078E02179204600F0ABF90128E5D00528B3
:103620004FD1032553E000976379A2892046A16812
:10363000FFF7AAFED4F8B803E0810620E7E7617936
:10364000204600F095F90128D2D0052804D00228A0
:10365000C6D0042803D055E00C202076E1E726767A
:10366000022534E00022237911462046FFF758FE58
:10367000D4F8B803E0810820C9E72179204600F09A
:1036800077F9012804D00428B5D00528C9D039E03D
:1036900084F818A000251AE00097002263791146EB
:1036A0002046FFF771FED4F8B803E0810A20AEE7A8
:1036B00007E06179204600F05BF9012804D0022878
:1036C00093D0042897D01DE0002584F818A000228C
:1036D0000321D4F8C80301F029F913E0607E401CEF
:1036E000C0B26076022805D8204600F0DAF92776C5
:1036F000A77007E0D4F8C423062120469047002095
:1037000060760225284600F000B818BCBDE8E08FBE
:10371000FEB50446012640780025374604F58E7232
:1037200008287ED2DFE800F004161E454C55606C78
:1037300008212046FFF7B2FE002872D194F8270333
:10374000A071677094F81D130091CDE9015094F8B1
:103750001C331BE012212046FFF7A0FE002860D199
:10376000022034E00121204600F02BFB002858D134
:103770000220FFF72CFE84F81C7303206070A079F0
:1037800094F81D13CDE900153B4602902179802263
:10379000204600F0AEF9A07994F81D130091CDE910
:1037A000015094F81C3361790022204600F0A1F901
:1037B00037E009212046FFF75BFE00BB042006E04E
:1037C000B4F834132046FFF753FEC0B905206070EB
:1037D00027E094F82E13062521B1FF232046FFF79A
:1037E000AAFE60B9657016E094F82F13072500292A
:1037F000F8D0FF232046FFF79EFE00B9657010E069
:1038000094F8301331B1FF232046FFF794FE40B9FE
:10381000002606E0002600220521D4F8C80301F0A6
:1038200085F83046FEBD000030B587B00D46040077
:1038300029D084F8BC230020C4F87403C4F87803AA
:103840002046FCF72FFF0DB1C4F8C4530F49D1E94E
:103850000001CDE90501002105A801F013F80B498D
:10386000C4F8C803142208316846FCF74BFD214612
:10387000684601F093F8C4F8CC03204600F08CF8B9
:10388000002007B030BD0220FBE700005C600008AC
:1038900010B50024D0F8C003FDF74DF830B1012871
:1038A00001D0022801D0022400E00124204610BDEE
:1038B00010B50446007818B1207801280AD00BE032
:1038C000012084F81E03D4F8C4232AB10421204621
:1038D000904701E00220207000220121D4F8C803A3
:1038E00001F024F8002010BD10B5044600F0D9F80E
:1038F00021792046FFF78FFD61792046FFF78BFD88
:10390000002084F81E03D4F8C42312B105212046F8
:103910009047204600F0B5F80320207000220121D6
:10392000D4F8C80301F002F8002010BD10B590F8DB
:10393000BC03012802D10846FEF746FDC820FCF76B
:10394000E0FE002010BDD0F8C003FCF7EEBF10B5BC
:103950000124D0F8C003FCF7DEFF20B1012805D018
:10396000022803D101E0002400E00224204610BD1B
:10397000D0F8C003FCF7D2BFD0F8B813491CC0F888
:10398000B81301780A2905D1D0F87413002901D0A1
:10399000896908477047000010B5044690F8BC03D9
:1039A00001281ED110484FF0A0410022C0F89442D7
:1039B000C4F8C0030160082181600321C0E903123B
:1039C0000121C0E90612FDF7E8F818B1F22107A0BD
:1039D00000F0A8FD0448FCF79BFF0146204600F0DC
:1039E0003DF8002010BD0000342600202E2E2F535D
:1039F00072632F757362685F636F6E662E6300007B
:103A000010B5D0F8C8030022022100F08FFF00207B
:103A100010BDFEB508AC94E8E0008DE8E00000249D
:103A2000D0F8C003FCF799FF30B1012801D002287B
:103A300001D0022400E001242046FEBD10B5002480
:103A4000D0F8C003FDF71EF930B1012801D00228DB
:103A500001D0022400E00124204610BDC0F8B813B4
:103A60007047D0F8C00301EB810100EBC10090F872
:103A70003B1011B180F8502001E080F85120002067
:103A8000704710B50024D0F8C003FDF702F930B13B
:103A9000012801D0022801D0022400E001242046A0
:103AA00010BD10B50024D0F8C003FDF708F930B1FF
:103AB000012801D0022801D0022400E00124204680
:103AC00010BD2DE9FF410AAC94E8E0108DE8E0104C
:103AD0000024D0F8C003FCF76EFF30B1012801D0FC
:103AE000022801D0022400E0012404B02046BDE8F1
:103AF000F081FEB508AF97E870008DE87000FFF721
:103B000088FF0020FEBD2DE9F84105460B782B709B
:103B10004B786B708B78CC78084603EB04236B8072
:103B20000B792B714B796B718B79AB71CB79EB7115
:103B30000027017A2972092A57D90921ADF8001006
:103B40004EE06946FFF78DFC4178042946D107EB2A
:103B5000870101EBC70105EB4108017888F80A10DD
:103B6000417888F80B10817888F80C10C17888F8B3
:103B70000D10017988F80E10417988F80F108179BD
:103B800088F81010C17908F10A0488F81110017A38
:103B90002172002618E06946FFF763FC4178052989
:103BA00012D108EBC60102780A7542784A7582780C
:103BB0008A75C278CA7502794379761C02EB0322B2
:103BC0000A8382798A7676B22179B14204DD6988E6
:103BD000BDF800209142DED87F1C7FB2022F04DAAC
:103BE0006A88BDF800108A42ABD8BDE8F881FEB5FE
:103BF000044602208DF800002178002008270C26BA
:103C000005460B2955D2DFE801F006B017A5B046EE
:103C10008E555D659E0094F81E03002849D0012052
:103C20002070C820FFF7D3FB2046FFF707FF0022D4
:103C30000121D4F8C80373E06420FFF7C8FB2046D5
:103C4000FFF785FE84F81D03052020700021204623
:103C5000FFF7D8F9607180212046FFF7D3F9207172
:103C60000146A07994F81D230092CDE9015094F803
:103C70001C3380222046FFF73CFFA07994F81D13E7
:103C80000091CDE9015094F81C336179002220465F
:103C9000FFF72FFFCBE72046FFF73AFD002864D15E
:103CA00084F81F5394F83103012801D0072046E01F
:103CB00027705AE0D4F8C423A2B3012120469047CC
:103CC000277029E094F83713204600F088F848BBA5
:103CD000092034E0D4F87813F1B1C4F8745394F89F
:103CE000412304EB8001D1F870130B79934201D189
:103CF000C4F87413401C10F0FF00F2D0D4F8740321
:103D0000F8B1816820468847D8B906202070D4F8D9
:103D1000C42303212046904700220521D4F8C8037C
:103D200000F004FE21E0D4F8740350B1016920468C
:103D300088478DF800009DF80000B0B90A20207077
:103D400013E02670E8E7D4F8740370B141692046A7
:103D500088470AE02046FCF7A5FCD4F8740320B19C
:103D6000C16820468847C4F874530020FEBD0EB5D4
:103D700004464FF0FF352A466846D4F8C81300F0D1
:103D800085FD00981028F6D12046FFF730FFF2E7B6
:103D9000002211B1D0F8783313B1022210467047D7
:103DA0000123C0F87833C0F87013F7E7024600200B
:103DB00092F836338B4202D982F81F1370470220E3
:103DC00070478278012A06D10022027405234374C9
:103DD00041828282C28200221146FFF7B0BA827805
:103DE000012A06D10022027409234374418282828F
:103DF000C28200221146FFF7A2BA10B50446FFF7AF
:103E000040FE01212046FFF791FD002010BD00007B
:103E100001290AD00548022906D0042903D0052922
:103E200003D1032100E0012101707047C800002088
:103E300010B50446C06840F04000E060204600F045
:103E400005F84FF48030A063002010BD0146002229
:103E500000BF501C02460F4B984201D90320704707
:103E6000086900F000400028F3D00022086940F003
:103E70000100086100BF501C0246064B984201D960
:103E80000320ECE7086900F001000028F3D100BF2F
:103E9000E5E70000400D0300816821F00101816029
:103EA0000020704708B5D0F8402422F02E0200927E
:103EB000D20405D4012909D1009941F4805103E0CD
:103EC00021B9009921F48051C0F84014002008BDA8
:103ED000816841F0010181600020704700211022BB
:103EE0000261054A491C914201D9032070470369C8
:103EF000DB06F7D400207047400D0300002220238A
:103F000043EA811101610549521C8A4201D903200B
:103F1000704703699B06F7D400207047400D0300EB
:103F2000D0F8080480B2704708B5D0F8400400907B
:103F3000C0F3414008BD406900F00100704710B572
:103F40000246002302F5A06000EB4110006800204B
:103F500038B902F5A06000EB4110006800F40020C1
:103F6000C8B302F5A06000EB4110006840F0804447
:103F700002F5A06000EB41100460D06A80B258BB2B
:103F800002F5A06000EB4110006820F0004402F54B
:103F9000A06000EB4110046002F5A06000EB41104E
:103FA000006840F0004402F5A06000EB411004609E
:103FB00002F5A06000EB4110006820F4004402F517
:103FC000A06000EB4110046000BF581C0346B0F530
:103FD0007A7F02D90BE018E00AE002F5A06000EB5E
:103FE0004110006800F00040B0F1004FEDD060E0FB
:103FF00002F5A06000EB4110006840F0004402F5BB
:10400000A06000EB4110046053E002F5A06000EBFB
:104010004110006840F0804402F5A06000EB4110C0
:1040200004604FF48260805880B2A8BB02F5A060A3
:1040300000EB4110006820F0004402F5A06000EBA6
:104040004110046002F5A06000EB4110006840F0F0
:10405000004402F5A06000EB4110046002F5A0608E
:1040600000EB4110006820F4004402F5A06000EB72
:104070004110046000BF581C0346B0F57A7F00D998
:1040800009E002F5A06000EB4110006800F000407C
:10409000B0F1004FEFD00CE0FFE702F5A06000EBBD
:1040A0004110006840F0004402F5A06000EB4110B0
:1040B0000460002010BD0000F0B5DDE906564FF0A9
:1040C000FF3C00EB4114059FC4F808C535B1012D34
:1040D00015D0022D02D0032D1ED108E040F29D4CD8
:1040E00007E000BFD4F80CC54CF4807C12E040F22D
:1040F0009D6CC4F80CC55FEA026CF3D40CE040F28E
:10410000252CC4F80CC55FEA026C05D5D4F80CC5A3
:104110004CF4C07CC4F80CC5D0F818C44FF0010EA4
:104120000EFA01FE4CEA0E0CC0F818C4816941F089
:10413000007181614FF0FE5000EA83504FF4F0416E
:1041400001EAC22108434FF4004101EA0221084379
:10415000022F10D05FF0000140EA41404FF44021AF
:1041600001EA85410843C6F30A010843C4F8000583
:10417000032D02D007E00121EEE7D4F8000540F05E
:104180000050C4F800050020F0BD014640F2144084
:10419000405880B2704700002DE9F84F05460C46A4
:1041A00017464FF0000BDA4600264FF48078B146F0
:1041B000206968B1218920690844401EB0FBF1F0F4
:1041C00086B2464505DD464620897043206100E001
:1041D0000126E07810B12089704320612069C0F386
:1041E00012003E4901EAC6410843A17A4FF0C0429D
:1041F00002EA41710843617805F5A06202EB4111C2
:10420000086137B1607805F5A06101EB4010E26804
:1042100042614FF48160405900F0010080F0010BD1
:10422000607805F5A06101EB4010006820F00052B5
:10423000607801EB40100260607801EB401000688C
:1042400040EA4B72607801EB40100260607801EB4D
:104250004010D0F8009029F0804949F0004960787A
:1042600001EB4010C0F80090AFBBE07898BB20692C
:1042700088B3E07930B1012813D0022803D0032895
:104280001ED10DE000BF2069C01CC0F38F0AE86A90
:1042900080B2504503D2A86940F02000A86110E028
:1042A00000BF2069C01CC0F38F0A4FF482604059E0
:1042B00080B2504503D2A86940F08060A86100E058
:1042C00000BF00BF00200090208A83B26278284699
:1042D000E16800F015F9002000F002B80000F81FB6
:1042E00018BCBDE8E08F00002DE9F04717460446F2
:1042F00000252E46DDF82090C0F8005E032B07D184
:10430000B4F1A04F04D0D4F8000440F0040003E05E
:10431000D4F8000420F00400C4F800041021204662
:10432000FFF7ECFD2046FFF7D9FD4FF0FF3806E020
:1043300004EB4510C0F80885C0F80C656D1CAF4251
:10434000F6D801212046FFF7ADFDC820FCF7D9F9CA
:10435000A661C4F81480802060620948A062094800
:10436000C4F80001B9F1000F03D1A06940F01000BA
:10437000A061A06904490843A0610020BDE8F0875E
:1043800080006000E0004000080020A3D0F8002476
:1043900022F00302C0F80024D0F8002401F0030347
:1043A0001A43C0F80024012902D0022903D006E0F4
:1043B0004BF6803101E041F27071C0F80414002026
:1043C0007047416980690840704710B50346002076
:1043D000D21C920803F5805303E01C6841F8044B9B
:1043E000401C9042F9D3084610BD38B50446D0F8B9
:1043F000400420F02E00009040F48070C4F8400487
:104400000A2004F58864FCF77CF9009820F4807099
:104410002060002038BD10B5C26822F0C042C260E2
:10442000012901D021B107E0C16841F0005102E04B
:10443000C16841F08041C1603220FCF762F9002080
:1044400010BDF0B5054600270026A86820F0010041
:10445000A86010212846FFF751FD2846FFF73EFDD2
:10446000002411E005F5A06000EB4410066846F05A
:10447000804626F0004626F4004605F5A06000EBD5
:1044800044100660601CC4B20F2CEBDD002428E051
:1044900005F5A06000EB4410066846F0804646F043
:1044A000004626F4004605F5A06000EB44100660C7
:1044B00005F5A06000EB4410066000BF781C0746BD
:1044C000B0F57A7F00D909E005F5A06000EB441053
:1044D000006800F00040B0F1004FEFD000BF601C5A
:1044E000C4B20F2CD4DD4FF0FF3140F214404151E3
:1044F00008466861A86840F00100A8600020F0BD8F
:1045000010B50024DB1C9B0800EB023000F5805046
:1045100004E000BF51F8042B0260641C9C42F9D3F4
:10452000002010BD0B46024606A10A4800F018F80C
:104530000848FBF7F9FE82B2074B06490748FDF72A
:1045400025FCFEE74552524F523A20257328256438
:10455000290D0A00D025002040420F00CC28002061
:104560000FB4084B10B504A902AA039800F01CF878
:10457000044602A9002000F0F6F8204610BC5DF8C1
:1045800014FB00006747000802E008C8121F08C1BA
:10459000002AFAD170477047002001E001C1121FC4
:1045A000002AFBD1704700002DE9FF4F8BB09A46DF
:1045B0000F460546002606E025280BD052460D99E9
:1045C00090476D1C761C28780028F5D10FB0304636
:1045D00000F0C6B80024A0460122604900E0044370
:1045E00015F8013F203B02FA03F00842F7D1287882
:1045F0002E2817D115F8010F44F004042A280ED0F4
:104600006FF02F022878A0F1300109290AD808EBB1
:10461000880102EB410100EB01086D1CF2E757F83D
:10462000048B6D1C287869283ED006DC0028CDD08C
:1046300063280BD0642804D136E0732810D0752885
:104640004BD052460D999047761C85E017F8040B25
:104650008DF8000000208DF80100E946012003E0FC
:1046600057F8049B4FF0FF3061074FF0000401D46E
:104670000AE0641C44450DDA8442FADB19F80410A0
:104680000029F6D106E0641C8442FCDB19F8041012
:104690000029F8D1264404E019F8010B52460D997F
:1046A0009047641EF8D257E001CF4FF00A0B002864
:1046B00002DA40422D2102E0210504D52B218DF89C
:1046C0002410012103E0E10705D02021F7E70DF1D7
:1046D000200908910CE00021F9E701CF4FF00A0B07
:1046E000F9E75946FBF7BCFE01F1300209F8012D4C
:1046F0000028F6D1ADEB090000F1200B600701D4D2
:104700004FF00108D84502DDA8EB0B0000E00020C7
:104710008046002406E009A85246005D0D999047A6
:10472000641C761C08988442F5DB04E03020524675
:104730000D999047761CB8F10001A8F10108F5DC4D
:1047400005E019F8010B52460D999047761CBBF114
:104750000001ABF1010BF4DC6D1C34E7092801000A
:1047600030BCBDE8C08F0A68531C0B6010707047E6
:1047700010B5002821D0114B0022001F196803E05A
:10478000814203D80A4649680029F9D152B1136819
:10479000841A9C4204D1006818441060104602E05C
:1047A000506000E0186039B102680B1A934203D1DF
:1047B0000B681A4402604968416010BDCC000020BB
:1047C000EFF30580002800D001207047FCF792FA33
:1047D000FEF7E4F8FDF718FEFDF72CFFFDF70EFFDE
:1047E00000F0C0FBFDF7FCFD6420FBF78AFF00F042
:1047F00044F8FEE701460020842900D0C81C704719
:10480000F0B50B30154D20F007010024144A0FE0DD
:1048100003688B420BD38B4205D95E1A4318476855
:10482000C3E9006700E04368136002C004E0021DB2
:1048300010680028ECD12046002802D1286808B171
:104840000020F0BD064A07481060074A121A22F0FD
:104850000702C0E9002401202860D7E7D00000202B
:10486000CC000020242D0020202F002010B500B9FE
:10487000012000F09BFD002010BD10B500F02EFEC1
:10488000002010BD03C8002200F082BF2DE9FF41C7
:104890000D004FF00006CDE9016507461ED000244B
:1048A0000396501C1FD002B11446FFF789FF6946DA
:1048B0004FF01008E8B103AA2846091D01F098F945
:1048C000012813D000960398F0B115494FF080509D
:1048D0000860BFF34F8FBFF36F8F15E08020314624
:1048E0002A46009012E04FF0FF34DEE7CDF800805A
:1048F000E9E7002322462846091D00F06DFF012844
:1049000008D054B1402000909DE8070087E80700D8
:1049100000F008B8CDF80080F6E70020F3E70000CB
:1049200004ED00E003BCBDE8FC81000037B505469E
:1049300082B000200090140000D10124FFF740FF56
:104940004FF0000388B16A4603A9284601F0F2F847
:10495000012811D1009890B10A494FF080500860A9
:10496000BFF34F8FBFF36F8F09E0224603A928469C
:1049700001F030F8012802D0FF2005B030BD002042
:10498000FBE7000004ED00E010B501F0E3F90128B9
:1049900003D0BDE8104000F0D3BE10BD3EB50446C4
:1049A0000D46B0F90800FFF725FF02A9CDE9000187
:1049B000208A2B4682B2D4E9001001F09DF901282B
:1049C00001D000203EBD02983EBD00002DE9F0411F
:1049D000184C0F460546E6682068001D00F00CFBE9
:1049E00038B9206890F82C10012088402169814353
:1049F0002161681C07D137B12168BDE8F0410E483C
:104A0000091D00F02BBC20683544B5424560216883
:104A100005D2A06BBDE8F041091D00F007BC606B3A
:104A2000091D00F003FCA06A854200D2A562BDE822
:104A3000F081000028000020B00100202DE9F041A5
:104A4000054600F017FC2E4CA068401CA0602068B2
:104A50002C4F10B1606940B32DE02560A06801289B
:104A600029D1002606EB860007EB800000F0D0FB82
:104A7000761C072EF6D323488C3000F0C9FB214862
:104A8000A03000F0C5FB1F48B43000F0C1FB1D484A
:104A9000C83000F0BDFB1B48DC3000F0B9FB194802
:104AA0008C3060631430A06305E02068E96AC06A56
:104AB000884200D82560606A401C6062E96A012073
:104AC000226988401043206101EB810007EB8000E0
:104AD000291D00F0C3FB00F0EDFB606900280CD03D
:104AE0002068E96AC06A884207D207494FF08050BF
:104AF0000860BFF34F8FBFF36F8FBDE8F0810000F8
:104B000028000020D400002004ED00E070B5114E14
:104B1000114C17E000F016FD3068B8B101F018FA3A
:104B200000F0A8FBF068C568281D00F065FAA068D1
:104B3000401EA0606068401E606000F0BBFB28461D
:104B400000F055F860680028E4D170BD01F000FA6B
:104B5000F8E700009C0100202800002030B4026C1F
:104B60000B46002A0BD0C1681144C1604468A142C1
:104B700001D30168C16030BC1846FBF7C3BB30BC31
:104B800070472DE9F041856B174604460026026CFC
:104B900082B1C7B1E068FBF7B5FBE168206C091A88
:104BA000E1602268914202D26168081AE060022F37
:104BB00016D017E02068A8B9606801F043F90646EE
:104BC000002060600EE0A068FBF79CFB216CA068F1
:104BD0000844A0606168884204D32068A06001E0B6
:104BE00005B16D1E6D1CA5633046BDE8F08110B5A2
:104BF0000446006B00F072FB2046BDE8104000F058
:104C00006DBB00000F4842F20401420705D0C01DF1
:104C10000C4A20F00700821A891A0B4A002301442B
:104C2000C2E900030839103A21F0070111604B6016
:104C30000B600B1AC0E9001393604FF00040536003
:104C4000D0607047C401002080000020084C4FF065
:104C50008056084DFFF75AFF2068012804D92E60BE
:104C6000BFF34F8FBFF36F8F00F0EAF9F2E7000058
:104C7000D400002004ED00E02DE9F0479A46DDE97C
:104C8000098481466FF00303206B03EB820210441A
:104C9000089D20F00706700707D0502080F3118888
:104CA000BFF34F8FBFF36F8FFEE723180A5C83F8C3
:104CB00034200A5C12B1401C1028F6D3002784F877
:104CC0004370072D00D30625E562C4E91157201D66
:104CD00000F0A9FA04F1180000F0A5FA2461C5F16A
:104CE00007006462A061E76484F850705246494648
:104CF000304600F00FF92060B8F1000F01D0C8F87D
:104D00000040BDE8F087000030B5114900E01146D1
:104D10000A688242FBD34B685C18844203D1406826
:104D200018444860084643681C18944209D1084C4E
:104D3000103C2468A24209D052681A4442600A68B2
:104D400012680260814200D0086030BD0460F9E75B
:104D50008000002010B5044600F08CFAA06B28B14A
:104D60005FF0000400F0A6FA204610BD0124F9E728
:104D70000648416B096829B1416BC968C96849682F
:104D8000816270474FF0FF31FAE7000028000020F1
:104D900008484068401C4FF0500080F3118804D050
:104DA000BFF34F8FBFF36F8FFEE7BFF34F8FBFF39C
:104DB0006F8FFEE7640000202DE9F041044600F00B
:104DC00059FA94F9455004F1240609E0606A48B1A3
:104DD000304601F083F808B100F00EFB6D1E6DB295
:104DE000002DF3DC4FF0FF3684F8456000F062FAE6
:104DF00000F040FA94F9445004F1100709E02069EA
:104E000048B1384601F06AF808B100F0F5FA6D1EB5
:104E10006DB2002DF3DC84F84460BDE8F04100F091
:104E200049BA00002DE9F0410546002700F08AFB51
:104E3000314E306808B9FFF7E5FEF06805424BD106
:104E4000C5B3083568070ED005F00700C0F10800AB
:104E50000544680707D0502080F31188BFF34F8FB7
:104E6000BFF36F8FFEE72DB37068854234D82248B8
:104E7000103001460C6801E020460C466168A942EA
:104E800002D221680029F7D131688C4224D007680A
:104E90002168016060680837411B10290FD960192B
:104EA000420708D0502080F31188BFF34F8FBFF323
:104EB0006F8FFEE710E041606560FFF725FF6168D6
:104EC0007068401A7060B268904200D2B060F068BA
:104ED00001430020C4E9000101F03AF8780707D047
:104EE000502080F31188BFF34F8FBFF36F8FFEE721
:104EF0003846BDE8F08100007000002004490868D1
:104F000018B10868826C521C8264086870470000FF
:104F10002800002010B5031F4FF080741C601B1F79
:104F200021F001011960191F044B0B6014390A604C
:104F3000091F6FF0020244380A6010BD914D00084D
:104F400070B50D46014614460548FCF757FD291B70
:104F5000491CB0FBF1F201FB1200204470BD0000BF
:104F6000702500207CB5012000F000FC164C0022CA
:104F700004216063642000F00BFCA0630125002481
:104F8000CDE900542E022346324610A1114800F00C
:104F9000B3FECDE90054104B324610A1114800F089
:104FA000ABFE0D4BCDE900541C3332460EA10D482B
:104FB00000F0A2FE084BCDE90054383332460CA174
:104FC000084800F099FE7CBD8C00002042616E6BA9
:104FD00000000000515000087C25002054656C6CD6
:104FE00065723100B155000854656C6C6572320011
:104FF00054656C6C65723300D0E9013201699A60C6
:10500000D0E901235A604A68824201D182684A602D
:10501000002202610868401E0860704710B5040055
:1050200006D000F027F9A46B00F044F9204610BD2B
:10503000502080F31188BFF34F8FBFF36F8FFEE7CF
:105040000248016B491C0163704700008C0000207E
:105050008EB04FF00009DFF87CA15F4CCDF82C90AA
:105060004FF47A77CDF83090A06BFFF7D7FF054665
:1050700000233A461946606B00F0AEFB01287CD154
:1050800000F076FE0646A062FBF7C4F99FED531BC5
:1050900053EC112BFBF74FF9FBF7C9F901463C2004
:1050A000B1FBF0F200FB12116422B6FBF2F2B2FB8C
:1050B000F0F300FB132341F27070B6FBF0F20832FC
:1050C000C4E90832E16194F800809AF83C609AF8EB
:1050D00020C09AF80400CDE90015CDE9020CCDE915
:1050E000046840494048FFF73BFA3F48FDF738FF66
:1050F000606A0938072821D201203C4A20709110AB
:105100000CA8FFF71DFF3A4A0BA81111FFF718FF73
:105110000C984FF47A714843B0FBF7F000F046F971
:1051200000231A460BA9A06B00F054FCA06BFFF7FC
:1051300075FF61680546884200D96560606A10287D
:105140003DD384F80090D5BB2AA12F48FFF708FA79
:105150002D48FDF705FFDAF800000A90DAF81C1078
:10516000DAF828604218DAF80C50DAF83800DAF881
:105170004430354402442B4400E026E0B3FBF2FB0C
:1051800063690325B3FBF2F8A369B3FBF5FE231DA6
:1051900093E86810CDE90010CDE90763CDE905C5B6
:1051A00002A81A4980E8004917480A9B1430FFF703
:1051B000D7F915481430FDF7D3FE00F0C3F90023EA
:1051C0001A461946606B00F005FC642000F0EEF80A
:1051D0004AE700007C2500208C000020A3AEB5F734
:1051E000A9AAFA3FA86000080822002080A90300AD
:1051F0000053070042616E6B20697320636C6F730C
:1052000065642E2E2E0A0D00342300203C61000818
:1052100000F108014FF0FF32C0E90112C1600161E5
:1052200000210160704700210161704730B50B68B3
:105230005A1C02D000F1080202E0026904E0224692
:10524000546825689D42FAD953684B6099608A601A
:10525000516008610168491C016030BD42684A60C4
:1052600093688B6093685960916008610168491C7C
:1052700001607047502080F31188BFF34F8FBFF358
:105280006F8F0A494868401C486001280CD10848C3
:10529000006810F0FF0F07D0502080F31188BFF393
:1052A0004F8FBFF36F8FFEE7704700006400002050
:1052B00004ED00E00849486828B1401E486001D16B
:1052C00080F311887047502080F31188BFF34F8F0F
:1052D000BFF36F8FFEE700006400002070B5002868
:1052E00027D0144DA0F108046168E868014207D195
:1052F000502080F31188BFF34F8FBFF36F8FFEE70D
:1053000022683AB1502080F31188BFF34F8FBFF36A
:105310006F8FFEE78143616000F014F9606869688F
:10532000084468602046FFF7EFFCBDE8704000F0DD
:105330000FBE70BD7000002006484FF47A710068FF
:10534000B0FBF1F14FF0E020491E416107210161FE
:10535000704700000000002010B5FAF779FF1149EE
:1053600010280ED300F1E02090F8F0030A78904264
:1053700007D2502080F31188BFF34F8FBFF36F8F98
:10538000FEE709480068896800F4E060884207D9B0
:10539000502080F31188BFF34F8FBFF36F8FFEE76C
:1053A00010BD0000640000200CED00E010B502000C
:1053B00014D00F48006B38B1502080F31188BFF330
:1053C0004F8FBFF36F8FFEE700F0BCF8002110464F
:1053D000FFF7FCFA00F0BCFD002807D105494FF0AB
:1053E00080500860BFF34F8FBFF36F8F10BD000078
:1053F0002800002004ED00E001490120C861704749
:105400002800002010B50C4650B109490968183130
:10541000FFF70CFF2046BDE810400121FFF7D6BA88
:10542000502080F31188BFF34F8FBFF36F8FFEE7DB
:105430002800002070B5040039D01D4DE06A2968AD
:10544000C96A884233D2A069002804DB2868C06A90
:10545000C0F10700A061E16A164E01EB81016069AD
:1054600006EB810188421FD1201DFFF7C5FD0121F8
:1054700050B9E06A00EB800256F8222022B92A696E
:1054800001FA00F082432A612868C06AE0622A6952
:1054900081401143296100EB800006EB8000211D53
:1054A000BDE87040FFF7DABE2868C06AE06270BDF0
:1054B00028000020D400002028B107490A6A0260B1
:1054C000C96841607047502080F31188BFF34F8F47
:1054D000BFF36F8FFEE70000280000201CB51548C1
:1054E0000024CDE900402346802213A1144800F097
:1054F00003FC012809D0401C1AD1502080F31188E8
:10550000BFF34F8FBFF36F8FFEE7502080F31188FA
:10551000BFF34F8FBFF36F8F06484FF0FF312C382A
:10552000816201214161C460BDE81C4000F098B86F
:105530001CBD00005400002049444C450000000000
:105540004D4C00080248016B491C01637047000084
:10555000280000201448016B11B10121C16170477E
:105560000021C1610169B1FA81F1C1F11F0101EBB3
:1055700081020E4951F822306BB101EB820101F139
:1055800008034A6852684A609A4201D152684A60E8
:10559000D16801607047502080F31188BFF34F8FAE
:1055A000BFF36F8FFEE7000028000020D40000202A
:1055B00008B50026224C374605460096A06BFFF73B
:1055C0002DFD00231A466946A06B00F005F901285D
:1055D000F4D100230A221946606B00F0FDF801287F
:1055E0001BD12871E069C01BE062616901446161FF
:1055F000A168884200D9A0600098E168884200D97B
:10560000E060E96800230844E86028681A46401C06
:1056100028601946606B00F0DDF90AA10F48009A76
:10562000FEF79EFF0D48FDF79BFC00984FF47A7142
:105630004843B0FBF1F0FFF7B9FE2E71BEE7000062
:105640008C0000200C5472616E73616374696F6E1C
:105650005F743A202564200A0D0A0D003C250020C5
:105660001CB532480168324A914207D1502080F37C
:105670001188BFF34F8FBFF36F8FFEE700682C498F
:10568000491E884207D1502080F31188BFF34F8F05
:10569000BFF36F8FFEE7274908780190FF2008705D
:1056A00008788DF800009DF800009DF8002000F0BB
:1056B000F000904207D0502080F31188BFF34F8F45
:1056C000BFF36F8FFEE79DF800001B4A00F050000B
:1056D00010700720906005E09DF800305B008DF8A9
:1056E0000030401E9DF800301B06F5D4000200F487
:1056F000E0609060019808700C482030016841F427
:1057000070010160016841F070410160FFF714FE13
:1057100000205060FAF762FD0848016841F04041FE
:105720000160FAF74BFD00201CBD000000ED00E019
:1057300071C20F4100E400E06400002034EF00E09B
:1057400010B5502080F31188BFF34F8FBFF36F8FD8
:1057500000F014FB18B104494FF08050086000209D
:1057600080F3118810BD000004ED00E010B5024682
:105770000021012000F00CF8041E07D00021416038
:1057800001600B460A46C16000F024F9204610BDB6
:1057900070B50E46050013D0D6B105FB06F04830B3
:1057A000FFF740FB040009D004F1480120468EB108
:1057B0000160C0E90F56012100F0C8F8204670BD15
:1057C000502080F31188BFF34F8FBFF36F8FFEE738
:1057D0000020E4E70060ECE72DE9FF4F002683B0EE
:1057E0009B468A46040003D0BAF1000F08D011E0AE
:1057F000502080F31188BFF34F8FBFF36F8FFEE708
:10580000206C38B1502080F31188BFF34F8FBFF365
:105810006F8FFEE700F09EFADFF824814FF0000959
:105820004FF0805748B9059838B1502080F311885F
:10583000BFF34F8FBFF36F8FFEE7FFF71BFDA56B25
:1058400045B351462046E668FFF788F9BBF1000FE3
:1058500013D0E660606A50B104F1240000F03EFB12
:1058600028B1C8F80070BFF34F8FBFF36F8FFFF7F9
:1058700021FD012007B000F065B86D1EA56320680A
:1058800010B9FFF73BFB606020690028EFD004F1FE
:105890001000E3E7059808B11EB106E0FFF70AFD26
:1058A00027E06846FFF708FE0126FFF703FDFFF734
:1058B00049FEFFF7DFFC94F94400401C01D184F855
:1058C000449094F94500401C01D184F84590FFF7BD
:1058D000F1FC05A9684600F0D9F9002820460AD055
:1058E000FFF76AFA00F034FB2046FFF733FA00288E
:1058F000A3D00020BEE7FFF72DFAD8B1206830B959
:10590000FFF7B8FC6068FFF795FDFFF7D3FC04F1E3
:1059100024000599FFF776FD2046FFF74DFA00F0C9
:1059200017FB002889D1C8F80070BFF34F8FBFF371
:105930006F8F82E72046FFF73FFA00F009FB7CE714
:1059400004ED00E030BCBDE8C08F000070B50D462E
:10595000040025D0FFF78EFCD4E90F20216802FB5C
:10596000001161600021A1632168A1600A46D4E9A9
:105970000F01401E00FB0121E16021464FF0FF3086
:1059800001F8440F487004F110008DB1FFF740FC9E
:1059900004F12400FFF73CFCFFF78CFC012070BDF4
:1059A000502080F31188BFF34F8FBFF36F8FFEE756
:1059B00021690029F0D000F091FA0028ECD00449C8
:1059C0004FF080500860BFF34F8FBFF36F8FE3E756
:1059D00004ED00E02DE9FF4782B01D468A464FF0F6
:1059E0000008040003D0BAF1000F08D011E05020E5
:1059F00080F31188BFF34F8FBFF36F8FFEE7206CEA
:105A000038B1502080F31188BFF34F8FBFF36F8FF1
:105A1000FEE7022D0AD1E06B012807D0502080F369
:105A20001188BFF34F8FBFF36F8FFEE700F092F93D
:105A30003F4F4FF000094FF0805648B9049838B1F5
:105A4000502080F31188BFF34F8FBFF36F8FFEE7B5
:105A5000FFF710FCA06BE16B884207D3022D05D045
:105A60000498D0B1B8F1000F1AD01EE02A46514672
:105A70002046FFF786F8616A19B104F1240000F0AE
:105A80002DFA20B13E60BFF34F8FBFF36F8FFFF74A
:105A900011FC012006B0BDE8F087FFF70BFC22E007
:105AA0006846FFF709FD4FF00108FFF703FCFFF719
:105AB00049FDFFF7DFFB94F94400401C01D184F855
:105AC000449094F94500401C01D184F84590FFF7BB
:105AD000F1FB04A9684600F0D9F830B12046FFF781
